:020000040800F2
:10000000080400204D0B0008B10A0008B30A0008DC
:1000100000000000000000000000000000000000E0
:10002000000000000000000000000000B50A000809
:100030000000000000000000B70A0008B90A00082C
:10004000F704000800000000470500086F090008D9
:10005000730A0008CF0A0008FB0A0008BB0A000860
:1000600000000000070B0008690B00086B0B00087C
:100070006D0B00086F0B0008710B000800000000FA
:10008000730B00080000000000000000750B000862
:1000900000000000CD0A0008770B0008790B00086B
:1000A000000000007B0B0008000000007D0B000832
:1000B000F0B506688A4A894B174D164CA04201D00C
:1000C000A84206D17027BE4337004E683E43A04287
:1000D00008D0A84206D0114DA84203D0984201D0C2
:1000E000904203D17F4D3540CE682E4306608D6827
:1000F000C5620D888562A04203D0984201D090422B
:1001000001D109690163416901220A43426100206A
:10011000F0BD0000002C0140000400400020004021
:10012000F8B50D000126704B7049714C6D1E09D059
:100130000F3D3AD0F03D70D0F0273F01ED1B00D1CC
:10014000A2E0C9E00123DB43046A1C400462066AA2
:10015000446887697325AF4315683D430227BE4352
:10016000176937433B4056681E43624B984205D09F
:100170005A4B984202D05A4B984211D108239E43C1
:1001800053699B0033430426B3439668B6001E436D
:10019000594B234094691C432140D3695C000C43B4
:1001A00044608561D168416335E01025ED43016A03
:1001B00029400162066A44688169504F0F40116806
:1001C000090239432027BE4317693F0137433D40A9
:1001D000566836012E43474DA84205D03F4DA842F0
:1001E00002D03F4DA84212D18025AE435569AD01E2
:1001F00035434026B5439668B6012E43404D254011
:100200009469A4002C432340D469E4001C43446057
:100210008161D168816306625DE0056A364E2E40D9
:100220000662056A00954568C7697326B743166874
:100230003E43009F394017693F020F432E49394022
:1002400057683F020F432B49884205D02349884213
:1002500002D02349884211D13B4051698F021F438C
:100260002749394093689F020F43264929409369E3
:100270001B010B431C40D1694D0125434560C661FC
:10028000D168C163076226E01E4B016A1940016212
:10029000066A4568C169194F0F4011680902394360
:1002A00034401669360326433340546824031C4304
:1002B000104B984205D0094B984202D0084B984207
:1002C00004D1114B2B409569AD011D434560C161BF
:1002D000D1680164046200263000F2BD0044014090
:1002E00000480140FFFCFFFFFFF7FFFFFFFDFFFF9E
:1002F000FFDFFFFF002C0140FFFEFFFFFF8CFFFF31
:10030000FFFBFFFFFFEFFFFFFFBFFFFFF8B594B05C
:10031000142200210FA800F091F82022002107A844
:1003200000F08CF81822002101A800F087F83A4F5D
:10033000B80DB9680143B960B968084000900098E9
:10034000B4206946888700241094FA204001119057
:100350001294324D0FA92800FFF7AAFE28688021C9
:10036000884328600826A8693043A8616020079068
:10037000089409940A940B9407AA01212800FFF716
:10038000CFFEA86904218843A861286806432E602F
:1003900008043968014339603968084000900098C2
:1003A000022001900290039404940594069401A9FC
:1003B0001B4800F04DF815B0F0BD10B586B0142202
:1003C000002101A800F03AF88020800215490A684F
:1003D00002430A60096808400090009812480168CA
:1003E000124A0A4002608020800311490860B4204C
:1003F00069468880002002900E4903910490059080
:100400000D4C01A92000FFF753FE2068802188438E
:10041000206006B010BD0000141002400020004013
:10042000000400481810024014E400E0FF00FFFF41
:1004300000E100E0102700000044014010B5040076
:10044000080011000200200000F056F8200010BD46
:10045000F8B5002249E01E0A330073437343734327
:10046000466A1F01FF1ABE43009F7B43334343622A
:1004700034E001239340234036D01C005C436500E8
:100480002E19F5434E68012E01D0022E0ED186683A
:100490002E408F686743374387600E684768B743CD
:1004A000BC46CF687E4367463E434660C6682E40E2
:1004B0000F6967433743C7604E68022E0ED14E69FD
:1004C0000096FF2BC7D826005E435E43036A3701C0
:1004D000BF1BBB43009F7E431E43066203681D4053
:1004E0004B685C432C430460521C0C682300D340CF
:1004F000BFD10020F2BDFEE71206130A1A43130C07
:100500001A4300BF094205D0830705D00270401C82
:10051000491EF9D1704700001300103906D330B4DA
:100520001400150010393CC0FCD230BC490700D380
:100530000CC000D504C0890002D30280801C0029B1
:1005400000D502707047FEE780B5012035490A6882
:1005500002430A600A68104000900098802040051D
:100560004A6802434A6049680840009000982E4853
:1005700001680902090AC02212060A43026000F05B
:1005800009F800F068F8FFF7C1FE00F0AFF8FFF7D8
:1005900014FFFEE770B5012024490A6802430A608F
:1005A0000A680240FCD0224C2168084320600220E7
:1005B00021680140FCD080212268F8239A430A4335
:1005C000226062681B4B1340E02252031A436260B0
:1005D000E26A0F239A43E2622268C3051343236051
:1005E00022689201FCD56268F0239A43114361604E
:1005F0006168114A0A4062600325ED436168294041
:100600000843606060680C2101400829FAD10B4E54
:10061000300000F0D7F8300000F0E1F8206B054022
:10062000256370BD1810024020ED00E0002002405C
:1006300000100240FFFFC2FFFFF8FFFF80A8120179
:1006400081B025490A6802430A60096808400090A1
:10065000009801B07047F8B588B0082200216846BC
:10066000FFF7ECFE1822002102A8FFF7E7FE80202A
:100670008002FFF7E5FF8020C002FFF7E1FF90272F
:10068000FF058024BC6215480168F0229143016097
:100690001348F9680140F960396808403860202043
:1006A000009001256846057100264671032181717D
:1006B00000F09CF80294039504960596069602A90C
:1006C0003800FFF7C5FE074801680902090A016002
:1006D0000548046009B0F0BD141002400C00014050
:1006E000FFF3FFFF04E400E000E100E0F8B58EB0A6
:1006F0001C22002107A8FFF7A1FE1822002168464E
:10070000FFF79CFE2B488021C90142680A434260E2
:1007100042681140069106998021890202680A43C5
:1007200002600068014006910698802080000090D9
:1007300002270197032602960024039404940125BE
:10074000059569469020C005FFF782FEA80200903B
:100750000197029603940494059569469020C0057C
:10076000FFF776FE962000020790089409940A94F9
:100770000C200B900C940D940F4C07A9200000F056
:1007800089F8EFF31080012181F31088A1680B4AEA
:100790000A40A26080F310886068094901406160E6
:1007A000A06808218843A0602068054325600FB039
:1007B000F0BD00BF1410024000380140FFFBFFFFF6
:1007C000FFF7FFFF10B5074CFA21890000F0B4F8DD
:1007D000401E60600020A0600520206010BD02491E
:1007E0000860704710E000E00000002030B5010014
:1007F00000200C68264A0B79002B40D0002C45D0F5
:100800004D79002D03D0022D0DD008D313E055688B
:10081000A543556014680D68254315600CE0156804
:10082000A543156002E015682C43146054680D68F8
:100830002543556000E001208C79002C26D0012C46
:1008400004D01AD3032C0FD009D316E0D3680C6858
:10085000A343D360936809681943916030BD9368DE
:100860000C68A343936003E093680C681C43946096
:10087000D36809681943D16030BD012030BD1368C9
:10088000A3431360536809688B43536030BD000075
:100890000004014070B50122012403681A403CD1D4
:1008A0000D0001681F4A0A4069681143EA680A435B
:1008B00029691143AA690A43026041681A4A0A4039
:1008C000A968114341608168184A0A406969114367
:1008D00081601349884220D1002000F049F80028A7
:1008E0001BD02968002918D000244A08104EAB6993
:1008F00080252D02AB420BD14000801800F01CF87F
:1009000080B20C4901400007400F0143316004E010
:10091000801800F011F880B23060200070BD000037
:1009200000380140F369FFFFFFCFFFFFFFFCFFFF2F
:100930000C380140F0FF0000094214D088420FD368
:100940000122030C01D100041204002300185B41B2
:100950008B4200D35B1A5241F8D319001000704744
:1009600001000020704708B500F06AF808BDFEE7F6
:1009700001000020002900D0704780B52A490B6B88
:1009800002229B079B0F012B04D011D3032B04D011
:1009900008D30DE000F013F802BD09680A400DD03D
:1009A000224802BD096A0A4008D08020000202BD28
:1009B00000F005F800F00FF800F015F802BD80B562
:1009C0001B4800680C210140082902D100F013F8EF
:1009D00002BD164802BD16490968164A0906090FE4
:1009E000515CC840704712490968134A4905490FCC
:1009F000515CC840704730B50D4A106880214902EB
:100A00000840884201D1094800E00C48916A146806
:100A10000F252940491CFFF78FFFA10C0D40AD1C8D
:100A2000684330BD000000000010024000127A0050
:100A3000041002403C0B00085C0B000800093D005C
:100A4000704730B401220EE00368C31844680830D0
:100A5000144202D04D462C19641E1D6825601B1DD2
:100A6000241D091FF9D10168001D0029ECD130BCFB
:100A70007047FEE710B5074979441831064C7C44AD
:100A8000163404E0081D0A68891888470100A1424D
:100A9000F8D110BD0800000018000000A7FFFFFFFC
:100AA00004000000C0000000000000200000000062
:100AB000FEE7FEE770477047704703480268202151
:100AC0000A4000D001607047140401407047FEE7FF
:100AD00000F00DF8002801D0FFF7CCFF00BF00BFE9
:100AE000002000BF00BFFFF72FFD00F002F801203B
:100AF000704780B500F002F801BDFEE707463846B2
:100B000000F002F8FBE7FEE780B500BF00BF024A35
:100B100011001820ABBEFBE7260002000548014685
:100B200003B4684680F3098800BF00BF00BF00BF60
:100B3000FFF7CEFFA5EDF5FE7047000000000000B6
:100B4000000000000102030406070809014880476D
:100B500001480047390B00081D0B00080000000089
:100B60000102030400127A00FEE7FEE7FEE7FEE75B
:0E0B7000FEE7FEE7FEE7FEE7FEE7FEE7FEE734
:0400000508000B1DC7
:00000001FF
