:020000040800F2
:10000000080400202D130008191200081D12000812
:1000100000000000000000000000000000000000E0
:100020000000000000000000000000002112000895
:100030000000000000000000231200082512000844
:100040004308000800000000BF0E00085F10000811
:10005000E311000877120008DF12000827120008D9
:1000600000000000EB120008591300085B130008A1
:100070005D1300085F130008611300080000000012
:100080006313000800000000000000006513000872
:1000900000000000451200086713000869130008FB
:1000A000000000006B130008000000006D13000842
:1000B00081627047C1627047016370474163704756
:1000C00081637047C16370470164704741690122D1
:1000D0000A4342617047F8B504000E002568314FAD
:1000E000BC4202D03048844204D1702085432800AD
:1000F00075680543BC420BD02B48844208D02B487E
:10010000844205D02A48844202D02A48844203D13E
:1001100049482840F56805432560B1682000FFF78D
:10012000C9FF31882000FFF7C3FFBC4205D020483B
:10013000844202D01F48844203D131692000FFF776
:10014000BBFF2000FFF7C2FF0020F2BDF8B504009E
:100150000E00170001253000401E08D00F380CD0CB
:10016000F03810D0F0210901401A12D017E0390000
:10017000200000F021F8050011E03900200000F017
:100180005DF805000BE03900200000F09AF805004A
:1001900005E03900200000F0D5F80500FFE7280051
:1001A000C0B2F2BD002C014000040040002000401D
:1001B0000044014000480140F8B504000F00206AE7
:1001C000012188432062206A6668A1690322914365
:1001D000702291433A680A430092022188433969A8
:1001E0000143012081437D680D437548844205D059
:1001F0007448844202D07448844212D10820854356
:1002000078698000284304218843B9688D0005433C
:100210006E493140B86908436D490140F8694600AC
:100220000E4366600098A061F9682000FFF746FF62
:1002300025620020F2BD0000FFFCFFFFF8B50400BE
:100240000F001020C043216A01402162216A6668C4
:10025000A269604B1340604A1A403B681B0213437B
:100260000093202291433A6912010A4310407968B1
:100270000D0105435248844205D05248844202D0C1
:100280005148844213D180208543786980012843F6
:1002900040218843B9688D01054344493140B8691C
:1002A0008000084342490140F869C6000E43666079
:1002B0000098A061F9682000FFF702FF2562002086
:1002C000F2BDF8B504000F004048216A01402162E8
:1002D000216A6668E26903239A4370239A433B6864
:1002E000134300933A4A0A4039690902114308400E
:1002F00079680D0205433248844205D03148844272
:1003000002D03148844213D12949294078698002BA
:10031000084326490140B86885020D43254931400C
:10032000B8690001084324490140F86946010E43B9
:1003300066600098E061F9682000FFF7C3FE25625F
:100340000020F2BDF8B504000E001A48216A0140F1
:100350002162216A6568E2691E4B13401E4A1A40F9
:1003600033681B0213430093134A0A40316909039F
:100370001143084071680F0307431148844205D0B8
:100380001048844202D01048844204D10B482840CF
:10039000B1698D01054365600098E061F168200056
:1003A000FFF792FE27620020F2BD0000FFFBFFFF77
:1003B000FFF7FFFFFFEFFFFFFFDFFFFFFFBFFFFFC5
:1003C000002C01400044014000480140FFFEFFFFB7
:1003D000FFFDFFFFFFFCFFFFFF8FFFFF00B50100E8
:1003E00049B2002905D40121C206D20E9140A34A88
:1003F000116000BDF0B5020052B2002A1CD40322E5
:100400009F4B040064B2A40804256C431C59FF25CB
:100410001600064008277E43B540AC438D01EDB27F
:1004200002400826724395402543020052B29208CA
:10043000042462439D5022E00F24924A03230500C6
:100440006DB22540083DAD0804267543060076B21E
:100450003440083CA408042674431659FF27BC46C0
:100460001C00044008277C436746A740BE438C011C
:10047000E4B2034008277B439C4034435451F0BD11
:1004800081B081490A6802430A600968014000910D
:10049000009901B0704781B07C490A6802430A6044
:1004A000096801400091009901B0704781B0784916
:1004B0000A6802430A60096801400091009901B08E
:1004C0007047026808239A430A4302607047016834
:1004D0008022914301607047F0B5012901D10022CB
:1004E00018E0042901D1012214E0102901D10222CF
:1004F00010E0402901D103220CE0802252009142F9
:1005000001D1042206E08022D200914201D10522CD
:1005100000E00622030018335E4C1500EDB2645D66
:100520001B191D6804245C4E1700FFB2F65DB44031
:10053000A5431D60F0BDF0B5012901D1002218E0EE
:10054000042901D1012214E0102901D1022210E076
:10055000402901D103220CE080225200914201D1B6
:10056000042206E08022D200914201D1052200E05F
:10057000062203001833474C1500EDB2645D1B19C9
:100580001D680824444E1700FFB2F65DB4402C43AA
:100590001C60F0BD30B593B0142200210EA800F00D
:1005A00085F82022002106A800F080F818220021FA
:1005B000684600F07BF880204000FFF76CFFB42015
:1005C0006946088700240F94FA2040011090119486
:1005D000324D0EA92800FFF77EFD2800FFF777FFB8
:1005E00001212800FFF7A7FF6020069007940894D8
:1005F00009940A9406AA01212800FFF7A7FD01210A
:100600002800FFF769FF08212800FFF75AFF802024
:10061000C002FFF735FF022000900190029403947E
:100620000494059469461E4800F0A7F813B030BD45
:1006300018B585B014220021684600F037F88020F4
:100640008002FFF733FF00211520FFF7D3FE1520AE
:10065000FFF7C4FEB42069460880002001901149CC
:10066000029103900490104C69462000FFF733FD7F
:100670002000FFF72CFF06B010BD000000E100E0F5
:1006800000E400E01CED00E0141002401C100240E9
:1006900018100240441300084C13000800200040CA
:1006A00000040048102700000044014010B5040079
:1006B000080011000200200000F09CF8200010BD8E
:1006C00030B403680C004C4303256C43A3430C0077
:1006D0004C4354431C43046030BC704710B443681F
:1006E0008B430C0054431C43446010BC704730B42F
:1006F00083680C004C4303256C43A3430C004C431C
:1007000054431C43846030BC704730B4C3680C0051
:100710004C4303256C43A3430C004C4354431C43FC
:10072000C46030BC704730B4036A0C004C434C4387
:100730004C430F256C43A3430C004C434C434C43A8
:1007400054431C43046230BC704730B4446A0B0A03
:100750000D0A6B430D0A6B430D0A6B430F256B4368
:100760009C430B0A0D0A6B430D0A6B430D0A6B4346
:1007700053432343436230BC7047F8B506000C0076
:1007800000252068E840002832D020680121A940D7
:1007900001400F00002F29D06068012802D0606856
:1007A000022809D1A26839003000FFF7A0FFE268F3
:1007B00021683000FFF792FF226939003000FFF70F
:1007C000A4FF606802280CD1FF2F05D862693900A8
:1007D0003000FFF7A8FF04E0626939003000FFF73E
:1007E000B4FF626839003000FFF76AFF6D1CC8E78C
:1007F0000020F2BD1206130A1A43130C1A4300BF5D
:10080000094205D0830705D00270401C491EF9D16A
:10081000704700001300103906D330B414001500DF
:1008200010393CC0FCD230BC490700D30CC000D505
:1008300004C0890002D30280801C002900D5027008
:100840007047FEE7F0B5020052B2002A1CD4032222
:10085000854B040064B2A40804256C431C59FF2591
:100860001600064008277E43B540AC438D01EDB22B
:1008700002400826724395402543020052B2920876
:10088000042462439D5022E00F24784A032305008C
:100890006DB22540083DAD0804267543060076B2CA
:1008A0003440083CA408042674431659FF27BC466C
:1008B0001C00044008277C436746A740BE438C01C8
:1008C000E4B2034008277B439C4034435451F0BDBD
:1008D0006748016801220A43026070476448016862
:1008E00008008007C00F704761490A68F8239A43DF
:1008F000C30013430B6070475E490A6803239A43A1
:1009000002430A6070475B4801680C20084070474A
:1009100058490A68F0239A4302430A6070475549D0
:100920000A68554B134003430B60704710B453499A
:100930000A680323040EA3409A4303021B0A1343CD
:100940000B6010BC70474A480168802252040A4379
:10095000026070474648016808008001C00F704778
:1009600010B4444A1368464C1C4080235B02034089
:1009700023430B431360434A13680F24A343040724
:10098000240F1C43146010BC704781B03E490A68B4
:1009900002430A60096801400091009901B0704764
:1009A00081B03A490A6802430A600968014000912F
:1009B000009901B0704736490A6801239A430243FF
:1009C0000A607047324801680800C007C00F7047CE
:1009D00080B50120FFF7E4FF80204005FFF7D5FF39
:1009E00003210020C043FFF72DFF00F009F800F0BD
:1009F000E4F8FFF7CFFD00F065F9FFF719FEFEE719
:100A000010B50120FFF7D7FFFFF7DCFF0128FBD16E
:100A1000FFF75EFFFFF762FF0128FBD11020FFF711
:100A200063FFE02149030020FFF79AFFFFF78BFFE8
:100A3000FFF790FF0128FBD18020FFF769FF00201E
:100A4000FFF76DFF0220FFF757FFFFF75CFF082855
:100A5000FBD1104C200000F09CF9200000F0A1F91F
:100A60000020FFF763FF10BD00E400E01CED00E094
:100A70000010024004100240FFF8FFFF3010024057
:100A8000FFFFC2FF2C1002401C1002401810024051
:100A90000020024080A8120100B5010049B20029DF
:100AA00005D40121C206D20E9140684A116000BDF2
:100AB000F0B5020052B2002A1CD40322644B040099
:100AC00064B2A40804256C431C59FF251600064097
:100AD00008277E43B540AC438D01EDB202400826A5
:100AE000724395402543020052B2920804246243A7
:100AF0009D5022E00F24574A032305006DB2254084
:100B0000083DAD0804267543060076B23440083C23
:100B1000A408042674431659FF27BC461C00044051
:100B200008277C436746A740BE438C01E4B20340DC
:100B300008277B439C4034435451F0BD81B0464963
:100B40000A6802430A60096801400091009901B0F7
:100B5000704730B4414ACBB204246343D3580F24C6
:100B60000D002D0CAC40A3430C00240C0500A54047
:100B70001D43CBB204246343D55030BC704730B41E
:100B800003680C004C4303256C43A3430C004C4307
:100B900054431C43046030BC704730B4C3680C003D
:100BA0004C4303256C43A3430C004C4354431C4368
:100BB000C46030BC70478162704770B588B008224D
:100BC00000216846FFF772FD1822002102A8FFF7F6
:100BD0006DFD80208002FFF7B1FF8020C002FFF78B
:100BE000ADFF9024E40580212000FFF7E4FF1C49BD
:100BF0000020FFF7AEFF002220212000FFF7CDFFED
:100C0000002220212000FFF7BAFF202000900125BC
:100C1000684629000171002631004171032181716C
:100C2000684600F0F9F88020029003950496059636
:100C3000069602A92000FFF7A0FD00210720FFF77C
:100C400037FF0720FFF728FF08B070BD00E100E084
:100C500000E400E01CED00E0141002400800014038
:100C60000100040081B03D490A6802430A60096836
:100C700001400091009901B0704781B038490A687D
:100C800002430A60096801400091009901B0704771
:100C9000016801220A43026070474168314A0A40F4
:100CA000426081680822914381607047EFF31081B0
:100CB000012282F3108882682B4B1340836081F3FA
:100CC00010887047F0B58DB01C22002106A8FFF7F0
:100CD000EDFC182200216846FFF7E8FC8020C001E7
:100CE000FFF7CBFF80208002FFF7BCFF8020800051
:100CF000009002270197032602960024039404948F
:100D00000125059569469020C005FFF736FD802036
:100D1000C0000090019702960394049405956946DB
:100D20009020C005FFF729FD962000020690079449
:100D3000089409940C200A900B940C940B4C06A96F
:100D4000200000F0F4F82000FFF7B0FF2000FFF7CC
:100D5000A4FF2000FFF79CFF0DB0F0BD141002406F
:100D600018100240FFF7FFFFFFFBFFFF00380140B4
:100D700030B504000D002000290000F019F9401ED4
:100D800009490860002009490860052008490860F1
:100D900030BD10B50400FA2189002000FFF7E8FFFC
:100DA00010BD04490860704714E000E018E000E05E
:100DB00010E000E00000002013490A6802430A60C6
:100DC000704711490A6882430A6070470F490A68F0
:100DD00002430A6070470D490A6882430A607047FF
:100DE0000B490A6802430A60704709490A6882434E
:100DF0000A60704707490A6802430A60704705495C
:100E00000A6882430A6070470004014004040140FC
:100E1000080401400C04014038B504000025207985
:100E2000002843D02068002846D06079002803D0ED
:100E300002280FD007D314E02068FFF7CCFF20680A
:100E4000FFF7BAFF0FE02068FFF7BBFF2068FFF74E
:100E5000BDFF08E02068FFF7AFFF2068FFF7B6FF8F
:100E600001E001200500A079002825D0A079012803
:100E700004D018D303280FD007D314E02068FFF75D
:100E8000BEFF2068FFF7ACFF16E02068FFF7ADFF5C
:100E90002068FFF7AFFF0FE02068FFF7A1FF206891
:100EA000FFF7A8FF08E00120050005E02068FFF734
:100EB00088FF2068FFF78FFFEDB2280032BDFEE704
:100EC00001680800C007C00F70474268334B1340E9
:100ED0000B43436070478268314B13400B43836080
:100EE0007047FCB504000D0016001F0080200002B2
:100EF000864214D10220684379084018390000F076
:100F000057F880B200900099264808400099490897
:100F10004907490F084301900198E06006E078080E
:100F20002818390000F044F880B2E060F3BDF8B54D
:100F300006000C000127002500953000FFF7C0FFD8
:100F4000002827D130681949014060680843E168EA
:100F5000014320690843A16901433160A168300061
:100F6000FFF7B3FF61693000FFF7B5FF0E48864217
:100F700003D1002000F0A9F800900098002809D0C3
:100F80002068002806D02F002368A269009930004D
:100F9000FFF7A7FF3800C0B2F2BD0000FFCFFFFF90
:100FA000FFFCFFFFF0FF000000380140F369FFFF86
:100FB0000022030A8B420BD203098B4219D2430849
:100FC0008B422ED2411A00D2014652411046704740
:100FD000FF2209023FD012068B4205D312120902EA
:100FE0008B4201D31212090203098B4219D300E08C
:100FF000090AC3098B4201D3CB01C01A52418309AC
:101000008B4201D38B01C01A524143098B4201D359
:101010004B01C01A524103098B4201D30B01C01A84
:101020005241C3088B4201D3CB00C01A52418308FE
:101030008B4201D38B00C01A524143088B4201D32B
:101040004B00C01A5241884200D3401A5241CFD2BD
:1010500001461046704708B500F0C2F808BDFEE72B
:101060005648016808008007C00F7047544801685F
:1010700008008007C00F7047524801680C200840E4
:10108000704750480168F020084070474D4801689B
:10109000E020C000084070474B49096803228240A5
:1010A0000A40000610437047464800688021490204
:1010B0000840704743480168F020800308407047AB
:1010C000424800680007000F704738B5040000254B
:1010D000002C23D12000FFF7DFFF012804D016D316
:1010E000032805D00BD312E000F01AF8050015E034
:1010F000FFF7B6FF002801D0354805000EE0FFF7E6
:10110000B5FF002802D080200002050006E000F0B4
:1011100007F800F019F800F023F80500280032BDA8
:1011200010B50024FFF7A8FF002804D0042804D03D
:10113000082804D006E0264805E0254803E000F032
:1011400019F800E0224810BD10B50400FFF799FF20
:10115000204900090007000F085CC440200010BDB2
:1011600010B50400FFF792FF1B49000A085CC44059
:10117000200010BD70B500242600FFF795FF050084
:101180002800002804D080214902884202D003E0D0
:10119000124C02E00E4C00E0104CFFF791FF0100F2
:1011A0002000491CFFF704FF0600FFF783FF800CB7
:1011B0000107090F891C3000484370BD0010024030
:1011C0002010024004100240301002402C10024057
:1011D00000127A001C1300083C13000800093D00AF
:1011E0007047FEE700B5064909680140814201D118
:1011F000012000E00020C0B200BD01490860704736
:101200001404014000B500690840884201D1012062
:1012100000E00020C0B200BD00B5FEE700B5FEE76B
:1012200070477047704780B52020FFF7DBFF00282C
:1012300007D02020FFF7E1FF20219020C005FFF715
:10124000E1FF01BD704730B401220EE00368C3180E
:1012500044680830144202D04D462C19641E1D68A3
:1012600025601B1D241D091FF9D10168001D0029DF
:10127000ECD130BC7047FEE710B50749794418310E
:10128000064C7C44163404E0081D0A688918884717
:101290000100A142F8D110BD0800000018000000B4
:1012A000A7FFFFFF04000000AC00000000000020CA
:1012B0000000000000F00DF8002801D0FFF7DCFF6F
:1012C00000BF00BF002000BF00BFFFF781FB00F0A0
:1012D00002F80120704780B500F002F801BDFEE77A
:1012E0000746384600F002F8FBE7FEE780B500BF8E
:1012F00000BF024A11001820ABBEFBE72600020027
:101300000548014603B4684680F3098800BF00BF62
:1013100000BF00BFFFF7CEFFA5EDF5FE0000000007
:101320000000000001020304060708090148804785
:101330000148004771130008011300080000000075
:10134000010203040000000004040400000008007F
:101350000000080000127A00FEE7FEE7FEE7FEE765
:10136000FEE7FEE7FEE7FEE7FEE7FEE7FEE700003A
:021370007047C4
:0400000508001301DB
:00000001FF
