:020000040800F2
:10000000880D0020A92C00084D2B00084F2B00085C
:1000100000000000000000000000000000000000E0
:10002000000000000000000000000000512B00084C
:100030000000000000000000532B0008552B0008B2
:100040006B110008000000000B1300081F180008C7
:1000500023180008271800081F1E00085F2B00083F
:1000600000000000932900084F2C00085B2C0008BA
:10007000C12C0008C32C0008C52C0008000000009B
:10008000C72C000800000000000000002F2400081A
:1000900000000000752B0008C92C0008CB2C0008BC
:1000A00000000000CD2C000800000000CF2C00084C
:1000B000FDB5B2B03A98049102A93B2288540020C1
:1000C0000D9024A8401C2F900DE00498329A904780
:1000D0000490002801D100F001FF0D98401C0D9004
:1000E0003398401C339033980178002910D025298B
:1000F000EBD100200790089009900A900B900C908B
:10010000002102240120149008201290339D05E064
:100110000D9800F0E5FE0800149901436D1C287845
:100120002028F8D023280BD02B2804D02D2804D049
:10013000302808D00AE02143F0E708000421ECE76A
:1001400008000821E9E708001021E6E72A280FD176
:10015000349802681068121D349B1A600F900028B2
:1001600004D542420F920800042101436D1C12E0A5
:1001700000200F90654A09E00F9B934205DA9E002C
:10018000F3185B00181830380F906D1C28780300A6
:10019000303B0A2BF0D328782E2803D00020C04310
:1001A0000E9027E06D1C28782A2808D13498006822
:1001B0000268001D349B18600E926D1C1AE02D28F9
:1001C00002D12D226D1C00E0002200200E900CE0D8
:1001D000002A09D10E9B4D4EB34205DA9E00F3185A
:1001E0005B00181830380E906D1C28780300303BE7
:1001F0000A2BEDD302A801872E78310041487844BC
:10020000FF30C01C00F052FF002801D06D1C00E040
:10021000002602A83A214654405C682804D1287878
:1002200068280BD1622005E06C2807D128786C285B
:1002300004D1712002A93A2288546D1C15A8069099
:10024000287869460870681C339068460278100068
:10025000253833D01C3800D116E2001F022800D800
:1002600012E2133801D100F065FD093800D10BE22C
:10027000801E01D100F0FBFD401E01D100F0A8FD61
:10028000401E022800D8FFE1001F01D100F0A0FDB0
:10029000401F00D152E1401E01D100F04BFD401E35
:1002A00000D1F3E0C01E10D0801E01D100F042FD4D
:1002B000C01E01D100F03EFD00F0E4FD252015A98F
:1002C00008701498079000F0E8FD349800680468FE
:1002D000001D349908600594002C00D0C2E002A8EB
:1002E0003B21405C002800D1B5E00024E4430648EF
:1002F0007844143000F002FF201A01D000F0EEFD27
:1003000000F0CBFD2426000058260000CBCCCC0CFE
:1003100001236A4602A9280000F0ADFE002801D0A2
:1003200000F0DCFD641EF3D13295079D15AC002D65
:100330000FD0329E227802A9300000F08BFE0028F8
:1003400002D4641C6D1EF5D13296002801D000F055
:10035000C5FD3020694608700A9C002C0DDD329DD9
:1003600001236A4602A9280000F085FE002801D07A
:1003700000F0B4FD641EF3D13295059C089D002D5C
:100380000FD0329E227802A9300000F063FE0028D0
:1003900002D4641C6D1EF5D13296002801D000F005
:1003A0009DFD302769460F700B9C002C0DDD329DA2
:1003B00001236A4602A9280000F05DFE002801D052
:1003C00000F08CFD641EF3D132950598089944180D
:1003D000099D002D0FD0329E227802A9300000F036
:1003E00039FE002802D4641C6D1EF5D13296002817
:1003F00001D000F073FD684607700C9C002C0DDDE9
:10040000329D01236A4602A9280000F034FE00282C
:1004100001D000F063FD641EF3D1329502A83821AB
:10042000405C400700D45EE62020694608700198D1
:10043000002800DC57E6019C329D01236A4602A990
:10044000280000F018FE002801D000F047FD641ECF
:10045000F3D1329547E63F487844FF30C01F0590FE
:1004600000F01BFD0E9D002D03D5200000F06AFE5C
:1004700009E02A000021200000F06CFE002801D0D5
:10048000001B00E02800089000F007FD3498006889
:100490000268001D349908600020C043002110400C
:1004A00002AA03C215A80590069A3C2302A803C815
:1004B000002904D1002802D10E9C002C14D05B1E10
:1004C00005072D0F30353A2D08DAD55400090C07F1
:1004D0002043090904D1002802D105E02735F4E7BB
:1004E000059CD518AC42EAD33C20C01A0890D1181C
:1004F00005910E99884208DA081A0A9002A8018F1D
:10050000AA4A0A40028700F0C8FC002901D400F082
:10051000C4FC02A93822895C14220A40102A01D0A6
:1005200000F0BBFC0F99079A891A0A9A891A081ACF
:10053000002801DC00F0B1FC00F0FAFB02A83B212E
:10054000415C002908D00024E4434B487844FF3044
:100550002930CFE6282400003A21405C62286AD086
:10056000682819D06A2845D06C2806D071284FD049
:10057000742831D07A2821D06FE03498006801685F
:10058000001D349A106000297AD10024E4433B48CE
:100590007844FF301738ADE6349800680168001DD4
:1005A000349A1060002905D10024E443334878448C
:1005B000CA309FE60D98088000F06FFC3498006800
:1005C0000168001D349A1060002959D10024E443C9
:1005D0002A487844A6308DE6349800680168001DEA
:1005E000349A106000294BD10024E4432348784416
:1005F0008A307FE6349800680268001D34990860EC
:10060000002A13D10024E4431C4878446E3071E67C
:10061000349800680268001D34990860002A05D1EA
:100620000024E44315487844523063E60D98C1171E
:1006300003C200F032FC349800680168001D349A4F
:100640001060002905D10024E4430C4878442C3084
:1006500050E60D98087000F020FC3498006801689E
:10066000001D349A106000290AD10024E443034895
:10067000784408303EE600BFB8220000CC220000DB
:100680000D98086000F009FC34980368DB1D072012
:1006900083433498036003CB349D2B6002AB03C3C8
:1006A0002023C80F04D007982D2115AB19540DE055
:1006B00002A8008F204204D007982B2115AB1954B3
:1006C00004E0C00704D5079815A90B54401C0790F7
:1006D00015A807994318059324AD02A8C0C8684619
:1006E00000782021014368468170807861280BD012
:1006F0000E98002801D5062005E005D168468078CF
:10070000672801D114980E9002A803C808004C0075
:100710006415641C0ED109030CD003200890613AC3
:100720001A2A03D22249794486310FE021497944BB
:1007300082310BE0002C0ED100030CD10320089075
:10074000613A1A2A1DD31C4979446C3103221800DE
:1007500000F026FDA1E301AA02A803C800F02DFDC8
:1007600002AA03C268468078612813D10598302117
:100770000170811C059169460978612905D17821AC
:1007800004E00E4979443431E0E75821417007987C
:10079000801C079002A803C892A20CCA02400B401A
:1007A0000ED1002A0CD10024002660E1EFFF0000EA
:1007B000D0210000D0210000D4210000CC21000075
:1007C00068468078612800D099E00E98002801D50D
:1007D000212000E0401C13901398401C2E90300004
:1007E00039000022002300F0FDFC02A830C802D22C
:1007F0008020000645400198001F019024A90A703E
:1008000024A8461C2E98002832DD2E9F20002900A7
:10081000002280235B0300F0FEFC29D81C2200F09C
:1008200013FD04000D0000F047FD2E90FF1F002F68
:1008300009DD00F07BFD02000B002000290000F024
:10084000DCFD04000D00F01D07212E9A002A0ADDB0
:10085000491E08D4401E13071B0F03701211F5E741
:10086000401E00220270491EFAD5C61D002FCDDCA5
:1008700024A82F99711A24AA551C139A0C0091428E
:1008800000DD1400002C33D48C4205DA411C095DD4
:10089000082901DB0F2100E00021220024AB9B1876
:1008A00001E0641E5B1E521E1E788E42F9D00F2995
:1008B00004D1411C895C491C401C8154002A04D588
:1008C00024AD641C0198001D0190611E10D46A18AB
:1008D0006846007813783033DEB23A2E01DBC31855
:1008E000C6331370491E521E0029F3D5694608709D
:1008F0000E98002800D4B9E0601E0E90B6E07F008C
:100900007F08019868494843684900F0EDFD01906F
:1009100007200199401A002805DD02003000390047
:1009200000F072FB0AE042420020614900F06CFBDB
:1009300002000B003000390000F005FE6A46927894
:10094000662A02D1019A0A3200E006220E9B9A180A
:10095000142A00DD142224AB30241C705C1C02E03D
:1009600030A803C8139A002A40DD30AB03C31392AA
:1009700030A803C800F0B2FC2E90064608340425C7
:1009800030000A2100F0C4FD0F0030000A2100F001
:10099000BFFD06003037601E077030000A2100F0EE
:1009A000B7FD0F0030000A2100F0B2FD0600A41EC2
:1009B000303727706D1EE3D1083413980838139030
:1009C0000028CDDD2E9800F0A1FC02000B0030A81D
:1009D00003C800F012FD0022364B00F015FE30AACD
:1009E00003C2C5E7FFFFFFFFFFFFFF7F2F98201A1D
:1009F00024A94D1C04E0401E0199491E01916D1C63
:100A000029783029F7D069468978662902D1019979
:100A1000491C06E069468978652901D1149900E0EE
:100A200000210E9A5418A04200DA441E002C1DD456
:100A3000844204DA285D342801DD392100E03021C8
:100A40002200681E831801E0641E5B1E521E1E7881
:100A50008E42F9D0392902D1A95C491CA954002A37
:100A600004D50500641C0198401C0190019E13955B
:100A7000684600786946487000F088FE406A007851
:100A8000694608700E9D20B2002804DC149C0548BD
:100A90007844103013906846807866280CD1761C14
:100AA00024E000BFEC1E000097750000A086010046
:100AB0000000F03F84D7974168468078672846D188
:100AC00030B20321C943884247DBA84245DA761C8D
:100AD00002A8008F1299C0B2084203D120B2A842E6
:100AE00000DC050030B22D1A00D5002537B2002FEA
:100AF00000DDBAE00898411C08913021059A115494
:100B0000002D05DC02A8008F1299C0B2084206D061
:100B10000898411C089169460978059A1154784251
:100B2000854200DA6E4236B270420B90AD1920B2A7
:100B3000854200DA2C0024B209942200139905980A
:100B4000089BC01800F02CFB281B0C90DAE06846CC
:100B50004078612818D170201BE020B2A84206DA44
:100B600002A9098F129AC9B2114200D105006D1E67
:100B700000D5002568464078672802D1652069467F
:100B800007E04520694604E068464078412801D1E5
:100B9000502048700898411C089113990978059ACB
:100BA00011541398411C002D05DC02A8008F129AE5
:100BB000C0B2104219D00898421C08926A461278B6
:100BC000059B1A54002D10DD641E20B2854200DA08
:100BD0002C0022B20598089BC01800F0E1FA24B25C
:100BE000089800190890281B0B9005980899401840
:100BF00069464978017031B2002903D42B21417034
:100C0000871C03E02D224270871C4E42002412AD47
:100C1000300008E00A2100F067FC30AA03C2297006
:100C20003098641C6D1C00B20028F3DC012C08DC39
:100C30006846407820210143652902D13020387070
:100C40007F1C002C09D1302038707F1C07E0641E07
:100C500012A8005D303038707F1C002CF7DC05983E
:100C600008994018381A09904CE020B231B28842F5
:100C70001DDA22B213990598089BC01800F090FA6B
:100C800024B2089800190890391B0B91002D05DC3F
:100C900002A9098F129AC9B2114206D06946097891
:100CA000059A11540998401C09900C952AE032B21B
:100CB00013990598089BC01800F072FA0898C0199B
:100CC0000890A41B002D05DC02A9098F129AC9B255
:100CD000114205D0411C089169460978059A1154C2
:100CE00020B2854200DA2C0022B21398C11905986F
:100CF000089BC01800F054FA24B208980019089014
:100D0000281B0B9002A83821405C142101401029B7
:100D100000D0C2E00798089940180B99401809992B
:100D200040180C9940180F99884200DBB5E0081A6A
:100D30000A90B2E002AA3A20105C622808D0682823
:100D40000ED06A2814D06C281DD0712810D01AE05B
:100D5000349801680868091D349B1960C0B218E016
:100D6000349801680868091D349B196080B210E04E
:100D700034980368DB1D072083433498036003CB5A
:100D8000349C236006E0349801680868091D349B90
:100D90001960002102AB03C3108F1299C0B2084240
:100DA0005BD002A803C8002901D1002855D06846AD
:100DB00000782021014378294FD1079815A93022C6
:100DC0000A54401C421C07926A4612780A5444E0B6
:100DD00002AA3A20105C622808D068280ED06A283F
:100DE00014D06C281DD0712810D01AE034980168F6
:100DF0000868091D349B196040B218E034980168F6
:100E00000868091D349B196000B210E0349803682B
:100E1000DB1D072083433498036003CB349D2B6094
:100E200006E0349801680868091D349B1960C117F1
:100E300002AB03C3002902DA07982D2109E0108FC5
:100E4000204202D007982B2103E0C00705D5079860
:100E5000202115AA1154401C079015A80799401885
:100E600005906846017802A800F03CF815E0149857
:100E70000790349800680168001D349A106015A826
:100E800001700AE0252015A908701498079068469B
:100E90000078002801D04A7007940F980799401AEB
:100EA0000A99401A0899401A0B99401A0999401A50
:100EB0000C99401A019002A83821405C400701D5E6
:100EC000FFF733FA2020694608700198002801DCFA
:100ED000FFF72BFA019C329DFFF71AFA0020C0435E
:100EE00035B0F0BDF2B586B0040025696F2901D197
:100EF000082707E0084620210143782901D00A2766
:100F000000E010273C2603CC083C04AA03C26A4632
:100F1000127E642A03D06A46127E692A09D100290A
:100F200007DA04A803C800220023121A8B4104A880
:100F30000CC004A803C800290DD100280BD1206BD8
:100F4000002808D1082F3DD13820205C000739D572
:100F50003B26302035E00294009504A830C8761E68
:100F60000196200029003A00FB1700F015FC3032F2
:100F7000D0B23A280DDA00988255200029003A00B4
:100F8000FB1700F009FC04000D0007D1002C05D16F
:100F90000AE06846007E8218AF32ECE70298C0682B
:100FA000009989198842DAD3029C009D082F09D143
:100FB0003820205C000705D5A85D302802D0761EB9
:100FC0003020A8553C20801BA061A919E160216B4D
:100FD000884206DA081A2062208F1C4901402187C6
:100FE00010E000290ED53821615C14220A40102A35
:100FF00008D1616B6269891A226A891A081A002865
:1010000000DD206207B0F0BDF8B50026104F0400E7
:101010000D00009214E0C00707D532003B0020000D
:10102000290000F0F1FA04000D0000984010009033
:101030003000390032003B0000F0E6FA06000F00F5
:1010400000980028E7D120002900F4BDEFFF000040
:101050000000244010B503000C001100A068984760
:10106000A060002804D0E06A401CE062002010BDAF
:101070000020C04310BDF8B50024002B11D007009C
:101080000E0014001D002178B068B847B060002839
:1010900009D0F06A401CF0620020641C6D1EF2D181
:1010A00004002000F2BD0020C043F9E7C9B2027875
:1010B0008A4203D0401C002AF9D10020704730B585
:1010C00001684118446862088A188368E40704D5F7
:1010D0004C461B1901E0641C09D1914203D00C78E5
:1010E00064B2491C01E00C3030BD0D78491C1D7004
:1010F0005B1C002CEFD4641EF7D5EEE780B500280A
:1011000001D100BF07A006490B68002B03D02222A3
:101110000021984701E000F07DFB222002BD000085
:1011200080050020636F6E73747261696E7420684D
:10113000616E646C65723A20626164206D657373E0
:1011400061676500431C0178401C0942FBD1C01A4D
:1011500070472E00C9B2521E05D30378401C8B4243
:10116000F9D1401E704700207047FEE770B4103A76
:1011700003D378C9103A78C0FBD2530701D318C9FA
:1011800018C001D508C908C0D20704D30B88038052
:10119000891C801C002A01D50B78037070BC704735
:1011A0008B0701D18307E1D0124205D00B78491C8F
:1011B0000370401C521EF9D1704710B5144600F060
:1011C00002F8226010BD4A0053155B1C08D0520D76
:1011D00006D003231B02FE3AD21A1305C91A704720
:1011E0000022704730B4012464054D00EC420BD856
:1011F0005D00EC4208D80C001C4364000443144317
:1012000004D2994200D1904230BC7047FCD08B424E
:10121000FAD18242F8E730B4012464054D00EC4273
:101220000BD85D00EC4208D80C001C43640004435A
:10123000144304D28B4200D1824230BC7047FCD0B0
:101240009942FAD19042F8E7124217D40023DB43C7
:101250005B0D9C464B005B0D06D0634504D09B188C
:10126000634502D21205891870476246090D114381
:101270000905002000B500BF00BF00BD52424B0071
:101280005B0DF1D05B1C5B05EED25B0D934102D987
:101290001205891A70470BD10B031B13C90FC9071D
:1012A000821C002043411343E4D912051143E1E7B6
:1012B000C90FC9070020DDE7F4464A1805D200F03F
:1012C0000FF801D580174008604700F009F80121A8
:1012D000C907884200D90800404260474A1812D224
:1012E000400DC90208430121C9070843520D40219E
:1012F0000901521A521C06D452421F3201D4D04066
:101300007047C017704700207047FEE70100422277
:101310001201D21E004207D002D4521E0018FCD582
:10132000C10A400512058918704700000100EED57A
:101330004042F446FFF7EBFF0122D207114360471A
:101340008B4200D1824205D98446100062468C4609
:1013500019006346DF184C18640D7F0D3AD0661CE7
:10136000760537D0E61B352E34DCDB022B43DB0A57
:101370000C0DC9022943C912202E0DDB1700203E97
:1013800006D01F00F741F3405F400026012A774155
:10139000C01871410DD217E01700F741F2405740D5
:1013A000F3415A40B340F3405A4000268018594157
:1013B0000AD3A21C52050FD0C207012F7241170099
:1013C0004008CB0718434908641C24054208AF4174
:1013D00070416141F0BC7047641C21050020F9E7B1
:1013E0006B4010E06B40ABE7F742F3D1E943F1E724
:1013F0002442EFD100200021ECE7F0B40125ED07F5
:101400000F005F40EED40C00871A9C4105D2C01B30
:10141000A141D219634169406B40AE0ADF184C18F4
:10142000F442E1D2640D7F0DE2D0E61B362ED1DC12
:10143000DB022B43DB0AA4460C0DC9022943C90A6F
:10144000012E28DC04D1D6075208DF073A435B0897
:10145000EF0A76429041994114D039423BD1B619F6
:1014600040414941761C394204D1761C001849415B
:101470003942FAD0B9436746B74208D9A41B2405BC
:101480002143A7E70042EAD13642E8D1A2E7E40AC5
:10149000E10700209EE7202E0BDD203E1F00F340D9
:1014A000F7415F40012A002257417E429841914115
:1014B0000BE01700F741F2405740F3415A40B34068
:1014C000F3405A407E42904199410A0303D2641E80
:1014D000B619404149410027641E24054208AE4127
:1014E00078416141F0BC7047CA0F00D049420310F7
:1014F0005A400DD004B500D3404200F009F8009ADC
:10150000D20701D34942124200D5404204BD000037
:10151000094214D088420FD30122030C01D10004E8
:101520001204002300185B418B4200D35B1A524126
:10153000F8D319001000704701000020704708B56B
:1015400000F06EF908BDF0B40E005E400125ED0715
:101550002E40B446AE0ADF184C18F4423BD2F74294
:1015600041D2640D43D07F0D38D0E41BC902DB02A9
:1015700029432B43CF0ADB0A0600B61A9F4104D247
:10158000641EB6197F41B6185F416812800D241899
:101590000018844222DCE80C0021B6197F41B61AFB
:1015A0009F4102D2B6185F413F1C40414941F4D3EC
:1015B000241C21DD2405B6197F41B61A9F4105D3AD
:1015C0003743C60737430026012F70416141664605
:1015D0003143F0BC7047FCD1F74205D20020C14333
:1015E00049054908F3E704D00020C143F1E77F0D26
:1015F000FAD000206146ECE72442FAD1401C614158
:101600000F03F6D30020E2E7F0B50E005E4001259F
:10161000ED072E40B446AE0ADF184C18F44208D24B
:10162000F7420ED2640D01D07F0D12D10020614629
:10163000F0BD05D1F74201D87F0D05D10020C1438F
:10164000F0BDFBD1640DF9D00020C1434905490824
:101650008FE0E419C902DB0229432B43DB0A460D64
:10166000C00231438E4630B487B295B27D432E0C12
:10167000ADB2140C7C43A419260C240425439CB25F
:101680007C43A419190C7943270CC919A4B20F047F
:101690003C43090C000C97B247432E0CBE1935434E
:1016A000ADB2170C4743360CBF19A6B2BF193E04A2
:1016B0003543240C3E0C36199FB24743BF19BCB2C8
:1016C0003E0C89191F0C47437F183E043443390CE4
:1016D000704680B297B247432E0CBE193543ADB267
:1016E000170C4743360CBF19A6B2BF193E04354349
:1016F000240C3E0C36199FB24743BF19BCB23E0CB6
:1017000089191F0C47437F183E043443390C774630
:101710003F0C90B278432E0C80190604ADB22E43D4
:10172000050CA0B22D18120C7A435019020C80B28D
:10173000240CA4189AB27A43121914042043120CF0
:1017400089181B0C7B43C91830BCEF0A394203D1FE
:10175000B61940414941641E6F12BF0DE41B0BDBFB
:10176000FF19BC4211DA240500274208AE41784136
:10177000614166463143F0BD641C05D1401C6141A6
:10178000CF0201D34908F4E750E75DE7014870470D
:10179000000000002C01002012422DD0994231D9C6
:1017A00070B500251B4209D00C00002112E0110089
:1017B000FFF7AEFE0A000021002370BD0942F6D0FB
:1017C0000024012649186441944200D3A41A7641AA
:1017D000F8D33100012601E0764109D200186441B6
:1017E0006D41A41A9D41F7D2A4185D41B619F5D3F5
:1017F000300022002B0070BD1B42CFD108B500F095
:1018000011F808BD01D19042CAD202000B0000219C
:101810000020704780B5012000F006F801BDFEE70A
:101820007047FEE77047FEE780B500BF00BF024A81
:1018300011001820ABBEFBE72600020010B5C20065
:1018400018231340FF249C40E2438907090E994066
:10185000030004D4B2489B089B00C01806E0B14BBB
:101860000007000F083880088000181803681A4025
:101870001143016010BDAC490870052801D1012059
:101880004873704720212022D243C14B012802D047
:10189000022807D07047586802405A601868014310
:1018A00019607047186802401A605868014359600F
:1018B000704780B500209C4908708860087302203A
:1018C000FFF7E0FF0120C043B8490A6802400A6000
:1018D000CA681040C86001BD9348807B7047924839
:1018E000C07B704790480021C18170478E480178C5
:1018F000002901D1012101E0AD490968018170474A
:10190000F8B50120C043A94909680140A74A116000
:101910001146C96808401146C860FFF7E7FF824CCE
:101920002089002800D1C1E00020607301252078C3
:10193000052857D801A1095C49008F4402091C36CB
:101940005472002020810120FFF79CFF012047E016
:101950000220FFF797FFE17A2089220028324B000E
:10196000D052491CE172618A884238D2218A884269
:1019700035D3022034E00120FFF784FFE17A20898B
:10198000220028324B00D052491CE172E18A884281
:1019900002D2A18A884206D2618B88421FD2218B53
:1019A00088421CD3E57303201AE00220FFF76AFF88
:1019B000E17A2089220028324B00D052491CE17282
:1019C000E18B88420BD2A18B884208D3A07A2028D1
:1019D00004DAE07B002801D1042001E02573052012
:1019E000FFF749FF5EE00120FFF74CFFE17A208915
:1019F000220028324B00D052491CE172618C88428F
:101A000002D2218C884205D2E18C8842E7D2A18C97
:101A10008842E4D30320FFF72EFFA07A401CA07277
:101A200040E0207B01283BD1E07B002837D1032018
:101A30000021220028324300D25A01238B406668DD
:101A4000678CBA4205D2278CBA4202D39E436660A5
:101A500007E0E78CBA4204D2A78CBA4201D33343E1
:101A60006360801CC0B2491C2029E2DBA079694672
:101A70004870E079C1436846017020796946C870B2
:101A80006079C14368468170407869460978884228
:101A900006D16846C07869468978884200D1A57326
:101AA000FFF707FF607B002800D03DE700203F499B
:101AB000486200F06FF8F1BD1B48807970471A4802
:101AC0000079704710B586B01422002101A800F0FB
:101AD0007DF88020800237490A6802430A6009685D
:101AE00008400090009800211520FFF7A7FE8020F5
:101AF00080033149086030206946888000200290C8
:101B00002E49039104900590284C01A9200000F073
:101B100067F8206880218843206006B010BD00006F
:101B200000E400E01CED00E000000020E0B5082229
:101B30000021684600F04AF88020800220490A68A7
:101B400002430A6009680840029002981D48016833
:101B5000F022914301609020C0051B49C2680A40F1
:101B6000C260026811400160202000906846012197
:101B70000171002141710221817100F0A5F800215D
:101B80000720FFF75BFE80200B49086007BD0000BF
:101B90000804014005480121C94301610121C268CF
:101BA0000A43C2600268114301607047004401406B
:101BB000244401401810024000E100E030750000AC
:101BC000141002400C000140FFF3FFFF10B50400A9
:101BD000080011000200200000F0FAF8200010BDFB
:101BE000F8B504000D00314EB44210D030488442A4
:101BF0000DD0304884420AD02F48844207D02F4865
:101C0000844204D0902149002D4800F0FBF9686817
:101C10002B4F00280CD010280AD0402808D02028AC
:101C200006D0602804D0FF212231380000F0EAF904
:101C3000E868002809D0B10D884206D049008842E2
:101C400003D0DE39380000F0DDF923681B481A495B
:101C5000174AB44201D0944206D17027BB431F00FB
:101C60006B683B43B44208D0944206D0114A944278
:101C700003D08C4201D0844203D1124A1A40EB684F
:101C800013432360AA68E2622A88A262B44203D0A6
:101C90008C4201D0844201D128692063606901210E
:101CA000014361610020F2BD00000000002C0140F2
:101CB0000004004000200040004401400048014072
:101CC0009C2A0008FFFCFFFFF8B5040000263E4FE9
:101CD00020683E49014003D07521380000F092F998
:101CE0002079002805D0012803D07621380000F0A3
:101CF00089F96079002807D0012805D0022803D08F
:101D00007721380000F07EF92E4D207900284ED042
:101D1000A079002809D0012807D0022805D003287F
:101D200003D07C21380000F06DF92168002946D0ED
:101D30006279002A03D0022A0DD008D313E06A6822
:101D40008A436A60296822680A432A600CE02A688C
:101D50008A432A6002E02A68114329606968226880
:101D60000A436A6000E00126A179002927D00129F1
:101D700004D01AD303290FD009D316E0E8682168EC
:101D80008843E860A86821680143A96017E0A86853
:101D900021688843A86003E0A86821680143A9601E
:101DA000E86821680143E96009E0012607E0286846
:101DB000216888432860686821688843686030002B
:101DC000F2BD00000004014094290008000071FFEA
:101DD0001206130A1A43130C1A4300BF094205D016
:101DE000830705D00270401C491EF9D170470000DE
:101DF0001300103906D330B41400150010393CC05C
:101E0000FCD230BC490700D30CC000D504C0890007
:101E100002D30280801C002900D502707047FEE7C3
:101E200010B5C20018231340FF249C40E2438907E9
:101E3000090E9940030004D467489B089B00C01812
:101E400006E0664B0007000F08388008800018186D
:101E500003681A401143016010BD000010B5002155
:101E60000B22521ED2B200BF70A354001B191C7863
:101E7000844202D0002AF4D100E05978080010BD55
:101E8000F8B5012056490A6802430A600A68104002
:101E900000900098802040054A6802434A604968E3
:101EA0000840009000980024E44303212000FFF73D
:101EB000B7FF00F049F84B4D4B4868600321200004
:101EC000FFF7AEFF0020A8600720286000F0C5F8EB
:101ED00000F016F9FFF72AFEFFF7F4FD00F0EEF927
:101EE00000F0C4F941A700BF4EA401E03D000BE0A3
:101EF000FFF7F2FC002822D0FFF7DEFD0600FFF717
:101F0000EEFC0028F2D02500FFF7D9FD33002A00AF
:101F1000010000BF3CA000F05CF9FFF7D0FD0028F5
:101F20000BD1FFF7C9FDFFF799FF0500FFF7D7FCBD
:101F300002002900072000F0E4F9FFF7D3FC00F0CD
:101F4000FBF900F071F9D3E770B529480168012267
:101F500091430160012102680A40FCD1254C2068B0
:101F600001432160022021680140FCD02168F82251
:101F7000914380220A43226061681F4A0A40A021DF
:101F8000890311436160E16A0F229143E162216894
:101F9000C2050A43226021688901FCD56168F022EC
:101FA000914361606168154A0A4062600325ED4310
:101FB000616829400843606060680C21014008297D
:101FC000FAD10F4E300000F059FA300000F063FAF9
:101FD000206B0540256370BD00E400E01CED00E0CF
:101FE0001810024010E000E0FF7C0000000000003C
:101FF0000020024000100240FFFFC2FFFFF8FFFF79
:10200000006CDC02704700004164647265737320E9
:102010002564202573436F6D6D616E642025640D0A
:102020000A00000052657065617420004515464342
:102030004746155607520C07080318061C025E0493
:102040005A00000081B02C490A6802430A600968FE
:1020500008400090009801B07047F8B586B018228B
:1020600000216846FFF7B2FD8020C003FFF7EAFFBA
:1020700080208002FFF7E6FF8020C002FFF7E2FF2A
:1020800001260096032401940025049569461B4807
:1020900000F008FA02270097019404956946174852
:1020A00000F000FA0096019404959026F605694622
:1020B000300000F0F7F9009701940495694630006C
:1020C00000F0F0F908200090019404956946300072
:1020D00000F0E8F910200090019404956946300062
:1020E00000F0E0F94020009001940495694630002A
:1020F00000F0D8F907B0F0BD1410024000140048F9
:10210000F8B58EB01C22002107A8FFF75FFD18224A
:1021100000216846FFF75AFD4C488021C9014268FA
:102120000A43426042681140069106998021890263
:1021300002680A4302600068014006910698802008
:102140008000009002270197032602960024039442
:1021500004940125059569469020C00500F0A2F978
:10216000A80200900197029603940494059569468D
:102170009020C00500F096F9E120400207900894F5
:1021800009940A940C200B900C940D94304C07A9E0
:10219000200000F049FAEFF31080012181F310884C
:1021A000A1682C4A0A40A26080F3108860682A491E
:1021B00001406160A06808218843A0602068054351
:1021C00025602649600D0200081800F0EDFA0FB0F6
:1021D000F0BD0EB4F0B5070005AE8025AD003300AC
:1021E0003A000021002000F011FB80B2A8420BD27F
:1021F0001B4C33003A002900200000F007FB82B29C
:102200002100184800F0DFFA0498F0BC04B0004741
:10221000154A06E013681B06FCD503789381401C21
:10222000491E0B06F6D1704738B50E4C200000F061
:10223000DFFA050009D0200000F0E4FAE9B2FFF768
:10224000E7FF2900200000F0CFFA31BD1410024052
:1022500000380140FFFBFFFFFFF7FFFF6401002094
:1022600070030020640300201C38014080B586B054
:102270001422002101A8FFF7A9FC80204000744926
:102280000A6802430A600968084000900098714893
:1022900001680902090A0160802000036E49086094
:1022A000302069468880002002906C490391049098
:1022B00001A96B48FFF794FC07B000BD30B587B0AB
:1022C0001822002101A8FFF781FC802080026549C7
:1022D0000A6802430A6009680840009000980424D4
:1022E00001940120029003210391002104910590A3
:1022F0009025ED0501A9280000F0D4F8AC6107B0E5
:1023000030BD10B5584B01241C72597118719A7167
:1023100010BD0121C943524A13680B401360D062BB
:102320000020506211610120116801431160D168E1
:102330000843D06070470000F8B500244A4D687A21
:10234000002810D1287A002870D0012068722C72E1
:102350006979A97029796970A979E970AC80AC7143
:102360002870A87202E0A87A00285FD02A78AC72A0
:102370008C208000354B04261100052955D801A773
:102380007F5CBF449604101E38841E613748FFF7F7
:10239000C0FF022249E01E603548E978002930D0AC
:1023A00040082EE01E61FFF7B4FFE879202802DA2A
:1023B000E878002801D0052237E0042235E01E60CD
:1023C000EA791100072902DC6B78D3400CE0102970
:1023D00005DA6978CB431100F8310B4104E0AB78A2
:1023E000182903DAF031CB40D90703E0DC43E831A8
:1023F0000C41E107C90F521CEA71002901D0D2201B
:10240000C000FFF786FF03220FE06C806C70EC7158
:102410001E601848FFF77DFF002206E06C721E6008
:10242000154801680123994301602A70F1BD0C48E9
:10243000026901210A4007D00122D24302610368E8
:102440001A40026008488172704700001800004876
:102450001C10024010E400E000E100E0409C00009D
:1024600000200040141002407005002028230000C6
:1024700094110000204E00000C20004010B5074CC5
:10248000FA218900FFF744F8401E60600020A06038
:102490000520206010BD02490860704710E000E090
:1024A00028010020FEB507000E009020C0058742DD
:1024B0000FD0584887420CD05748874209D0574818
:1024C000874206D05648874203D0B2215548FFF7CD
:1024D00099FD3068002803D080214902884203D347
:1024E000B3215048FFF78EFD7068002809D00128FD
:1024F00007D0022805D0032803D0B4214948FFF7AC
:1025000081FD3069002807D0012805D0022803D0BA
:10251000B5214448FFF776FD002072E0220A110041
:102520005143514351437A6A0B015B1A9A43414329
:10253000114379625CE001248C4004405FD02500A7
:10254000654368004019C14301917068012801D0BA
:10255000022821D1B068002807D0012805D003281F
:1025600003D0C6212F48FFF74DFDB86801990140FF
:10257000B06868430843B860F068002805D00128B7
:1025800003D0CC212748FFF73DFD306879688143AF
:10259000F268504308437860F86801990140306957
:1025A00068430843F8607068022821D170690028E8
:1025B00011D001280FD002280DD003280BD00428F9
:1025C00009D0052807D0062805D0072803D0D82130
:1025D0001448FFF717FD7069FF2C9FD8290061434D
:1025E00061433A6A0B015B1A9A43414311433962D2
:1025F000386801990140706845430D433D6000987B
:10260000401C0090306800990200CA4093D100201D
:10261000FEBD00000004004800080048000C00480F
:1026200000140048EC290008F8B504000D0001274B
:1026300069460F70554E5448844203D0FD21300046
:10264000FFF7E0FC28685249884203D3FE2130009E
:10265000FFF7D8FC6868002806D03903884203D009
:10266000FF213000FFF7CEFCA868002806D07903D0
:10267000884203D049093000FFF7C4FCE86800280D
:102680000BD0B902884208D0C021C900884204D0CA
:10269000FF21891C3000FFF7B5FC286900280AD00B
:1026A000042808D0082806D00C2804D0812149002D
:1026B0003000FFF7A7FC686900280ED03902884275
:1026C0000BD04900884208D0C0218900884204D03C
:1026D000FF21091D3000FFF795FCA869002807D0ED
:1026E000F903884204D0822149003000FFF78AFCB8
:1026F0002068074045D120682649014068680843A2
:10270000E968014328690843A969014321606068B9
:1027100021490140A86808436060A0681F49014042
:1027200068690843A060184884422AD1002000F05C
:102730008DF8002825D02968002922D000226B4678
:102740001A704A08164CAB6980252D02AB420BD19A
:1027500040008018FEF7DCFE80B2124901400007FD
:10276000400F0143216004E08018FEF7D1FE80B2E3
:1027700020602068102804D2FF2180313000FFF74C
:1027800041FC68460078F2BD00380140F42A000898
:10279000818D5B00F369FFFFFFCFFFFFFFFCFFFFB1
:1027A0000C380140F0FF0000042A04DB130002D0C3
:1027B000531E1A4200D0FEE701608280C3800021D0
:1027C00001814181704770B5002309E00C5D056807
:1027D0000689AC550489641CC588254005815B1CAD
:1027E0009CB29442F2D370BD42895118418105E0F8
:1027F00001894289891AC08808407047C2880A4006
:102800004281704701684089081870471CB584B040
:1028100000240394002902D10194029402E0019063
:10282000491E0291009405AB01A90748784418306D
:10283000FDF73EFC0199002900D00C70002800D45F
:10284000039806B010BD00BF3104000010B500248D
:10285000002804D0FD212E48FFF7D4FB20E02B48B0
:10286000026B02219207920F012A04D011D3032A8E
:1028700004D008D30DE000F015F810E00068014026
:102880000ED0244C0CE0006A014009D080242402C0
:1028900006E000F007F800F011F800F017F8040067
:1028A000200010BD80B51C4800680C21014008299B
:1028B00002D100F013F802BD164802BD164909689E
:1028C000164A0906090F515CC84070471249096849
:1028D000134A4905490F515CC840704730B50E4A4C
:1028E0001068802149020840884201D1094800E06F
:1028F0000C48916A14680F252940491CFEF708FE10
:10290000A10C0D40AD1C684330BD0000001002401A
:10291000442A000800127A0004100240982C000893
:10292000B82C000800093D00686A6C747A4C0000FD
:102930007072696E74665F733A20256E20646973E5
:10294000616C6C6F776564007072696E74663A20B2
:1029500062616420256E20617267756D656E74001A
:102960007072696E74665F733A20626164202573C9
:1029700020617267756D656E7400000000000000D4
:102980006E616E004E414E00696E6600494E460013
:102990003000FEE7433A5C55736572735C612E61EB
:1029A0006C656B736565765C446F63756D656E749D
:1029B000735C4E45435C447269766572735C535434
:1029C0004D3332463078785F48414C5F44726976C7
:1029D00065725C5372635C73746D33326630787801
:1029E0005F6C6C5F657874692E630000433A5C55D8
:1029F000736572735C612E616C656B736565765C83
:102A0000446F63756D656E74735C4E45435C4472D0
:102A100069766572735C53544D3332463078785F13
:102A200048414C5F4472697665725C5372635C73B3
:102A3000746D3332663078785F6C6C5F6770696F85
:102A40002E630000433A5C55736572735C612E61BE
:102A50006C656B736565765C446F63756D656E74EC
:102A6000735C4E45435C447269766572735C535483
:102A70004D3332463078785F48414C5F4472697616
:102A800065725C5372635C73746D33326630787850
:102A90005F6C6C5F7263632E63000000433A5C55A9
:102AA000736572735C612E616C656B736565765CD2
:102AB000446F63756D656E74735C4E45435C447220
:102AC00069766572735C53544D3332463078785F63
:102AD00048414C5F4472697665725C5372635C7303
:102AE000746D3332663078785F6C6C5F74696D2E0C
:102AF00063000000433A5C55736572735C612E613C
:102B00006C656B736565765C446F63756D656E743B
:102B1000735C4E45435C447269766572735C5354D2
:102B20004D3332463078785F48414C5F4472697665
:102B300065725C5372635C73746D3332663078789F
:102B40005F6C6C5F75736172742E6300FEE7FEE765
:102B5000704770470F480168491C016070470E4874
:102B6000026820210A4000D1704780B50160FEF75D
:102B7000C7FE01BD09480169C90700D4704780B587
:102B80000121C9430161026811400160FEF791FE15
:102B900001BD00007C0500201404014000440140F8
:102BA00070B40123002413E00168001D194202D013
:102BB0004D466918491E0C60091D121F042AFAD2DD
:102BC0000D00960701D50C80AD1C1A4000D02C706A
:102BD0000268001D002AE7D170BC704710B5074994
:102BE00079441831064C7C44163404E0081D0A6808
:102BF000891888470100A142F8D110BD08000000E3
:102C0000240000009DFFFFFF20040000640100205D
:102C100000000000ABE4FFFFB9000000A8000000C6
:102C20000000002000F00DF8002801D0FFF7D6FFCB
:102C300000BF00BF002000BF00BFFFF721F900F078
:102C400002F80120704780B500F002F801BDFEE7F0
:102C500007463846FEF7E8FDFBE7FEE70548014674
:102C600003B4684680F3098800BF00BF00BF00BFFF
:102C7000FFF7D8FFA5EDF5FE8268521C826042681E
:102C8000002A06D00268531C036011704168491E77
:102C90004160704770470000000000000000000025
:102CA000010203040607080901488047014800475C
:102CB000952C00085D2C00080000000001020304B0
:102CC000FEE7FEE7FEE7FEE7FEE7FEE7FEE7FEE7DC
:102CD00000F0001708201C256810F8113408C409FA
:102CE000C2015802C2015802B004D007810081001D
:102CF000FD001E127A00D02C0008D02C0008D02C29
:102D00000008D02C0008D02C0008D02C0008D02CB3
:102D10000008F8FF0B52110008D02C0008D02C003E
:052D200008FAFFFE00AF
:0400000508002C5D66
:00000001FF
