:020000040800F2
:1000000008080020ED1C00089B1100089F11000843
:1000100000000000000000000000000000000000E0
:10002000000000000000000000000000A311000814
:100030000000000000000000A5110008A711000842
:10004000330B00080000000067180008B71800080C
:100050004F1A00089F1C0008AB1C0008B9110008CB
:1000600000000000251D0008271D0008291D0008AC
:100070002B1D00082D1D00082F1D0008000000008A
:10008000311D00080000000000000000331D0008C2
:1000900000000000D7110008351D0008371D0008BA
:1000A00000000000391D0008000000003B1D000892
:1000B00081627047C1627047016370474163704756
:1000C00081637047C16370470164704741690122D1
:1000D0000A4342617047F8B504000E00384FBC4235
:1000E00010D0384884420DD0374884420AD037486F
:1000F000844207D03648844204D0902149003548D4
:1001000000F016FD7068002810D0706810280DD01F
:10011000706840280AD07068202807D0706860286E
:1001200004D0FF2122312B4800F002FDF0680028A6
:100130000ED0F06880214900884209D0F068802103
:100140008900884204D091214900224800F0F0FC47
:100150002568BC4202D01B48844204D170208543EC
:10016000280075680543BC420BD01648844208D06D
:100170001548844205D01548844202D01448844270
:1001800003D115482840F56805432560B168200073
:10019000FFF790FF31882000FFF78AFFBC4205D0AF
:1001A0000A48844202D00A48844203D131692000BF
:1001B000FFF782FF2000FFF789FF0020F2BD00005B
:1001C000002C014000040040002000400044014099
:1001D00000480140581B0008FFFCFFFFF8B5040071
:1001E0000E00170001253000401E08D00F380CD03B
:1001F000F03810D0F0210901401A12D017E0390070
:10020000200000F017F8050011E03900200000F090
:10021000CBF805000BE03900200000F085F905005F
:1002200005E03900200000F03FFA0500FFE7280054
:10023000C0B2F2BDF8B504000D00B14884420FD041
:10024000B04884420CD05348844209D0524884427A
:1002500006D05248844203D05149AB4800F068FCB4
:100260002868002818D02868102815D02868202869
:1002700012D0286830280FD0286840280CD0286871
:10028000502809D02868602806D02868702803D034
:1002900044499D4800F04CFC6868002807D0686815
:1002A000012804D0B6218900974800F041FC286954
:1002B000002806D02869022803D09449924800F00B
:1002C00037FC206A012188432062206A6768A1699F
:1002D00003229143702291432A680A43009202212B
:1002E000884329690143012081436E680E43844895
:1002F000844205D02848844202D0284884423FD115
:10030000A869002808D0A86980214900884203D044
:100310007F497D4800F00CFCA868002806D0A8683A
:10032000012803D07B49784800F002FC6869002866
:1003300006D06869022803D07749734800F0F8FBBB
:10034000E869002809D0E86980214900884204D082
:10035000BE2189006C4800F0EBFB082086436869E9
:100360008000304304218843A9688E000643B349C6
:100370003940A869084369490140E86947000F43CB
:1003800067600098A061E9682000FFF797FE266289
:100390000020F2BD00200040004401400048014020
:1003A000D6020000D7020000F8B506000C00544841
:1003B000864206D05348864203D05949524800F03D
:1003C000B7FB2068002818D02068102815D02068B6
:1003D000202812D0206830280FD0206840280CD068
:1003E0002068502809D02068602806D0206870282E
:1003F00003D04C49444800F09BFB6068002806D0BD
:100400006068012803D09F493F4800F091FB2069B4
:10041000002807D02069022804D0CA2189003A4860
:1004200000F086FB1020C043316A01403162316A1E
:100430007768B269944B1340944A1A4023681B02B0
:100440001343009320229143226912010A43104072
:1004500061680D0105432A48864205D08C488642D2
:1004600002D08C48864240D1A069002809D0A069FA
:1004700080214900884204D0D1218900224800F01F
:1004800057FBA068002806D0A068012803D0824945
:100490001D4800F04DFB6069002806D06069022805
:1004A00003D07E49184800F043FBE069002808D0DB
:1004B000E06980214900884203D07949124800F060
:1004C00037FB8020854360698001284340218843B1
:1004D000A1688D01054373493940A0698000084334
:1004E000AF490140E069C7000F4377600098B061F1
:1004F000E1683000FFF7E4FD35620020F2BD00BF87
:10050000002C014000040040581B0008D9020000E4
:10051000F5020000F6020000F7020000FFFDFFFFF9
:100520002503000026030000F8B506000C009D48D6
:10053000864207D09C48864204D0DD2189009B4832
:1005400000F0F6FA2068002818D02068102815D08E
:100550002068202812D0206830280FD0206840283A
:100560000CD02068502809D02068602806D0206868
:10057000702803D08E498D4800F0DAFA60680028B0
:1005800006D06068012803D08A49884800F0D0FA74
:100590002069002806D02069022803D086498348B4
:1005A00000F0C6FA2548316A01403162316A776845
:1005B000F26903239A4370239A43236813430093F9
:1005C0007E4A0A40216909021143084061680D0210
:1005D00005437448864205D02D48864202D02D48F6
:1005E000864244D1A069002808D0A0698021490032
:1005F000884203D072496D4800F09AFAA06800283A
:1006000007D0A068012804D0E5218900674800F0E0
:100610008FFA6069002806D06069022803D0694912
:10062000624800F085FAE06900280CD0E06980217A
:100630004900884207D0644902E000BFFFFEFFFF87
:100640005A4800F075FA564929406069800208430B
:1006500014490140A06885020D435C493940A069F6
:10066000000108435B490140E06947010F4377609F
:100670000098F061E1683000FFF724FD356200204A
:10068000F2BD000027030000FFFCFFFFFF8FFFFF0C
:1006900000440140004801404503000046030000BB
:1006A00047030000FFFBFFFFFEB504000D003D4FB8
:1006B000BC4206D03C48844203D045493B4800F048
:1006C00037FA2868002819D02868102816D028681A
:1006D000202813D02868302810D0286840280DD052
:1006E000286850280AD02868602807D02868702811
:1006F00004D0F12189002D4800F01AFA686800281A
:1007000006D06868012803D03349284800F010FA61
:100710002869002806D02869022803D02F492348D9
:1007200000F006FA2949206A08402062226A6668B9
:10073000E0692B4B03402B4818402B681B020343F6
:100740000193244810402A6912030243114068684B
:10075000000308430090BC4205D02348844202D0E5
:100760002248844210D1A869002808D0A8698021B5
:100770004900884203D01E490C4800F0D9F91D48B1
:100780003040A9698E01064366600198E061E9681E
:100790002000FFF799FC009820620020FEBD0000B9
:1007A000FFF7FFFF002C014000040040581B000829
:1007B000750300007603000077030000FFFDFFFFD4
:1007C000930300009503000096030000FFEFFFFF76
:1007D000C3030000FFDFFFFFC5030000C6030000E6
:1007E000FFFCFFFFFF8FFFFF004401400048014076
:1007F000E2030000FFBFFFFFF0B5020052B2002A83
:100800001CD40322B44B040064B2A40804256C4336
:100810001C59FF251600064008277E43B540AC430F
:100820008D01EDB202400826724395402543020037
:1008300052B29208042462439D5022E00F24A74A3A
:10084000032305006DB22540083DAD08042675431D
:10085000060076B23440083CA408042674431659B6
:10086000FF27BC461C00044008277C436746A7407E
:10087000BE438C01E4B2034008277B439C403443D1
:100880005451F0BD10B50400601E80214904884217
:1008900001D301200EE0601E914908600321002071
:1008A000C043FFF7A9FF00208E49086007208E494A
:1008B0000860002010BD8D48016801220A430260D3
:1008C00070478A48016808008007C00F7047874951
:1008D0000A68F8239A43C30013430B6070478449A6
:1008E0000A6803239A4302430A60704780480168FC
:1008F0000C20084070477E490A68F0239A4302435F
:100900000A6070477A490A687A4B134003430B60C8
:10091000704710B478490A680323040EA3409A4331
:1009200003021B0A13430B6010BC70476F48016839
:10093000802252040A43026070476C480168080034
:100940008001C00F704710B4694A13686B4C1C409B
:1009500080235B02034023430B431360684A136800
:100960000F24A3430407240F1C43146010BC7047DA
:1009700081B064490A6802430A6009680140009135
:10098000009901B0704781B05F490A6802430A606C
:10099000096801400091009901B070475B490A68FD
:1009A00001239A4302430A607047584801680800CF
:1009B000C007C00F7047C16908000006C00F70472C
:1009C0000A00D2B2028570477CB5684650490CC90E
:1009D0000CC0083908380120FFF7D5FF80204005FA
:1009E000FFF7C6FF03210020C043FFF705FF00F01B
:1009F00021F8FA204001FFF745FF00F02CF900F044
:100A00009FFA00F059FB00F0E8FA424C00F0C2FBFC
:100A100005002E1900F0BEFB05003100280000F093
:100A20007FF80028F6D0281906000821684600F053
:100A300043F8EFE710B50020FFF7B0FFFFF7B5FF71
:100A40000028FBD1FFF737FFFFF73BFF0128FBD161
:100A50001020FFF73CFF802109030020FFF773FF00
:100A6000FFF764FFFFF769FF0128FBD18020FFF744
:100A700042FF0020FFF746FF0220FFF730FFFFF79D
:100A800035FF0828FBD1244C200000F0B6FB2000E5
:100A900000F0BBFB0020FFF73CFF10BD38B50500A0
:100AA0000C002800FFF787FF0028FAD02100C9B208
:100AB0002800FFF785FF31BD38B504000D00280080
:100AC000C0B2002806D021781448FFF7E7FF641C65
:100AD0006D1EF4E731BD000000E400E01CED00E015
:100AE00014E000E018E000E010E000E00010024038
:100AF00004100240FFF8FFFF30100240FFFFC2FF6A
:100B00002C1002401C10024018100240002002402D
:100B1000FC1C00088813000000127A000038014015
:100B200000B5884201D3012000E00020C0B200BD22
:100B30007047FEE700B5010049B2002905D4012144
:100B4000C206D20E9140894A116000BDF0B5020084
:100B500052B2002A1CD40322854B040064B2A408BC
:100B600004256C431C59FF251600064008277E43C8
:100B7000B540AC438D01EDB202400826724395406A
:100B80002543020052B29208042462439D5022E0A1
:100B90000F24784A032305006DB22540083DAD08B7
:100BA00004267543060076B23440083CA4080426A7
:100BB00074431659FF27BC461C00044008277C4399
:100BC0006746A740BE438C01E4B2034008277B433D
:100BD0009C4034435451F0BD81B067490A680243D8
:100BE0000A60096801400091009901B0704730B473
:100BF000624ACBB204246343D3580F240D002D0C5A
:100C0000AC40A3430C00240C0500A5401D43CBB20F
:100C100004246343D55030BC704730B403680C00E3
:100C20004C4303256C43A3430C004C4354431C43E7
:100C3000046030BC704730B4C3680C004C430325DB
:100C40006C43A3430C004C4354431C43C46030BC6E
:100C5000704781627047F8B588B00822002106A865
:100C600000F0DEFA18220021684600F0D9FA802050
:100C7000C003FFF7B1FF80208002FFF7ADFF8020A7
:100C8000C002FFF7A9FF9026F60580213000FFF78C
:100C9000E0FF01200090032501950024049469469B
:100CA000374800F024FB0227009701950494694619
:100CB000334800F01CFB0120009001950494694624
:100CC000300000F014FB0097019504946946300051
:100CD00000F00DFB0420009001950494694630005B
:100CE00000F005FB0820009001950494694630004F
:100CF00000F0FDFA10200090019504946946300040
:100D000000F0F5FA40200090019504946946300007
:100D100000F0EDFA802000900120019002940394ED
:100D200004946946300000F0E2FA16490020FFF70B
:100D30005EFF002220213000FFF77DFF00222021EE
:100D40003000FFF76AFF2020069006A801210171FC
:100D50004471857106A800F0A9FB00210720FFF768
:100D6000F5FE0720FFF7E6FE09B0F0BD00E100E068
:100D700000E400E01CED00E0141002400800014017
:100D8000001400480100040000B5010049B2002928
:100D900005D40121C206D20E9140A24A116000BDC5
:100DA000F0B5020052B2002A1CD403229E4B04006C
:100DB00064B2A40804256C431C59FF2516000640A4
:100DC00008277E43B540AC438D01EDB202400826B2
:100DD000724395402543020052B2920804246243B4
:100DE0009D5022E00F24914A032305006DB2254057
:100DF000083DAD0804267543060076B23440083C31
:100E0000A408042674431659FF27BC461C0004405E
:100E100008277C436746A740BE438C01E4B20340E9
:100E200008277B439C4034435451F0BD81B0804936
:100E30000A6802430A60096801400091009901B004
:100E4000704781B07B490A6802430A600968014023
:100E50000091009901B0704781B077490A68024358
:100E60000A60096801400091009901B0704702686A
:100E700008239A430A430260704701688022914325
:100E800001607047F0B5012901D1002218E0042962
:100E900001D1012214E0102901D1022210E04029E1
:100EA00001D103220CE080225200914201D10422A0
:100EB00006E08022D200914201D1052200E0062204
:100EC000030018335D4C1500EDB2645D1B191D68FD
:100ED00004245B4E1700FFB2F65DB440A5431D60CD
:100EE000F0BDF0B5012901D1002218E0042901D19B
:100EF000012214E0102901D1022210E0402901D181
:100F000003220CE080225200914201D1042206E02B
:100F10008022D200914201D1052200E00622030086
:100F20001833464C1500EDB2645D1B191D6808248A
:100F3000434E1700FFB2F65DB4402C431C60F0BD79
:100F400030B593B0142200210EA800F069F92022D8
:100F5000002106A800F064F918220021684600F07C
:100F60005FF980204000FFF76CFFB42069460887D6
:100F700000240F94334810901194334D0EA928008B
:100F8000FFF7A9F82800FFF778FF01212800FFF7F5
:100F9000A8FF602006900794089409940A9406AA72
:100FA00001212800FFF71AF901212800FFF76AFF45
:100FB00008212800FFF75BFF8020C002FFF736FF03
:100FC00002200090019002940394049405946946D1
:100FD0001E4800F08CF913B030BD18B585B014224E
:100FE0000021684600F01CF980208002FFF734FFE2
:100FF00000211520FFF7D4FE1520FFF7C5FEB42011
:1010000069460880002001901149029103900490E4
:10101000104C69462000FFF75EF82000FFF72DFF17
:1010200006B010BD00E100E000E400E01CED00E0CF
:10103000141002401C100240181002400C1D000841
:10104000141D0008FFFF00000020004000040048BD
:10105000102700000044014081B03D490A68024366
:101060000A60096801400091009901B0704781B0A1
:1010700038490A6802430A600968014000910099F2
:1010800001B07047016801220A430260704741685D
:10109000314A0A404260816808229143816070476A
:1010A000EFF31081012282F3108882682B4B1340EA
:1010B000836081F310887047F0B58DB01C22002149
:1010C00006A800F0ADF818220021684600F0A8F844
:1010D0008020C001FFF7CBFF80208002FFF7BCFF1C
:1010E00080208000009002270197032602960024AA
:1010F000039404940125059569469020C00500F0ED
:10110000F6F88020C00000900197029603940494A2
:10111000059569469020C00500F0E9F8E1204002FD
:1011200006900794089409940C200A900B940C9450
:101130000B4C06A9200000F080FA2000FFF7B0FF5A
:101140002000FFF7A4FF2000FFF79CFF0DB0F0BDCB
:101150001410024018100240FFF7FFFFFFFBFFFFD3
:101160000038014000B5124909680140814201D1AF
:10117000012000E00020C0B200BD0D4908607047AA
:1011800000B500690840884201D1012000E000203C
:10119000C0B200BD07480068704700B5FEE700B563
:1011A000FEE77047704703480168491C01607047BB
:1011B000140401400400002080B52020FFF7D2FF76
:1011C000002807D02020FFF7D8FF20219020C0055D
:1011D000FFF7D6FF01BD704730B504000D002000B9
:1011E000290000F0E9FA401E094908600020094979
:1011F000086005200849086030BD10B50400FA21D8
:1012000089002000FFF7E8FF10BD0449086070471F
:1012100014E000E018E000E010E000E00000002032
:1012200010B50400080011000200200000F01CFBB3
:10123000200010BD30B403680C004C4303256C4300
:10124000A3430C004C4354431C43046030BC704720
:1012500010B443688B430C0054431C43446010BCDF
:10126000704730B483680C004C4303256C43A343A0
:101270000C004C4354431C43846030BC704730B472
:10128000C3680C004C4303256C43A3430C004C4340
:1012900054431C43C46030BC704730B4036A0C0034
:1012A0004C434C434C430F256C43A3430C004C432D
:1012B0004C434C4354431C43046230BC704730B42D
:1012C000446A0B0A0D0A6B430D0A6B430D0A6B430C
:1012D0000F256B439C430B0A0D0A6B430D0A6B43AE
:1012E0000D0A6B4353432343436230BC7047F8B548
:1012F00006000C009020C00586420FD0524886425E
:101300000CD05248864209D05148864206D05148F6
:10131000864203D0B2215048FFF70AFC206800281B
:1013200004D0206880214902884203D3B3214A486F
:10133000FFF7FEFB606800280CD06068012809D028
:101340006068022806D06068032803D0B4214248B0
:10135000FFF7EEFB2069002809D02069012806D09C
:101360002069022803D0B5213B48FFF7E1FB0025A7
:101370002068E840002865D020680121A94001408C
:101380000F00002F5CD06068012802D0606802283E
:1013900020D1A068002809D0A068012806D0A06844
:1013A000032803D0C6212C48FFF7C2FBA2683900EE
:1013B0003000FFF756FFE068002806D0E0680128FB
:1013C00003D0CC212448FFF7B3FBE268216830004A
:1013D000FFF73EFF226939003000FFF750FF6068D9
:1013E000022828D16069002818D06069012815D02A
:1013F0006069022812D0606903280FD06069042850
:101400000CD06069052809D06069062806D060699B
:10141000072803D0D8211048FFF78AFBFF2F05D8F3
:10142000626939003000FFF738FF04E06269390073
:101430003000FFF744FF626839003000FFF7FAFE22
:101440006D1C95E70020F2BD00040048000800482C
:10145000000C004800140048A81A000855490A6802
:1014600002430A60704753490A6882430A60704722
:1014700051490A6802430A6070474F490A6882432B
:101480000A6070474D490A6802430A6070474B4939
:101490000A6882430A60704749490A6802430A6041
:1014A000704747490A6882430A60704738B50400AC
:1014B0000025206843490140002903D07521424896
:1014C000FFF736FB2079002806D02079012803D0C9
:1014D00076213D48FFF72CFB6079002809D0607920
:1014E000012806D06079022803D077213648FFF71B
:1014F0001FFB2079002853D0A07900280CD0A079B8
:10150000012809D0A079022806D0A079032803D0A9
:101510007C212D48FFF70CFB2068002846D060791D
:10152000002803D002280FD007D314E02068FFF76B
:10153000A4FF2068FFF792FF0FE02068FFF793FFFA
:101540002068FFF795FF08E02068FFF787FF206815
:10155000FFF78EFF01E001200500A079002825D0CB
:10156000A079012804D018D303280FD007D314E0A2
:101570002068FFF796FF2068FFF784FF16E02068D9
:10158000FFF785FF2068FFF787FF0FE02068FFF770
:1015900079FF2068FFF780FF08E00120050005E0E3
:1015A0002068FFF760FF2068FFF767FFEDB22800B3
:1015B00032BD000000040140040401400804014061
:1015C0000C040140000071FF501A00080168080077
:1015D000C007C00F70474268704B13400B43436015
:1015E000704782686E4B13400B4383607047FCB5B5
:1015F00004000D0016001F0080200002864214D156
:101600000220684379084018390000F0D5F880B20C
:101610000090009963480840009949084907490F1C
:10162000084301900198E06006E078082818390026
:1016300000F0C2F880B2E060F3BDFEB506000C0019
:1016400001206946087000250195574FBE4203D01E
:10165000FD215648FFF76CFA20685549884203D3AC
:10166000FE215248FFF764FA6068002808D06068DD
:1016700080214901884203D0FF214C48FFF758FAE6
:10168000A068002809D0A06880218901884204D080
:10169000802149004548FFF74BFAE06800280ED04A
:1016A000E0688021C900884209D0E068C021C900F3
:1016B000884204D0FF21891C3C48FFF739FA206991
:1016C00000280DD0206904280AD02069082807D0F6
:1016D00020690C2804D0812149003448FFF728FAFA
:1016E0006069002813D060698021490088420ED0CB
:1016F000606980218900884209D06069C021890021
:10170000884204D0FF21091D2848FFF711FAA0697B
:10171000002809D0A06980210902884204D08221D2
:1017200049002248FFF704FA3000FFF74FFF002876
:101730002FD130681F49014060680843E1680143C8
:1017400020690843A16901433160A1683000FFF7B7
:1017500042FF61693000FFF744FFBE4203D1002021
:1017600000F0DFF801900198002812D020680028CE
:101770000FD0684605702368A26901993000FFF711
:1017800036FFF068102804D2FF2180310748FFF7A8
:10179000CFF968460078FEBD00000000FFCFFFFFD4
:1017A000FFFCFFFFF0FF000000380140B01B000805
:1017B000818D5B00F369FFFF0022030A8B420BD28D
:1017C00003098B4219D243088B422ED2411A00D210
:1017D0000146524110467047FF2209023FD01206CF
:1017E0008B4205D3121209028B4201D31212090255
:1017F00003098B4219D300E0090AC3098B4201D3C4
:10180000CB01C01A524183098B4201D38B01C01A0C
:10181000524143098B4201D34B01C01A5241030983
:101820008B4201D30B01C01A5241C3088B4201D332
:10183000CB00C01A524183088B4201D38B00C01ADF
:10184000524143088B4201D34B00C01A5241884297
:1018500000D3401A5241CFD201461046704708B516
:1018600000F0F4F808BDFEE71206130A1A43130C41
:101870001A4300BF094205D0830705D00270401CFF
:10188000491EF9D1704700001300103906D330B457
:101890001400150010393CC0FCD230BC490700D3FD
:1018A0000CC000D504C0890002D30280801C00292E
:1018B00000D502707047FEE75A48016808008007AB
:1018C000C00F70475848016808008007C00F704774
:1018D000564801680C200840704754480168F020C1
:1018E0000840704751480168E020C0000840704738
:1018F0004F490968032282400A400006104370479E
:101900004A480068802149020840704747480168FA
:10191000F020800308407047464800680007000F29
:10192000704738B504000025002C03D0FD21424843
:10193000FFF7FEF8002C23D12000FFF7D9FF012884
:1019400004D016D3032805D00BD312E000F01AF808
:10195000050015E0FFF7B0FF002801D0374805006B
:101960000EE0FFF7AFFF002802D080200002050044
:1019700006E000F007F800F019F800F023F8050081
:10198000280032BD10B50024FFF7A2FF002804D0C4
:10199000042804D0082804D006E0284805E0274899
:1019A00003E000F019F800E0244810BD10B5040071
:1019B000FFF793FF224900090007000F085CC440AD
:1019C000200010BD10B50400FFF78CFF1D49000A70
:1019D000085CC440200010BD70B500242600FFF74D
:1019E0008FFF05002800002804D08021490288428A
:1019F00002D003E0144C02E0104C00E0124CFFF760
:101A00008BFF01002000491CFFF7D6FE0600FFF700
:101A10007DFF800C0107090F891C3000484370BD11
:101A2000000000000010024020100240041002409C
:101A3000301002402C100240001B000800127A00F7
:101A4000DC1C0008041D000800093D007047FEE78B
:101A5000433A5C55736572735C612E616C656B73A0
:101A60006565765C446F63756D656E74735C4E4539
:101A7000435C447269766572735C53544D333246ED
:101A80003078785F48414C5F4472697665725C5388
:101A900072635C73746D3332663078785F6C6C5F40
:101AA000657874692E630000433A5C557365727300
:101AB0005C612E616C656B736565765C446F637504
:101AC0006D656E74735C4E45435C447269766572F5
:101AD000735C53544D3332463078785F48414C5FE5
:101AE0004472697665725C5372635C73746D3332F1
:101AF000663078785F6C6C5F6770696F2E6300008A
:101B0000433A5C55736572735C612E616C656B73EF
:101B10006565765C446F63756D656E74735C4E4588
:101B2000435C447269766572735C53544D3332463C
:101B30003078785F48414C5F4472697665725C53D7
:101B400072635C73746D3332663078785F6C6C5F8F
:101B50007263632E63000000433A5C5573657273D1
:101B60005C612E616C656B736565765C446F637553
:101B70006D656E74735C4E45435C44726976657244
:101B8000735C53544D3332463078785F48414C5F34
:101B90004472697665725C5372635C73746D333240
:101BA000663078785F6C6C5F74696D2E630000003E
:101BB000433A5C55736572735C612E616C656B733F
:101BC0006565765C446F63756D656E74735C4E45D8
:101BD000435C447269766572735C53544D3332468C
:101BE0003078785F48414C5F4472697665725C5327
:101BF00072635C73746D3332663078785F6C6C5FDF
:101C000075736172742E630030B401220EE00368B4
:101C1000C31844680830144202D04D462C19641E83
:101C20001D6825601B1D241D091FF9D10168001DB9
:101C30000029ECD130BC704710B507497944183100
:101C4000064C7C44163404E0081D0A68891888474D
:101C50000100A142F8D110BD0800000018000000EA
:101C6000A9FFFFFF08000000B400000000000020F2
:101C70000000000000F00DF8002801D0FFF7DCFFA5
:101C800000BF00BF002000BF00BFFEF79DFE00F0B8
:101C900002F80120704780B500F002F801BDFEE7B0
:101CA0000746384600F002F8FBE7FEE780B500BFC4
:101CB00000BF024A11001820ABBEFBE7260002005D
:101CC0000548014603B4684680F3098800BF00BF99
:101CD00000BF00BFFFF7CEFFA5EDF5FE000000003E
:101CE00000000000010203040607080901488047BC
:101CF000014800473D1D0008C11C000848656C6C88
:101D00006F0A0D0000000000010203040000000043
:101D100004040400000008000000080000127A001B
:101D200000000000FEE7FEE7FEE7FEE7FEE7FEE755
:0E1D3000FEE7FEE7FEE7FEE7FEE7FEE7704790
:0400000508001CC112
:00000001FF
