:020000040800F2
:10000000E80900202D300008812100088521000822
:1000100000000000000000000000000000000000E0
:10002000000000000000000000000000892100081E
:1000300000000000000000008B2100088D21000856
:1000400017110008000000002F110008CF1200084F
:10005000D3170008671800086B18000897210008DC
:10006000000000006F1800089B1B00080F1E00080E
:1000700017220008732B0008732D000800000000F1
:10008000D72F00080000000000000000E32F000848
:1000900000000000B7210008553000085730000864
:1000A0000000000059300008000000005B3000082C
:1000B000FDB5B2B03A98049102A93B2288540020C1
:1000C0000D9024A8401C2F900DE00498329A904780
:1000D0000490002801D100F001FF0D98401C0D9004
:1000E0003398401C339033980178002910D025298B
:1000F000EBD100200790089009900A900B900C908B
:10010000002102240120149008201290339D05E064
:100110000D9800F0E5FE0800149901436D1C287845
:100120002028F8D023280BD02B2804D02D2804D049
:10013000302808D00AE02143F0E708000421ECE76A
:1001400008000821E9E708001021E6E72A280FD176
:10015000349802681068121D349B1A600F900028B2
:1001600004D542420F920800042101436D1C12E0A5
:1001700000200F90654A09E00F9B934205DA9E002C
:10018000F3185B00181830380F906D1C28780300A6
:10019000303B0A2BF0D328782E2803D00020C04310
:1001A0000E9027E06D1C28782A2808D13498006822
:1001B0000268001D349B18600E926D1C1AE02D28F9
:1001C00002D12D226D1C00E0002200200E900CE0D8
:1001D000002A09D10E9B4D4EB34205DA9E00F3185A
:1001E0005B00181830380E906D1C28780300303BE7
:1001F0000A2BEDD302A801872E78310041487844BC
:10020000FF30C01C00F052FF002801D06D1C00E040
:10021000002602A83A214654405C682804D1287878
:1002200068280BD1622005E06C2807D128786C285B
:1002300004D1712002A93A2288546D1C15A8069099
:10024000287869460870681C339068460278100068
:10025000253833D01C3800D116E2001F022800D800
:1002600012E2133801D100F065FD093800D10BE22C
:10027000801E01D100F0FBFD401E01D100F0A8FD61
:10028000401E022800D8FFE1001F01D100F0A0FDB0
:10029000401F00D152E1401E01D100F04BFD401E35
:1002A00000D1F3E0C01E10D0801E01D100F042FD4D
:1002B000C01E01D100F03EFD00F0E4FD252015A98F
:1002C00008701498079000F0E8FD349800680468FE
:1002D000001D349908600594002C00D0C2E002A8EB
:1002E0003B21405C002800D1B5E00024E4430648EF
:1002F0007844143000F0E4FE201A01D000F0EEFD46
:1003000000F0CBFD042A0000382A0000CBCCCC0C36
:1003100001236A4602A9280000F0ADFE002801D0A2
:1003200000F0DCFD641EF3D13295079D15AC002D65
:100330000FD0329E227802A9300000F08BFE0028F8
:1003400002D4641C6D1EF5D13296002801D000F055
:10035000C5FD3020694608700A9C002C0DDD329DD9
:1003600001236A4602A9280000F085FE002801D07A
:1003700000F0B4FD641EF3D13295059C089D002D5C
:100380000FD0329E227802A9300000F063FE0028D0
:1003900002D4641C6D1EF5D13296002801D000F005
:1003A0009DFD302769460F700B9C002C0DDD329DA2
:1003B00001236A4602A9280000F05DFE002801D052
:1003C00000F08CFD641EF3D132950598089944180D
:1003D000099D002D0FD0329E227802A9300000F036
:1003E00039FE002802D4641C6D1EF5D13296002817
:1003F00001D000F073FD684607700C9C002C0DDDE9
:10040000329D01236A4602A9280000F034FE00282C
:1004100001D000F063FD641EF3D1329502A83821AB
:10042000405C400700D45EE62020694608700198D1
:10043000002800DC57E6019C329D01236A4602A990
:10044000280000F018FE002801D000F047FD641ECF
:10045000F3D1329547E63F487844FF30C01F0590FE
:1004600000F01BFD0E9D002D03D5200000F04CFE7A
:1004700009E02A000021200000F04EFE002801D0F3
:10048000001B00E02800089000F007FD3498006889
:100490000268001D349908600020C043002110400C
:1004A00002AA03C215A80590069A3C2302A803C815
:1004B000002904D1002802D10E9C002C14D05B1E10
:1004C00005072D0F30353A2D08DAD55400090C07F1
:1004D0002043090904D1002802D105E02735F4E7BB
:1004E000059CD518AC42EAD33C20C01A0890D1181C
:1004F00005910E99884208DA081A0A9002A8018F1D
:10050000AA4A0A40028700F0C8FC002901D400F082
:10051000C4FC02A93822895C14220A40102A01D0A6
:1005200000F0BBFC0F99079A891A0A9A891A081ACF
:10053000002801DC00F0B1FC00F0FAFB02A83B212E
:10054000415C002908D00024E4434B487844FF3044
:100550002930CFE6082800003A21405C62286AD0A2
:10056000682819D06A2845D06C2806D071284FD049
:10057000742831D07A2821D06FE03498006801685F
:10058000001D349A106000297AD10024E4433B48CE
:100590007844FF301738ADE6349800680168001DD4
:1005A000349A1060002905D10024E443334878448C
:1005B000CA309FE60D98088000F06FFC3498006800
:1005C0000168001D349A1060002959D10024E443C9
:1005D0002A487844A6308DE6349800680168001DEA
:1005E000349A106000294BD10024E4432348784416
:1005F0008A307FE6349800680268001D34990860EC
:10060000002A13D10024E4431C4878446E3071E67C
:10061000349800680268001D34990860002A05D1EA
:100620000024E44315487844523063E60D98C1171E
:1006300003C200F032FC349800680168001D349A4F
:100640001060002905D10024E4430C4878442C3084
:1006500050E60D98087000F020FC3498006801689E
:10066000001D349A106000290AD10024E443034895
:10067000784408303EE600BF98260000AC26000013
:100680000D98086000F009FC34980368DB1D072012
:1006900083433498036003CB349D2B6002AB03C3C8
:1006A0002023C80F04D007982D2115AB19540DE055
:1006B00002A8008F204204D007982B2115AB1954B3
:1006C00004E0C00704D5079815A90B54401C0790F7
:1006D00015A807994318059324AD02A8C0C8684619
:1006E00000782021014368468170807861280BD012
:1006F0000E98002801D5062005E005D168468078CF
:10070000672801D114980E9002A803C808004C0075
:100710006415641C0ED109030CD003200890613AC3
:100720001A2A03D22249794486310FE021497944BB
:1007300082310BE0002C0ED100030CD10320089075
:10074000613A1A2A1DD31C4979446C3103221800DE
:1007500000F008FDA1E301AA02A803C800F00FFD04
:1007600002AA03C268468078612813D10598302117
:100770000170811C059169460978612905D17821AC
:1007800004E00E4979443431E0E75821417007987C
:10079000801C079002A803C892A20CCA02400B401A
:1007A0000ED1002A0CD10024002660E1EFFF0000EA
:1007B000B0250000B0250000B4250000AC250000E5
:1007C00068468078612800D099E00E98002801D50D
:1007D000212000E0401C13901398401C2E90300004
:1007E00039000022002300F0DFFC02A830C802D24A
:1007F0008020000645400198001F019024A90A703E
:1008000024A8461C2E98002832DD2E9F20002900A7
:10081000002280235B0300F0E0FC29D81C2200F0BA
:10082000F5FC04000D0000F029FD2E90FF1F002FA5
:1008300009DD00F05DFD02000B002000290000F042
:10084000BEFD04000D00F01D07212E9A002A0ADDCE
:10085000491E08D4401E13071B0F03701211F5E741
:10086000401E00220270491EFAD5C61D002FCDDCA5
:1008700024A82F99711A24AA551C139A0C0091428E
:1008800000DD1400002C33D48C4205DA411C095DD4
:10089000082901DB0F2100E00021220024AB9B1876
:1008A00001E0641E5B1E521E1E788E42F9D00F2995
:1008B00004D1411C895C491C401C8154002A04D588
:1008C00024AD641C0198001D0190611E10D46A18AB
:1008D0006846007813783033DEB23A2E01DBC31855
:1008E000C6331370491E521E0029F3D5694608709D
:1008F0000E98002800D4B9E0601E0E90B6E07F008C
:100900007F08019868494843684900F0E5FD019077
:1009100007200199401A002805DD02003000390047
:1009200000F072FB0AE042420020614900F06CFBDB
:1009300002000B003000390000F028FE6A46927871
:10094000662A02D1019A0A3200E006220E9B9A180A
:10095000142A00DD142224AB30241C705C1C02E03D
:1009600030A803C8139A002A40DD30AB03C31392AA
:1009700030A803C800F094FC2E90064608340425E5
:1009800030000A2100F0ABFD0F0030000A2100F01A
:10099000A6FD06003037601E077030000A2100F007
:1009A0009EFD0F0030000A2100F099FD0600A41EF4
:1009B000303727706D1EE3D1083413980838139030
:1009C0000028CDDD2E9800F083FC02000B0030A83B
:1009D00003C800F0F4FC0022364B00F038FE30AAC9
:1009E00003C2C5E7FFFFFFFFFFFFFF7F2F98201A1D
:1009F00024A94D1C04E0401E0199491E01916D1C63
:100A000029783029F7D069468978662902D1019979
:100A1000491C06E069468978652901D1149900E0EE
:100A200000210E9A5418A04200DA441E002C1DD456
:100A3000844204DA285D342801DD392100E03021C8
:100A40002200681E831801E0641E5B1E521E1E7881
:100A50008E42F9D0392902D1A95C491CA954002A37
:100A600004D50500641C0198401C0190019E13955B
:100A7000684600786946487000F0ACFE406A00782D
:100A8000694608700E9D20B2002804DC149C0548BD
:100A90007844103013906846807866280CD1761C14
:100AA00024E000BFCC22000097750000A086010062
:100AB0000000F03F84D7974168468078672846D188
:100AC00030B20321C943884247DBA84245DA761C8D
:100AD00002A8008F1299C0B2084203D120B2A842E6
:100AE00000DC050030B22D1A00D5002537B2002FEA
:100AF00000DDBAE00898411C08913021059A115494
:100B0000002D05DC02A8008F1299C0B2084206D061
:100B10000898411C089169460978059A1154784251
:100B2000854200DA6E4236B270420B90AD1920B2A7
:100B3000854200DA2C0024B209942200139905980A
:100B4000089BC01800F00EFB281B0C90DAE06846EA
:100B50004078612818D170201BE020B2A84206DA44
:100B600002A9098F129AC9B2114200D105006D1E67
:100B700000D5002568464078672802D1652069467F
:100B800007E04520694604E068464078412801D1E5
:100B9000502048700898411C089113990978059ACB
:100BA00011541398411C002D05DC02A8008F129AE5
:100BB000C0B2104219D00898421C08926A461278B6
:100BC000059B1A54002D10DD641E20B2854200DA08
:100BD0002C0022B20598089BC01800F0C3FA24B27A
:100BE000089800190890281B0B9005980899401840
:100BF00069464978017031B2002903D42B21417034
:100C0000871C03E02D224270871C4E42002412AD47
:100C1000300008E00A2100F05FFC30AA03C229700E
:100C20003098641C6D1C00B20028F3DC012C08DC39
:100C30006846407820210143652902D13020387070
:100C40007F1C002C09D1302038707F1C07E0641E07
:100C500012A8005D303038707F1C002CF7DC05983E
:100C600008994018381A09904CE020B231B28842F5
:100C70001DDA22B213990598089BC01800F072FA89
:100C800024B2089800190890391B0B91002D05DC3F
:100C900002A9098F129AC9B2114206D06946097891
:100CA000059A11540998401C09900C952AE032B21B
:100CB00013990598089BC01800F054FA0898C019B9
:100CC0000890A41B002D05DC02A9098F129AC9B255
:100CD000114205D0411C089169460978059A1154C2
:100CE00020B2854200DA2C0022B21398C11905986F
:100CF000089BC01800F036FA24B208980019089032
:100D0000281B0B9002A83821405C142101401029B7
:100D100000D0C2E00798089940180B99401809992B
:100D200040180C9940180F99884200DBB5E0081A6A
:100D30000A90B2E002AA3A20105C622808D0682823
:100D40000ED06A2814D06C281DD0712810D01AE05B
:100D5000349801680868091D349B1960C0B218E016
:100D6000349801680868091D349B196080B210E04E
:100D700034980368DB1D072083433498036003CB5A
:100D8000349C236006E0349801680868091D349B90
:100D90001960002102AB03C3108F1299C0B2084240
:100DA0005BD002A803C8002901D1002855D06846AD
:100DB00000782021014378294FD1079815A93022C6
:100DC0000A54401C421C07926A4612780A5444E0B6
:100DD00002AA3A20105C622808D068280ED06A283F
:100DE00014D06C281DD0712810D01AE034980168F6
:100DF0000868091D349B196040B218E034980168F6
:100E00000868091D349B196000B210E0349803682B
:100E1000DB1D072083433498036003CB349D2B6094
:100E200006E0349801680868091D349B1960C117F1
:100E300002AB03C3002902DA07982D2109E0108FC5
:100E4000204202D007982B2103E0C00705D5079860
:100E5000202115AA1154401C079015A80799401885
:100E600005906846017802A800F03CF815E0149857
:100E70000790349800680168001D349A106015A826
:100E800001700AE0252015A908701498079068469B
:100E90000078002801D04A7007940F980799401AEB
:100EA0000A99401A0899401A0B99401A0999401A50
:100EB0000C99401A019002A83821405C400701D5E6
:100EC000FFF733FA2020694608700198002801DCFA
:100ED000FFF72BFA019C329DFFF71AFA0020C0435E
:100EE00035B0F0BDF2B586B0040025696F2901D197
:100EF000082707E0084620210143782901D00A2766
:100F000000E010273C2603CC083C04AA03C26A4632
:100F1000127E642A03D06A46127E692A09D100290A
:100F200007DA04A803C800220023121A8B4104A880
:100F30000CC004A803C800290DD100280BD1206BD8
:100F4000002808D1082F3DD13820205C000739D572
:100F50003B26302035E00294009504A830C8761E68
:100F60000196200029003A00FB1700F039FC3032CE
:100F7000D0B23A280DDA00988255200029003A00B4
:100F8000FB1700F02DFC04000D0007D1002C05D14B
:100F90000AE06846007E8218AF32ECE70298C0682B
:100FA000009989198842DAD3029C009D082F09D143
:100FB0003820205C000705D5A85D302802D0761EB9
:100FC0003020A8553C20801BA061A919E160216B4D
:100FD000884206DA081A2062208F1C4901402187C6
:100FE00010E000290ED53821615C14220A40102A35
:100FF00008D1616B6269891A226A891A081A002865
:1010000000DD206207B0F0BDF8B50026104F0400E7
:101010000D00009214E0C00707D532003B0020000D
:10102000290000F014FB04000D000098401000900F
:101030003000390032003B0000F009FB06000F00D1
:1010400000980028E7D120002900F4BDEFFF000040
:101050000000244010B503000C001100A068984760
:10106000A060002804D0E06A401CE062002010BDAF
:101070000020C04310BDF8B50024002B11D007009C
:101080000E0014001D002178B068B847B060002839
:1010900009D0F06A401CF0620020641C6D1EF2D181
:1010A00004002000F2BD0020C043F9E7C9B2027875
:1010B0008A4203D0401C002AF9D1002070472E003C
:1010C00080B5002801D100BF07A006490B68002B9E
:1010D00003D022220021984701E000F0BFFB22202C
:1010E00002BD0000DC010020636F6E7374726169E1
:1010F0006E742068616E646C65723A20626164206F
:101100006D65737361676500431C0178401C09427B
:10111000FBD1C01A7047FEE7C9B2521E05D303784F
:10112000401C8B42F9D1401E704700207047FEE7FB
:1011300070B4103A03D378C9103A78C0FBD2530781
:1011400001D318C918C001D508C908C0D20704D3F3
:101150000B880380891C801C002A01D50B78037042
:1011600070BC70478B0701D18307E1D0124205D0D4
:101170000B78491C0370401C521EF9D1704710B502
:10118000144600F002F8226010BD4A0053155B1CA3
:1011900008D0520D06D003231B02FE3AD21A1305C3
:1011A000C91A70470022704730B4012464054D000D
:1011B000EC420BD85D00EC4208D80C001C436400E4
:1011C0000443144304D2994200D1904230BC70478A
:1011D000FCD08B42FAD18242F8E730B40124640596
:1011E0004D00EC420BD85D00EC4208D80C001C43CB
:1011F00064000443144304D28B4200D1824230BCC9
:101200007047FCD09942FAD19042F8E7124217D4C5
:101210000023DB435B0D9C464B005B0D06D0634512
:1012200004D09B18634502D21205891870476246A4
:10123000090D11430905002000B500BF00BF00BD26
:1012400052424B005B0DF1D05B1C5B05EED25B0D97
:10125000934102D91205891A70470BD10B031B1356
:10126000C90FC907821C002043411343E4D912056A
:101270001143E1E7C90FC9070020DDE7F4464A182A
:1012800005D200F00FF801D580174008604700F044
:1012900009F80121C907884200D908004042604787
:1012A0004A1812D2400DC90208430121C907084358
:1012B000520D40210901521A521C06D452421F32CB
:1012C00001D4D0407047C017704700207047FEE738
:1012D000010042221201D21E004207D002D4521E47
:1012E0000018FCD5C10A4005120589187047000096
:1012F0000100EED54042F446FFF7EBFF0122D20792
:10130000114360478B4200D1824205D984461000C8
:1013100062468C4619006346DF184C18640D7F0D39
:101320003AD0661C760537D0E61B352E34DCDB025E
:101330002B43DB0A0C0DC9022943C912202E0DDBF9
:101340001700203E06D01F00F741F3405F40002603
:10135000012A7741C01871410DD217E01700F741FB
:10136000F2405740F3415A40B340F3405A40002600
:10137000801859410AD3A21C52050FD0C207012F71
:10138000724117004008CB0718434908641C240524
:101390004208AF4170416141F0BC7047641C2105B7
:1013A0000020F9E76B4010E06B40ABE7F742F3D168
:1013B000E943F1E72442EFD100200021ECE7F0B44B
:1013C0000125ED070F005F40EED40C00871A9C4109
:1013D00005D2C01BA141D219634169406B40AE0ADE
:1013E000DF184C18F442E1D2640D7F0DE2D0E61B09
:1013F000362ED1DCDB022B43DB0AA4460C0DC902DE
:101400002943C90A012E28DC04D1D6075208DF0778
:101410003A435B08EF0A76429041994114D0394231
:101420003BD1B61940414941761C394204D1761C62
:10143000001849413942FAD0B9436746B74208D942
:10144000A41B24052143A7E70042EAD13642E8D194
:10145000A2E7E40AE10700209EE7202E0BDD203EF4
:101460001F00F340F7415F40012A002257417E42AE
:10147000984191410BE01700F741F2405740F3418A
:101480005A40B340F3405A407E42904199410A038A
:1014900003D2641EB619404149410027641E240549
:1014A0004208AE4178416141F0BC7047F4460028E3
:1014B00004D4494200F013F84042604740420029FA
:1014C00005D45FD000F00BF84042494260474942E2
:1014D00000F005F84942604703460B43E6D400227A
:1014E000030A8B420BD203098B4219D243088B4269
:1014F0002ED2411A00D20146524110467047FF22B7
:1015000009023FD012068B4205D3121209028B4208
:1015100001D31212090203098B4219D300E0090A10
:10152000C3098B4201D3CB01C01A524183098B42BC
:1015300001D38B01C01A524143098B4201D34B01A5
:10154000C01A524103098B4201D30B01C01A524108
:10155000C3088B4201D3CB00C01A524183088B428F
:1015600001D38B00C01A524143088B4201D34B0078
:10157000C01A5241884200D3401A5241CFD201468C
:101580001046704708B500F06FF908BDF0B40E00C2
:101590005E400125ED072E40B446AE0ADF184C1818
:1015A000F4423BD2F74241D2640D43D07F0D38D094
:1015B000E41BC902DB0229432B43CF0ADB0A0600E6
:1015C000B61A9F4104D2641EB6197F41B6185F4116
:1015D0006812800D24180018844222DCE80C0021D7
:1015E000B6197F41B61A9F4102D2B6185F413F1C1F
:1015F00040414941F4D3241C21DD2405B6197F4123
:10160000B61A9F4105D33743C60737430026012F3B
:101610007041614166463143F0BC7047FCD1F742EE
:1016200005D20020C14349054908F3E704D0002052
:10163000C143F1E77F0DFAD000206146ECE7244278
:10164000FAD1401C61410F03F6D30020E2E7F0B568
:101650000E005E400125ED072E40B446AE0ADF18AD
:101660004C18F44208D2F7420ED2640D01D07F0D1F
:1016700012D100206146F0BD05D1F74201D87F0D9F
:1016800005D10020C143F0BDFBD1640DF9D000208D
:10169000C143490549088FE0E419C902DB02294327
:1016A0002B43DB0A460DC00231438E4630B487B26D
:1016B00095B27D432E0CADB2140C7C43A419260CBC
:1016C000240425439CB27C43A419190C7943270CAC
:1016D000C919A4B20F043C43090C000C97B247434C
:1016E0002E0CBE193543ADB2170C4743360CBF194B
:1016F000A6B2BF193E043543240C3E0C36199FB2E6
:101700004743BF19BCB23E0C89191F0C47437F18D1
:101710003E043443390C704680B297B247432E0CD6
:10172000BE193543ADB2170C4743360CBF19A6B2EC
:10173000BF193E043543240C3E0C36199FB2474373
:10174000BF19BCB23E0C89191F0C47437F183E04D9
:101750003443390C77463F0C90B278432E0C8019F5
:101760000604ADB22E43050CA0B22D18120C7A431C
:101770005019020C80B2240CA4189AB27A431219A0
:1017800014042043120C89181B0C7B43C91830BC6D
:10179000EF0A394203D1B61940414941641E6F1224
:1017A000BF0DE41B0BDBFF19BC4211DA2405002737
:1017B0004208AE417841614166463143F0BD641C48
:1017C00005D1401C6141CF0201D34908F4E750E73D
:1017D0005DE7FEE7014870470000000004000020BC
:1017E00012422DD0994231D970B500251B4209D043
:1017F0000C00002112E01100FFF771FE0A00002129
:10180000002370BD0942F6D0002401264918644126
:10181000944200D3A41A7641F8D33100012601E0A6
:10182000764109D2001864416D41A41A9D41F7D256
:10183000A4185D41B619F5D3300022002B0070BD0D
:101840001B42CFD108B500F011F808BD01D190427C
:10185000CAD202000B0000210020704780B5012091
:1018600000F006F801BDFEE77047FEE77047FEE7AF
:1018700080B500BF00BF024A11001820ABBEFBE7D5
:1018800026000200F0B5020052B2002A1CD4032246
:10189000A94B040064B2A40804256C431C59FF251D
:1018A0001600064008277E43B540AC438D01EDB2DB
:1018B00002400826724395402543020052B2920826
:1018C000042462439D5022E00F249C4A0323050018
:1018D0006DB22540083DAD0804267543060076B27A
:1018E0003440083CA408042674431659FF27BC461C
:1018F0001C00044008277C436746A740BE438C0178
:10190000E4B2034008277B439C4034435451F0BD6C
:1019100010B50400601E80214904884201D30120D3
:101920000EE0601E8649086003210020C043FFF7D7
:10193000A9FF002083490860072083490860002030
:1019400010BD8248016801220A43026070477F4847
:10195000016808008007C00F70477C490A68F823B7
:101960009A43C30013430B60704779490A68032305
:101970009A4302430A607047754801680C2008408A
:10198000704773490A68F0239A4302430A6070471C
:101990006F490A686F4B134003430B60704710B4E4
:1019A0006D490A680323040EA3409A4303021B0AED
:1019B00013430B6010BC70476448016880225204D6
:1019C0000A43026070476148016808008001C00F47
:1019D000704710B45E4A1368604C1C4080235B0261
:1019E000034023430B4313605D4A13680F24A34352
:1019F0000407240F1C43146010BC704781B0594980
:101A00000A6802430A60096801400091009901B028
:101A1000704781B054490A6802430A60096801406E
:101A20000091009901B0704750490A6801239A4318
:101A300002430A6070474D4801680800C007C00FA4
:101A40007047F0B5A5B003A849490CC90CC00839C6
:101A50000838484F0120FFF7DCFF80204005FFF7E2
:101A6000CDFF03210020C043FFF70CFF00F030F84A
:101A70004148FFF74DFF00F02CF900F002FA00F0AA
:101A800012FB3E4E00F079FB0400A019029000F01A
:101A900074FB04000299200000F076F8002812D0B0
:101AA000A0190290380000F09DFB0090019103AB5B
:101AB000334A802105A800F0AFFB05002900C9B218
:101AC00005A800F02FFA00F0E5FB00F04BFADEE786
:101AD00010B50020FFF7A8FFFFF7ADFF0028FBD1EE
:101AE000FFF72FFFFFF733FF0128FBD11020FFF78F
:101AF00034FFE02149030020FFF76BFFFFF75CFF95
:101B0000FFF761FF0128FBD18020FFF73AFF00209B
:101B1000FFF73EFF0220FFF728FFFFF72DFF082801
:101B2000FBD1184C200000F048FC200000F04DFCD8
:101B30000020FFF734FF10BD00E400E01CED00E0E2
:101B400014E000E018E000E010E000E000100240C7
:101B500004100240FFF8FFFF30100240FFFFC2FFF9
:101B60002C1002401C1002401810024000200240BD
:101B7000443000086DE7FB3D50460000881300002C
:101B80003C30000880A8120100B5884201D3012032
:101B900000E00020C0B200BD7047FEE700B50100C4
:101BA00049B2002905D40121C206D20E91408D4AC6
:101BB000116000BDF0B5020052B2002A1CD403220D
:101BC000894B040064B2A40804256C431C59FF250A
:101BD0001600064008277E43B540AC438D01EDB2A8
:101BE00002400826724395402543020052B29208F3
:101BF000042462439D5022E00F247C4A0323050005
:101C00006DB22540083DAD0804267543060076B246
:101C10003440083CA408042674431659FF27BC46E8
:101C20001C00044008277C436746A740BE438C0144
:101C3000E4B2034008277B439C4034435451F0BD39
:101C400081B06B490A6802430A600968014000914B
:101C5000009901B0704730B4664ACBB204246343A4
:101C6000D3580F240D002D0CAC40A3430C00240CC2
:101C70000500A5401D43CBB204246343D55030BCBE
:101C8000704730B403680C004C4303256C43A343F6
:101C90000C004C4354431C43046030BC704730B4C8
:101CA000C3680C004C4303256C43A3430C004C4316
:101CB00054431C43C46030BC704700B50069084001
:101CC000884201D1012000E00020C0B200BD816245
:101CD0007047F8B588B00822002106A800F080FB04
:101CE00018220021684600F07BFB8020C003FFF72C
:101CF000A7FF80208002FFF7A3FF8020C002FFF72C
:101D00009FFF9026F60580213000FFF7E0FF0127B6
:101D1000009703250195002404946946364800F095
:101D2000C6FB02200090019504946946324800F0F9
:101D3000BEFB0097019504946946300000F0B7FBA4
:101D400002200090019504946946300000F0AFFB3A
:101D500004200090019504946946300000F0A7FB30
:101D600008200090019504946946300000F09FFB24
:101D700010200090019504946946300000F097FB14
:101D800040200090019704946946300000F08FFBDA
:101D900080200090019702940394049769463000D4
:101DA00000F085FB15490020FFF755FF0022202198
:101DB0003000FFF774FF002220213000FFF761FFA1
:101DC0002020069006A807714471857106A800F0CE
:101DD0004DFC00210720FFF7EDFE0720FFF7DEFE98
:101DE00009B0F0BD00E100E000E400E01CED00E01F
:101DF00014100240080001400014004801000400D3
:101E000080B520219020C005FFF757FF02BDFEE7F7
:101E100081B061490A6802430A6009680140009183
:101E2000009901B0704781B05C490A6802430A60BA
:101E3000096801400091009901B0704701680122D2
:101E40000A43026070474168554A0A40426081680F
:101E50000822914381607047C16908000006C00FE5
:101E60007047EFF31081012282F3108882684D4B96
:101E70001340836081F3108870470A00D2B2028554
:101E80007047F0B58DB01C22002106A800F0A8FA1A
:101E900018220021684600F0A3FA8020C001FFF755
:101EA000C2FF80208002FFF7B3FF802080000090F7
:101EB0000227019703260296002403940494012527
:101EC000059569469020C00500F0F1FA8020C00019
:101ED000009001970296039404940595694690201A
:101EE000C00500F0E4FAE12040020690079408944F
:101EF00009940C200A900B940C942B4C06A92000FA
:101F000000F07BFC2000FFF7ACFF2000FFF79BFFF9
:101F10002000FFF793FF80222449254800F02CFD84
:101F20000DB0F0BD38B505000C002200D2B292B25F
:101F300029001F4800F03CFD31BD70B504000E00C3
:101F40003000C0B200280CD0174D2800FFF784FFE6
:101F50000028F9D021782800FFF78FFF641C761E37
:101F6000EEE770BD70B5124C200000F041FD050099
:101F7000280080B200280DD0200000F040FD0600AF
:101F80002900C9B23000FFF7D8FF290089B220002C
:101F900000F026FD70BD0000141002401810024031
:101FA000FFF7FFFFFFFBFFFF003801403C0100206F
:101FB000CC01002000B5010049B2002905D401215F
:101FC000C206D20E9140594A116000BDF0B5020020
:101FD00052B2002A1CD40322554B040064B2A40858
:101FE00004256C431C59FF251600064008277E4334
:101FF000B540AC438D01EDB20240082672439540D6
:102000002543020052B29208042462439D5022E00C
:102010000F24484A032305006DB22540083DAD0852
:1020200004267543060076B23440083CA408042612
:1020300074431659FF27BC461C00044008277C4304
:102040006746A740BE438C01E4B2034008277B43A8
:102050009C4034435451F0BD81B037490A68024373
:102060000A60096801400091009901B07047016859
:1020700001220A4302607047016880229143016097
:10208000704741627047406A70470121C94301614E
:102090007047C16801220A43C2607047C1680122CB
:1020A0009143C160704718B585B01422002168467D
:1020B00000F096F980208002FFF7CEFF0021152066
:1020C000FFF784FF1520FFF775FF11206946088090
:1020D000002001901949029103900490184C694620
:1020E000200000F09CFC2000FFF7C6FF06B010BDEA
:1020F00010B5134C2000FFF7C8FF2000FFF7C9FF01
:102100002000FFF7B4FF10BD80B50D48FFF7C6FFF4
:1021100001BD80B50A48FFF7B6FF02BD80B50021BA
:102120000748FFF7AEFF01BD0000000000E100E03E
:1021300000E400E01CED00E0181002401027000051
:10214000004401402449096808407047224908605A
:1021500070470121C9430161704701690800C00748
:10216000C00F704710B442690B0013401B040C00F1
:1021700094431C43846110BC704718480068704742
:1021800000B5FEE700B5FEE77047704713480168E9
:10219000491C0160704780B52020FFF7D3FF00285D
:1021A00008D02020FFF7D2FFFFF7AEFF00F066F85F
:1021B000FFF79EFF01BD10B5094C2000FFF7CDFFD2
:1021C000002807D02000FFF7C4FF40219020C00561
:1021D000FFF7C8FF10BD000014040140D801002023
:1021E00000440140012212060118CA420AD28A4262
:1021F0000DD83822120609098918C20FD2071143D7
:102200004007704700D049080909014301E0C10FA8
:10221000C90700207047FEE708B410B585B007ABCA
:10222000049300240394002902D10194029402E053
:102230000190491E0291009404AB01A9084878441A
:102240001E30FDF735FF0199002900D00C700028E1
:1022500000D4039805B0019910BC02B0084700BF34
:10226000A10D00004949087070470020474902004D
:102270000A7002000A7348814873704710B5434CD6
:102280002078002802D10120608102E0FFF741FFA1
:10229000608110BD70B53D4C6089002873D0FFF798
:1022A000AFFD05002078002808D0022826D013D3DF
:1022B000042847D034D3052861D062E02800C0B29A
:1022C000002808D100206081FFF728FFFFF710FFEA
:1022D0000120FFF7C7FF54E02800C0B201280CD14D
:1022E0002B4861892B4A037802267343D152017827
:1022F000491C01700220FFF7B5FF42E02800C0B280
:1023000000280CD122486189224A037802267343AF
:10231000D1520178491C01700320FFF7A3FF30E080
:102320002800C0B201280CD119486189194A0378E4
:1023300002267343D1520178491C01700420FFF733
:1023400091FF1EE02800C0B2002817D11048618913
:10235000104A037802267343D1520178491C017058
:10236000207B0100491C2173C0B2202803DA03201E
:10237000FFF778FF02E00520FFF774FF01E0FFF7A9
:1023800074FF0020608170BD00000000BC010020CF
:10239000E00100203C00002030B504000D002000CA
:1023A0002900FFF79CF8401E0949086000200949F0
:1023B000086005200849086030BD10B50400FA2106
:1023C00089002000FFF7E8FF10BD0449086070474E
:1023D00014E000E018E000E010E000E00000002061
:1023E00010B50400080011000200200000F09AFB64
:1023F000200010BD30B403680C004C4303256C432F
:10240000A3430C004C4354431C43046030BC70474E
:1024100010B443688B430C0054431C43446010BC0D
:10242000704730B483680C004C4303256C43A343CE
:102430000C004C4354431C43846030BC704730B4A0
:10244000C3680C004C4303256C43A3430C004C436E
:1024500054431C43C46030BC704730B4036A0C0062
:102460004C434C434C430F256C43A3430C004C435B
:102470004C434C4354431C43046230BC704730B45B
:10248000446A0B0A0D0A6B430D0A6B430D0A6B433A
:102490000F256B439C430B0A0D0A6B430D0A6B43DC
:1024A0000D0A6B4353432343436230BC7047F8B576
:1024B00006000C009020C00586420FD0524886428C
:1024C0000CD05248864209D05148864206D0514825
:1024D000864203D0B2215048FFF75EFB20680028F7
:1024E00004D0206880214902884203D3B3214A489E
:1024F000FFF752FB606800280CD06068012809D003
:102500006068022806D06068032803D0B4214248DE
:10251000FFF742FB2069002809D02069012806D076
:102520002069022803D0B5213B48FFF735FB002581
:102530002068E840002865D020680121A9400140BA
:102540000F00002F5CD06068012802D0606802286C
:1025500020D1A068002809D0A068012806D0A06872
:10256000032803D0C6212C48FFF716FBA2683900C8
:102570003000FFF756FFE068002806D0E068012829
:1025800003D0CC212448FFF707FBE2682168300024
:10259000FFF73EFF226939003000FFF750FF606807
:1025A000022828D16069002818D06069012815D058
:1025B0006069022812D0606903280FD0606904287E
:1025C0000CD06069052809D06069062806D06069CA
:1025D000072803D0D8211048FFF7DEFAFF2F05D8CF
:1025E000626939003000FFF738FF04E062693900A2
:1025F0003000FFF744FF626839003000FFF7FAFE51
:102600006D1C95E70020F2BD00040048000800485A
:10261000000C004800140048F82D000855490A68CD
:1026200002430A60704753490A6882430A60704750
:1026300051490A6802430A6070474F490A68824359
:102640000A6070474D490A6802430A6070474B4967
:102650000A6882430A60704749490A6802430A606F
:10266000704747490A6882430A60704738B50400DA
:102670000025206843490140002903D075214248C4
:10268000FFF78AFA2079002806D02079012803D0A4
:1026900076213D48FFF780FA6079002809D06079FB
:1026A000012806D06079022803D077213648FFF749
:1026B00073FA2079002853D0A07900280CD0A07993
:1026C000012809D0A079022806D0A079032803D0D8
:1026D0007C212D48FFF760FA2068002846D06079F9
:1026E000002803D002280FD007D314E02068FFF79A
:1026F000A4FF2068FFF792FF0FE02068FFF793FF29
:102700002068FFF795FF08E02068FFF787FF206843
:10271000FFF78EFF01E001200500A079002825D0F9
:10272000A079012804D018D303280FD007D314E0D0
:102730002068FFF796FF2068FFF784FF16E0206807
:10274000FFF785FF2068FFF787FF0FE02068FFF79E
:1027500079FF2068FFF780FF08E00120050005E011
:102760002068FFF760FF2068FFF767FFEDB22800E1
:1027700032BD00000004014004040140080401408F
:102780000C040140000071FFB82D0008016808002A
:10279000C007C00F70474268704B13400B43436043
:1027A000704782686E4B13400B4383607047FCB5E3
:1027B00004000D0016001F0080200002864214D184
:1027C00002206843790840183900FEF788FE80B27D
:1027D0000090009963480840009949084907490F4B
:1027E000084301900198E06006E078082818390055
:1027F000FEF775FE80B2E060F3BDFEB506000C008A
:1028000001206946087000250195574FBE4203D04C
:10281000FD215648FFF7C0F920685549884203D387
:10282000FE215248FFF7B8F96068002808D06068B8
:1028300080214901884203D0FF214C48FFF7ACF9C1
:10284000A068002809D0A06880218901884204D0AE
:10285000802149004548FFF79FF9E06800280ED025
:10286000E0688021C900884209D0E068C021C90021
:10287000884204D0FF21891C3C48FFF78DF920696C
:1028800000280DD0206904280AD02069082807D024
:1028900020690C2804D0812149003448FFF77CF9D5
:1028A0006069002813D060698021490088420ED0F9
:1028B000606980218900884209D06069C02189004F
:1028C000884204D0FF21091D2848FFF765F9A06957
:1028D000002809D0A06980210902884204D0822101
:1028E00049002248FFF758F93000FFF74FFF002852
:1028F0002FD130681F49014060680843E1680143F7
:1029000020690843A16901433160A1683000FFF7E5
:1029100042FF61693000FFF744FFBE4203D100204F
:1029200000F05DF901900198002812D0206800287D
:102930000FD0684605702368A26901993000FFF73F
:1029400036FFF068102804D2FF2180310748FFF7D6
:1029500023F968460078FEBD00000000FFCFFFFFAE
:10296000FFFCFFFFF0FF000000380140742D00085D
:10297000818D5B00F369FFFF30B513009BB2042B20
:1029800009DB13009BB2002B05D0084BD4181500AF
:10299000ADB2254200D0FEE701608280D318C3802B
:1029A00000231C000481438130BD0000FFFF0000B4
:1029B00070B500231C001500A4B2ADB2AC420ED21B
:1029C0001C00A4B20C5D05680689AC550489641C22
:1029D00004810489C588254005815B1CEAE770BD38
:1029E0004289521842814289C3881340438170470B
:1029F00001894289891AC088084080B2704741899C
:102A0000006889B24018704781627047C1627047A0
:102A100001637047416901220A4342617047F8B57A
:102A200004000E00384FBC4210D0384884420DD00C
:102A3000374884420AD03748844207D03648844217
:102A400004D0902149003548FFF7A6F870680028A7
:102A500010D0706810280DD0706840280AD07068B7
:102A6000202807D07068602804D0FF2122312B482D
:102A7000FFF792F8F06800280ED0F0688021490036
:102A8000884209D0F06880218900884204D09121D1
:102A900049002248FFF780F82568BC4202D01B4855
:102AA000844204D170208543280075680543BC42E8
:102AB0000BD01648844208D01548844205D01548EA
:102AC000844202D01448844203D115482840F56856
:102AD00005432560B1682000FFF798FF318820008A
:102AE000FFF792FFBC4205D00A48844202D00A4850
:102AF000844203D131692000FFF78AFF2000FFF7ED
:102B000089FF0020F2BD0000002C014000040040BD
:102B1000002000400044014000480140782E000899
:102B2000FFFCFFFF1206130A1A43130C1A4300BFDF
:102B3000094205D0830705D00270401C491EF9D117
:102B4000704700001300103906D330B4140015008C
:102B500010393CC0FCD230BC490700D30CC000D5B2
:102B600004C0890002D30280801C002900D50270B5
:102B70007047FEE75A48016808008007C00F704799
:102B80005848016808008007C00F70475648016820
:102B90000C200840704754480168F02008407047F6
:102BA00051480168E020C000084070474F4909685B
:102BB000032282400A400006104370474A480068DA
:102BC000802149020840704747480168F02080038F
:102BD00008407047464800680007000F704738B546
:102BE00004000025002C03D0FD214248FEF7D4FF4D
:102BF000002C23D12000FFF7D9FF012804D016D3E1
:102C0000032805D00BD312E000F01AF8050015E0F8
:102C1000FFF7B0FF002801D0374805000EE0FFF7AE
:102C2000AFFF002802D080200002050006E000F07F
:102C300007F800F019F800F023F80500280032BD6D
:102C400010B50024FFF7A2FF002804D0042804D008
:102C5000082804D006E0284805E0274803E000F0F3
:102C600019F800E0244810BD10B50400FFF793FFE9
:102C7000224900090007000F085CC440200010BD75
:102C800010B50400FFF78CFF1D49000A085CC44022
:102C9000200010BD70B500242600FFF78FFF05004F
:102CA0002800002804D080214902884202D003E095
:102CB000144C02E0104C00E0124CFFF78BFF0100B7
:102CC0002000491CFEF70BFC0600FFF77DFF800C7F
:102CD0000107090F891C3000484370BD0000000047
:102CE0000010024020100240041002403010024048
:102CF0002C100240382E000800127A001C30000808
:102D00004C30000800093D00686A6C747A4C000081
:102D10007072696E74665F733A20256E2064697301
:102D2000616C6C6F776564007072696E74663A20CE
:102D300062616420256E20617267756D656E740036
:102D40007072696E74665F733A20626164202573E5
:102D500020617267756D656E7400000000000000F0
:102D60006E616E004E414E00696E6600494E46002F
:102D70003000FEE7433A5C5878585C4E45435C446B
:102D80007269766572735C53544D3332463078788D
:102D90005F48414C5F4472697665725C5372635C54
:102DA00073746D3332663078785F6C6C5F75736105
:102DB00072742E6300000000433A5C5878585C4EF1
:102DC00045435C447269766572735C53544D33328B
:102DD000463078785F48414C5F4472697665725C32
:102DE0005372635C73746D3332663078785F6C6CE9
:102DF0005F657874692E6300433A5C5878585C4E7E
:102E000045435C447269766572735C53544D33324A
:102E1000463078785F48414C5F4472697665725CF1
:102E20005372635C73746D3332663078785F6C6CA8
:102E30005F6770696F2E6300433A5C5878585C4E48
:102E400045435C447269766572735C53544D33320A
:102E5000463078785F48414C5F4472697665725CB1
:102E60005372635C73746D3332663078785F6C6C68
:102E70005F7263632E630000433A5C5878585C4E7F
:102E800045435C447269766572735C53544D3332CA
:102E9000463078785F48414C5F4472697665725C71
:102EA0005372635C73746D3332663078785F6C6C28
:102EB0005F74696D2E63000070B40123002413E079
:102EC0000168001D194202D04D466918491E0C6068
:102ED000091D121F042AFAD20D00960701D50C8095
:102EE000AD1C1A4000D02C700268001D002AE7D1EA
:102EF00070BC704700127A005E3000085E30000837
:102F00005E3000085E3000085E3000085E30000869
:102F10005E300008FFFFFFFFFFFFFFFFBE1000084D
:102F20005E3000085E300008FFFFFFFFFFFF00007B
:102F300030B401220EE00368C3184468083014421C
:102F400002D04D462C19641E1D6825601B1D241DD2
:102F5000091FF9D10168001D0029ECD130BC704770
:102F600010B5074979441831064C7C44163404E006
:102F7000081D0A68891888470100A142F8D110BDD0
:102F8000080000002800000031FFFFFFA80100003A
:102F90003C0000200000000099FFFFFF3C00000003
:102FA00054FFFFFF000000200000000000F00DF8BB
:102FB000002801D0FFF7D4FF00BF00BF002000BFF2
:102FC00000BFFEF73EFD00F002F80120704780B51B
:102FD00000F002F801BDFEE707463846FEF748FC60
:102FE000FBE7FEE70548014603B4684680F309881D
:102FF00000BF00BF00BF00BFFFF7D8FFA5EDF5FE83
:103000008268521C82604268002A06D00268531C03
:10301000036011704168491E416070470000000064
:103020000000000001020304060708090148804768
:10303000014800475D300008E52F00082573202572
:10304000660D0A0048656C6C6F000000000000000F
:0F30500001020304FEE7FEE7FEE7FEE77047001C
:0400000508002FE5DB
:00000001FF
