:020000040800F2
:10000000780D0020B5320008F5290008F92900080C
:1000100000000000000000000000000000000000E0
:10002000000000000000000000000000FD290008A2
:100030000000000000000000FF290008012A00085D
:1000400017110008000000002F110008CF1200084F
:10005000D3170008671800086B1800080B2A00085F
:10006000000000006F180008B71F0008BB2400083C
:10007000EB270008532F000843320008000000005F
:100080004F3200080000000000000000DD320008D0
:1000900000000000232A0008DF320008E1320008D7
:1000A00000000000E332000800000000E532000814
:1000B000FDB5B2B03A98049102A93B2288540020C1
:1000C0000D9024A8401C2F900DE00498329A904780
:1000D0000490002801D100F001FF0D98401C0D9004
:1000E0003398401C339033980178002910D025298B
:1000F000EBD100200790089009900A900B900C908B
:10010000002102240120149008201290339D05E064
:100110000D9800F0E5FE0800149901436D1C287845
:100120002028F8D023280BD02B2804D02D2804D049
:10013000302808D00AE02143F0E708000421ECE76A
:1001400008000821E9E708001021E6E72A280FD176
:10015000349802681068121D349B1A600F900028B2
:1001600004D542420F920800042101436D1C12E0A5
:1001700000200F90654A09E00F9B934205DA9E002C
:10018000F3185B00181830380F906D1C28780300A6
:10019000303B0A2BF0D328782E2803D00020C04310
:1001A0000E9027E06D1C28782A2808D13498006822
:1001B0000268001D349B18600E926D1C1AE02D28F9
:1001C00002D12D226D1C00E0002200200E900CE0D8
:1001D000002A09D10E9B4D4EB34205DA9E00F3185A
:1001E0005B00181830380E906D1C28780300303BE7
:1001F0000A2BEDD302A801872E78310041487844BC
:10020000FF30C01C00F052FF002801D06D1C00E040
:10021000002602A83A214654405C682804D1287878
:1002200068280BD1622005E06C2807D128786C285B
:1002300004D1712002A93A2288546D1C15A8069099
:10024000287869460870681C339068460278100068
:10025000253833D01C3800D116E2001F022800D800
:1002600012E2133801D100F065FD093800D10BE22C
:10027000801E01D100F0FBFD401E01D100F0A8FD61
:10028000401E022800D8FFE1001F01D100F0A0FDB0
:10029000401F00D152E1401E01D100F04BFD401E35
:1002A00000D1F3E0C01E10D0801E01D100F042FD4D
:1002B000C01E01D100F03EFD00F0E4FD252015A98F
:1002C00008701498079000F0E8FD349800680468FE
:1002D000001D349908600594002C00D0C2E002A8EB
:1002E0003B21405C002800D1B5E00024E4430648EF
:1002F0007844143000F0E4FE201A01D000F0EEFD46
:1003000000F0CBFDE42B0000182C0000CBCCCC0C73
:1003100001236A4602A9280000F0ADFE002801D0A2
:1003200000F0DCFD641EF3D13295079D15AC002D65
:100330000FD0329E227802A9300000F08BFE0028F8
:1003400002D4641C6D1EF5D13296002801D000F055
:10035000C5FD3020694608700A9C002C0DDD329DD9
:1003600001236A4602A9280000F085FE002801D07A
:1003700000F0B4FD641EF3D13295059C089D002D5C
:100380000FD0329E227802A9300000F063FE0028D0
:1003900002D4641C6D1EF5D13296002801D000F005
:1003A0009DFD302769460F700B9C002C0DDD329DA2
:1003B00001236A4602A9280000F05DFE002801D052
:1003C00000F08CFD641EF3D132950598089944180D
:1003D000099D002D0FD0329E227802A9300000F036
:1003E00039FE002802D4641C6D1EF5D13296002817
:1003F00001D000F073FD684607700C9C002C0DDDE9
:10040000329D01236A4602A9280000F034FE00282C
:1004100001D000F063FD641EF3D1329502A83821AB
:10042000405C400700D45EE62020694608700198D1
:10043000002800DC57E6019C329D01236A4602A990
:10044000280000F018FE002801D000F047FD641ECF
:10045000F3D1329547E63F487844FF30C01F0590FE
:1004600000F01BFD0E9D002D03D5200000F04CFE7A
:1004700009E02A000021200000F04EFE002801D0F3
:10048000001B00E02800089000F007FD3498006889
:100490000268001D349908600020C043002110400C
:1004A00002AA03C215A80590069A3C2302A803C815
:1004B000002904D1002802D10E9C002C14D05B1E10
:1004C00005072D0F30353A2D08DAD55400090C07F1
:1004D0002043090904D1002802D105E02735F4E7BB
:1004E000059CD518AC42EAD33C20C01A0890D1181C
:1004F00005910E99884208DA081A0A9002A8018F1D
:10050000AA4A0A40028700F0C8FC002901D400F082
:10051000C4FC02A93822895C14220A40102A01D0A6
:1005200000F0BBFC0F99079A891A0A9A891A081ACF
:10053000002801DC00F0B1FC00F0FAFB02A83B212E
:10054000415C002908D00024E4434B487844FF3044
:100550002930CFE6E82900003A21405C62286AD0C1
:10056000682819D06A2845D06C2806D071284FD049
:10057000742831D07A2821D06FE03498006801685F
:10058000001D349A106000297AD10024E4433B48CE
:100590007844FF301738ADE6349800680168001DD4
:1005A000349A1060002905D10024E443334878448C
:1005B000CA309FE60D98088000F06FFC3498006800
:1005C0000168001D349A1060002959D10024E443C9
:1005D0002A487844A6308DE6349800680168001DEA
:1005E000349A106000294BD10024E4432348784416
:1005F0008A307FE6349800680268001D34990860EC
:10060000002A13D10024E4431C4878446E3071E67C
:10061000349800680268001D34990860002A05D1EA
:100620000024E44315487844523063E60D98C1171E
:1006300003C200F032FC349800680168001D349A4F
:100640001060002905D10024E4430C4878442C3084
:1006500050E60D98087000F020FC3498006801689E
:10066000001D349A106000290AD10024E443034895
:10067000784408303EE600BF782800008C2800004F
:100680000D98086000F009FC34980368DB1D072012
:1006900083433498036003CB349D2B6002AB03C3C8
:1006A0002023C80F04D007982D2115AB19540DE055
:1006B00002A8008F204204D007982B2115AB1954B3
:1006C00004E0C00704D5079815A90B54401C0790F7
:1006D00015A807994318059324AD02A8C0C8684619
:1006E00000782021014368468170807861280BD012
:1006F0000E98002801D5062005E005D168468078CF
:10070000672801D114980E9002A803C808004C0075
:100710006415641C0ED109030CD003200890613AC3
:100720001A2A03D22249794486310FE021497944BB
:1007300082310BE0002C0ED100030CD10320089075
:10074000613A1A2A1DD31C4979446C3103221800DE
:1007500000F008FDA1E301AA02A803C800F00FFD04
:1007600002AA03C268468078612813D10598302117
:100770000170811C059169460978612905D17821AC
:1007800004E00E4979443431E0E75821417007987C
:10079000801C079002A803C892A20CCA02400B401A
:1007A0000ED1002A0CD10024002660E1EFFF0000EA
:1007B0009027000090270000942700008C2700005D
:1007C00068468078612800D099E00E98002801D50D
:1007D000212000E0401C13901398401C2E90300004
:1007E00039000022002300F0DFFC02A830C802D24A
:1007F0008020000645400198001F019024A90A703E
:1008000024A8461C2E98002832DD2E9F20002900A7
:10081000002280235B0300F0E0FC29D81C2200F0BA
:10082000F5FC04000D0000F029FD2E90FF1F002FA5
:1008300009DD00F05DFD02000B002000290000F042
:10084000BEFD04000D00F01D07212E9A002A0ADDCE
:10085000491E08D4401E13071B0F03701211F5E741
:10086000401E00220270491EFAD5C61D002FCDDCA5
:1008700024A82F99711A24AA551C139A0C0091428E
:1008800000DD1400002C33D48C4205DA411C095DD4
:10089000082901DB0F2100E00021220024AB9B1876
:1008A00001E0641E5B1E521E1E788E42F9D00F2995
:1008B00004D1411C895C491C401C8154002A04D588
:1008C00024AD641C0198001D0190611E10D46A18AB
:1008D0006846007813783033DEB23A2E01DBC31855
:1008E000C6331370491E521E0029F3D5694608709D
:1008F0000E98002800D4B9E0601E0E90B6E07F008C
:100900007F08019868494843684900F0E5FD019077
:1009100007200199401A002805DD02003000390047
:1009200000F072FB0AE042420020614900F06CFBDB
:1009300002000B003000390000F028FE6A46927871
:10094000662A02D1019A0A3200E006220E9B9A180A
:10095000142A00DD142224AB30241C705C1C02E03D
:1009600030A803C8139A002A40DD30AB03C31392AA
:1009700030A803C800F094FC2E90064608340425E5
:1009800030000A2100F0ABFD0F0030000A2100F01A
:10099000A6FD06003037601E077030000A2100F007
:1009A0009EFD0F0030000A2100F099FD0600A41EF4
:1009B000303727706D1EE3D1083413980838139030
:1009C0000028CDDD2E9800F083FC02000B0030A83B
:1009D00003C800F0F4FC0022364B00F038FE30AAC9
:1009E00003C2C5E7FFFFFFFFFFFFFF7F2F98201A1D
:1009F00024A94D1C04E0401E0199491E01916D1C63
:100A000029783029F7D069468978662902D1019979
:100A1000491C06E069468978652901D1149900E0EE
:100A200000210E9A5418A04200DA441E002C1DD456
:100A3000844204DA285D342801DD392100E03021C8
:100A40002200681E831801E0641E5B1E521E1E7881
:100A50008E42F9D0392902D1A95C491CA954002A37
:100A600004D50500641C0198401C0190019E13955B
:100A7000684600786946487000F0ACFE406A00782D
:100A8000694608700E9D20B2002804DC149C0548BD
:100A90007844103013906846807866280CD1761C14
:100AA00024E000BFAC24000097750000A086010080
:100AB0000000F03F84D7974168468078672846D188
:100AC00030B20321C943884247DBA84245DA761C8D
:100AD00002A8008F1299C0B2084203D120B2A842E6
:100AE00000DC050030B22D1A00D5002537B2002FEA
:100AF00000DDBAE00898411C08913021059A115494
:100B0000002D05DC02A8008F1299C0B2084206D061
:100B10000898411C089169460978059A1154784251
:100B2000854200DA6E4236B270420B90AD1920B2A7
:100B3000854200DA2C0024B209942200139905980A
:100B4000089BC01800F00EFB281B0C90DAE06846EA
:100B50004078612818D170201BE020B2A84206DA44
:100B600002A9098F129AC9B2114200D105006D1E67
:100B700000D5002568464078672802D1652069467F
:100B800007E04520694604E068464078412801D1E5
:100B9000502048700898411C089113990978059ACB
:100BA00011541398411C002D05DC02A8008F129AE5
:100BB000C0B2104219D00898421C08926A461278B6
:100BC000059B1A54002D10DD641E20B2854200DA08
:100BD0002C0022B20598089BC01800F0C3FA24B27A
:100BE000089800190890281B0B9005980899401840
:100BF00069464978017031B2002903D42B21417034
:100C0000871C03E02D224270871C4E42002412AD47
:100C1000300008E00A2100F05FFC30AA03C229700E
:100C20003098641C6D1C00B20028F3DC012C08DC39
:100C30006846407820210143652902D13020387070
:100C40007F1C002C09D1302038707F1C07E0641E07
:100C500012A8005D303038707F1C002CF7DC05983E
:100C600008994018381A09904CE020B231B28842F5
:100C70001DDA22B213990598089BC01800F072FA89
:100C800024B2089800190890391B0B91002D05DC3F
:100C900002A9098F129AC9B2114206D06946097891
:100CA000059A11540998401C09900C952AE032B21B
:100CB00013990598089BC01800F054FA0898C019B9
:100CC0000890A41B002D05DC02A9098F129AC9B255
:100CD000114205D0411C089169460978059A1154C2
:100CE00020B2854200DA2C0022B21398C11905986F
:100CF000089BC01800F036FA24B208980019089032
:100D0000281B0B9002A83821405C142101401029B7
:100D100000D0C2E00798089940180B99401809992B
:100D200040180C9940180F99884200DBB5E0081A6A
:100D30000A90B2E002AA3A20105C622808D0682823
:100D40000ED06A2814D06C281DD0712810D01AE05B
:100D5000349801680868091D349B1960C0B218E016
:100D6000349801680868091D349B196080B210E04E
:100D700034980368DB1D072083433498036003CB5A
:100D8000349C236006E0349801680868091D349B90
:100D90001960002102AB03C3108F1299C0B2084240
:100DA0005BD002A803C8002901D1002855D06846AD
:100DB00000782021014378294FD1079815A93022C6
:100DC0000A54401C421C07926A4612780A5444E0B6
:100DD00002AA3A20105C622808D068280ED06A283F
:100DE00014D06C281DD0712810D01AE034980168F6
:100DF0000868091D349B196040B218E034980168F6
:100E00000868091D349B196000B210E0349803682B
:100E1000DB1D072083433498036003CB349D2B6094
:100E200006E0349801680868091D349B1960C117F1
:100E300002AB03C3002902DA07982D2109E0108FC5
:100E4000204202D007982B2103E0C00705D5079860
:100E5000202115AA1154401C079015A80799401885
:100E600005906846017802A800F03CF815E0149857
:100E70000790349800680168001D349A106015A826
:100E800001700AE0252015A908701498079068469B
:100E90000078002801D04A7007940F980799401AEB
:100EA0000A99401A0899401A0B99401A0999401A50
:100EB0000C99401A019002A83821405C400701D5E6
:100EC000FFF733FA2020694608700198002801DCFA
:100ED000FFF72BFA019C329DFFF71AFA0020C0435E
:100EE00035B0F0BDF2B586B0040025696F2901D197
:100EF000082707E0084620210143782901D00A2766
:100F000000E010273C2603CC083C04AA03C26A4632
:100F1000127E642A03D06A46127E692A09D100290A
:100F200007DA04A803C800220023121A8B4104A880
:100F30000CC004A803C800290DD100280BD1206BD8
:100F4000002808D1082F3DD13820205C000739D572
:100F50003B26302035E00294009504A830C8761E68
:100F60000196200029003A00FB1700F039FC3032CE
:100F7000D0B23A280DDA00988255200029003A00B4
:100F8000FB1700F02DFC04000D0007D1002C05D14B
:100F90000AE06846007E8218AF32ECE70298C0682B
:100FA000009989198842DAD3029C009D082F09D143
:100FB0003820205C000705D5A85D302802D0761EB9
:100FC0003020A8553C20801BA061A919E160216B4D
:100FD000884206DA081A2062208F1C4901402187C6
:100FE00010E000290ED53821615C14220A40102A35
:100FF00008D1616B6269891A226A891A081A002865
:1010000000DD206207B0F0BDF8B50026104F0400E7
:101010000D00009214E0C00707D532003B0020000D
:10102000290000F014FB04000D000098401000900F
:101030003000390032003B0000F009FB06000F00D1
:1010400000980028E7D120002900F4BDEFFF000040
:101050000000244010B503000C001100A068984760
:10106000A060002804D0E06A401CE062002010BDAF
:101070000020C04310BDF8B50024002B11D007009C
:101080000E0014001D002178B068B847B060002839
:1010900009D0F06A401CF0620020641C6D1EF2D181
:1010A00004002000F2BD0020C043F9E7C9B2027875
:1010B0008A4203D0401C002AF9D1002070472E003C
:1010C00080B5002801D100BF07A006490B68002B9E
:1010D00003D022220021984701E000F0BFFB22202C
:1010E00002BD000074050020636F6E737472616945
:1010F0006E742068616E646C65723A20626164206F
:101100006D65737361676500431C0178401C09427B
:10111000FBD1C01A7047FEE7C9B2521E05D303784F
:10112000401C8B42F9D1401E704700207047FEE7FB
:1011300070B4103A03D378C9103A78C0FBD2530781
:1011400001D318C918C001D508C908C0D20704D3F3
:101150000B880380891C801C002A01D50B78037042
:1011600070BC70478B0701D18307E1D0124205D0D4
:101170000B78491C0370401C521EF9D1704710B502
:10118000144600F002F8226010BD4A0053155B1CA3
:1011900008D0520D06D003231B02FE3AD21A1305C3
:1011A000C91A70470022704730B4012464054D000D
:1011B000EC420BD85D00EC4208D80C001C436400E4
:1011C0000443144304D2994200D1904230BC70478A
:1011D000FCD08B42FAD18242F8E730B40124640596
:1011E0004D00EC420BD85D00EC4208D80C001C43CB
:1011F00064000443144304D28B4200D1824230BCC9
:101200007047FCD09942FAD19042F8E7124217D4C5
:101210000023DB435B0D9C464B005B0D06D0634512
:1012200004D09B18634502D21205891870476246A4
:10123000090D11430905002000B500BF00BF00BD26
:1012400052424B005B0DF1D05B1C5B05EED25B0D97
:10125000934102D91205891A70470BD10B031B1356
:10126000C90FC907821C002043411343E4D912056A
:101270001143E1E7C90FC9070020DDE7F4464A182A
:1012800005D200F00FF801D580174008604700F044
:1012900009F80121C907884200D908004042604787
:1012A0004A1812D2400DC90208430121C907084358
:1012B000520D40210901521A521C06D452421F32CB
:1012C00001D4D0407047C017704700207047FEE738
:1012D000010042221201D21E004207D002D4521E47
:1012E0000018FCD5C10A4005120589187047000096
:1012F0000100EED54042F446FFF7EBFF0122D20792
:10130000114360478B4200D1824205D984461000C8
:1013100062468C4619006346DF184C18640D7F0D39
:101320003AD0661C760537D0E61B352E34DCDB025E
:101330002B43DB0A0C0DC9022943C912202E0DDBF9
:101340001700203E06D01F00F741F3405F40002603
:10135000012A7741C01871410DD217E01700F741FB
:10136000F2405740F3415A40B340F3405A40002600
:10137000801859410AD3A21C52050FD0C207012F71
:10138000724117004008CB0718434908641C240524
:101390004208AF4170416141F0BC7047641C2105B7
:1013A0000020F9E76B4010E06B40ABE7F742F3D168
:1013B000E943F1E72442EFD100200021ECE7F0B44B
:1013C0000125ED070F005F40EED40C00871A9C4109
:1013D00005D2C01BA141D219634169406B40AE0ADE
:1013E000DF184C18F442E1D2640D7F0DE2D0E61B09
:1013F000362ED1DCDB022B43DB0AA4460C0DC902DE
:101400002943C90A012E28DC04D1D6075208DF0778
:101410003A435B08EF0A76429041994114D0394231
:101420003BD1B61940414941761C394204D1761C62
:10143000001849413942FAD0B9436746B74208D942
:10144000A41B24052143A7E70042EAD13642E8D194
:10145000A2E7E40AE10700209EE7202E0BDD203EF4
:101460001F00F340F7415F40012A002257417E42AE
:10147000984191410BE01700F741F2405740F3418A
:101480005A40B340F3405A407E42904199410A038A
:1014900003D2641EB619404149410027641E240549
:1014A0004208AE4178416141F0BC7047F4460028E3
:1014B00004D4494200F013F84042604740420029FA
:1014C00005D45FD000F00BF84042494260474942E2
:1014D00000F005F84942604703460B43E6D400227A
:1014E000030A8B420BD203098B4219D243088B4269
:1014F0002ED2411A00D20146524110467047FF22B7
:1015000009023FD012068B4205D3121209028B4208
:1015100001D31212090203098B4219D300E0090A10
:10152000C3098B4201D3CB01C01A524183098B42BC
:1015300001D38B01C01A524143098B4201D34B01A5
:10154000C01A524103098B4201D30B01C01A524108
:10155000C3088B4201D3CB00C01A524183088B428F
:1015600001D38B00C01A524143088B4201D34B0078
:10157000C01A5241884200D3401A5241CFD201468C
:101580001046704708B500F06FF908BDF0B40E00C2
:101590005E400125ED072E40B446AE0ADF184C1818
:1015A000F4423BD2F74241D2640D43D07F0D38D094
:1015B000E41BC902DB0229432B43CF0ADB0A0600E6
:1015C000B61A9F4104D2641EB6197F41B6185F4116
:1015D0006812800D24180018844222DCE80C0021D7
:1015E000B6197F41B61A9F4102D2B6185F413F1C1F
:1015F00040414941F4D3241C21DD2405B6197F4123
:10160000B61A9F4105D33743C60737430026012F3B
:101610007041614166463143F0BC7047FCD1F742EE
:1016200005D20020C14349054908F3E704D0002052
:10163000C143F1E77F0DFAD000206146ECE7244278
:10164000FAD1401C61410F03F6D30020E2E7F0B568
:101650000E005E400125ED072E40B446AE0ADF18AD
:101660004C18F44208D2F7420ED2640D01D07F0D1F
:1016700012D100206146F0BD05D1F74201D87F0D9F
:1016800005D10020C143F0BDFBD1640DF9D000208D
:10169000C143490549088FE0E419C902DB02294327
:1016A0002B43DB0A460DC00231438E4630B487B26D
:1016B00095B27D432E0CADB2140C7C43A419260CBC
:1016C000240425439CB27C43A419190C7943270CAC
:1016D000C919A4B20F043C43090C000C97B247434C
:1016E0002E0CBE193543ADB2170C4743360CBF194B
:1016F000A6B2BF193E043543240C3E0C36199FB2E6
:101700004743BF19BCB23E0C89191F0C47437F18D1
:101710003E043443390C704680B297B247432E0CD6
:10172000BE193543ADB2170C4743360CBF19A6B2EC
:10173000BF193E043543240C3E0C36199FB2474373
:10174000BF19BCB23E0C89191F0C47437F183E04D9
:101750003443390C77463F0C90B278432E0C8019F5
:101760000604ADB22E43050CA0B22D18120C7A431C
:101770005019020C80B2240CA4189AB27A431219A0
:1017800014042043120C89181B0C7B43C91830BC6D
:10179000EF0A394203D1B61940414941641E6F1224
:1017A000BF0DE41B0BDBFF19BC4211DA2405002737
:1017B0004208AE417841614166463143F0BD641C48
:1017C00005D1401C6141CF0201D34908F4E750E73D
:1017D0005DE7FEE701487047000000001C000020A4
:1017E00012422DD0994231D970B500251B4209D043
:1017F0000C00002112E01100FFF771FE0A00002129
:10180000002370BD0942F6D0002401264918644126
:10181000944200D3A41A7641F8D33100012601E0A6
:10182000764109D2001864416D41A41A9D41F7D256
:10183000A4185D41B619F5D3300022002B0070BD0D
:101840001B42CFD108B500F011F808BD01D190427C
:10185000CAD202000B0000210020704780B5012091
:1018600000F006F801BDFEE77047FEE77047FEE7AF
:1018700080B500BF00BF024A11001820ABBEFBE7D5
:101880002600020000B5010049B2002905D401215B
:10189000C206D20E9140544A116000BDF0B502005C
:1018A00052B2002A1CD40322504B040064B2A40894
:1018B00004256C431C59FF251600064008277E436B
:1018C000B540AC438D01EDB202400826724395400D
:1018D0002543020052B29208042462439D5022E044
:1018E0000F24434A032305006DB22540083DAD088F
:1018F00004267543060076B23440083CA40804264A
:1019000074431659FF27BC461C00044008277C433B
:101910006746A740BE438C01E4B2034008277B43DF
:101920009C4034435451F0BD81B032490A680243AF
:101930000A60096801400091009901B07047016890
:1019400001220A430260704701680122914301604D
:10195000704701688022914301607047416270477F
:10196000406A70470121C94301617047C168012283
:101970000A43C2607047C16801229143C160704749
:1019800000B5B54908700200D2B2052A01D1012282
:101990004A7300BD80B50020AF4902000A70020002
:1019A0008A7208810200CA720873022000F0E2FA0B
:1019B00000F085F901BDA848807B7047A648C07B30
:1019C0007047C34800218173C173704710B5A24CA2
:1019D0002078002802D10120208103E0C048FFF7D1
:1019E000BFFF208110BD000000E100E000E400E046
:1019F0001CED00E0181002407CB500F060F9FFF724
:101A0000E5FF954C2089002800D119E10020010054
:101A100061732178002909D002292CD00ED3042922
:101A20007DD053D3052900D1A8E005E12081012014
:101A300000F0A0FA0120FFF7A3FFFDE0022000F074
:101A400099FA2089A749E27A02235A438852E07A18
:101A5000401CE072A44821894288914207D2218922
:101A60000088814203D30220FFF78AFF02E00520AD
:101A7000FFF786FFE0E0012000F07CFA2089994919
:101A8000E27A02235A438852E07A401CE072964878
:101A90002189C288914207D221898288914203D349
:101AA0000320FFF76DFF10E021894289914209D29E
:101AB00021890089814205D30120E0730320FFF7CB
:101AC0005FFF02E00520FFF75BFFB5E0022000F0BA
:101AD00051FA20898349E27A02235A438852E07AF4
:101AE000401CE07280482189C289914213D2218929
:101AF000808981420FD3A07A202806DAE07B002873
:101B000003D10420FFF73CFF08E0012020730520EB
:101B1000FFF736FF02E00520FFF732FF8CE00120DF
:101B200000F028FA20896F49E27A02235A4388524A
:101B3000E07A401CE0726C482189428A91420AD2C4
:101B40002189028A914206D30320FFF719FFA07A68
:101B5000401CA07211E02189C28A91420AD22189D7
:101B6000808A814206D30320FFF70AFFA07A401C37
:101B7000A07202E00520FFF703FF5DE0217B012951
:101B800058D1E17B002902D00120A07352E003214B
:101B90000200D2B2202A2FDA534A524B0D00EDB286
:101BA000022675435D5B568AB5420DD20D00EDB23B
:101BB000022675435D5B168AB54205D36268012330
:101BC00083409A43626014E00D00EDB20226754333
:101BD0005D5BD68AB5420CD20D00EDB2022675438C
:101BE0005B5B928A934204D3626801238340134370
:101BF0006360891C401CCBE7A07969464870E07996
:101C0000C1436846017020796946C8706079C14354
:101C1000684681706846407869460978C0B2884253
:101C200008D16846C07869468978C0B2884201D137
:101C30000120A073FFF7AEFE607B002800D0E5E630
:101C400000F048F800F02FF873BD21488079704704
:101C50001F480079704700005405002018B585B072
:101C600014220021684600F09CF980208002FFF7D2
:101C70005BFE00211520FFF711FE1520FFF702FE85
:101C80003020694608800020019018490291039095
:101C90000490134C6946200000F099F92000FFF7EA
:101CA00058FE06B010BD10B50D4C2000FFF75AFECF
:101CB0002000FFF75BFE2000FFF741FE10BD10B5CE
:101CC000074C2000FFF740FE2000FFF754FE10BD38
:101CD0005405002080B500210148FFF73FFE01BDFB
:101CE000004401405404002000000020803801001E
:101CF00000B5010049B2002905D40121C206D20E67
:101D00009140934A116000BDF0B5020052B2002A22
:101D10001CD403228F4B040064B2A40804256C4336
:101D20001C59FF251600064008277E43B540AC43EA
:101D30008D01EDB202400826724395402543020012
:101D400052B29208042462439D5022E00F24824A3A
:101D5000032305006DB22540083DAD0804267543F8
:101D6000060076B23440083CA40804267443165991
:101D7000FF27BC461C00044008277C436746A74059
:101D8000BE438C01E4B2034008277B439C403443AC
:101D90005451F0BD81B071490A6802430A60096874
:101DA00001400091009901B0704730B46C4ACBB249
:101DB00004246343D3580F240D002D0CAC40A343DF
:101DC0000C00240C0500A5401D43CBB20424634342
:101DD000D55030BC704763490A6802430A607047B7
:101DE00060490A6882430A6070475F490A68024393
:101DF0000A6070475C490A6882430A60704730B4E1
:101E000003680C004C4303256C43A3430C004C4374
:101E100054431C43046030BC704730B4C3680C00AA
:101E20004C4303256C43A3430C004C4354431C43D5
:101E3000C46030BC704781627047F8B588B0082232
:101E4000002106A800F0ADF818220021684600F035
:101E5000A8F88020C003FFF79DFF80208002FFF7D5
:101E600099FF8020C002FFF795FF9026F60580219C
:101E70003000FFF7E0FF01270097032501950024BC
:101E800004946946394800F082F9022000900195D7
:101E900004946946354800F07AF900970195049456
:101EA0006946300000F073F9022000900195049417
:101EB0006946300000F06BF904200090019504940D
:101EC0006946300000F063F9082000900195049401
:101ED0006946300000F05BF91020009001950494F1
:101EE0006946300000F053F94020009001970494B7
:101EF0006946300000F04BF9802000900197029471
:101F0000039404976946300000F041F91849002015
:101F1000FFF74BFF002220213000FFF77EFF002259
:101F200020213000FFF76BFF2020069006A80771E4
:101F300044710221817106A800F008FA00210720EF
:101F4000FFF7E2FE0720FFF7D3FE09B0F0BD000067
:101F500000E100E000E400E01CED00E014100240AD
:101F600008000140080401400C040140001400482E
:101F70000100040010B504002000C0B2012802D006
:101F8000022807D00CE02020FFF734FF2020FFF7C5
:101F900022FF05E02020FFF723FF2020FFF725FF89
:101FA00010BD10B50400080011000200200000F070
:101FB0005DFA200010BDFEE781627047C162704784
:101FC00001637047416901220A4342617047F8B5D5
:101FD00004000E00384FBC4210D0384884420DD067
:101FE000374884420AD03748844207D03648844272
:101FF00004D090214900354800F0F6FB70680028B5
:1020000010D0706810280DD0706840280AD0706811
:10201000202807D07068602804D0FF2122312B4887
:1020200000F0E2FBF06800280ED0F0688021490043
:10203000884209D0F06880218900884204D091212B
:102040004900224800F0D0FB2568BC4202D01B4862
:10205000844204D170208543280075680543BC4242
:102060000BD01648844208D01548844205D0154844
:10207000844202D01448844203D115482840F568B0
:1020800005432560B1682000FFF798FF31882000E4
:10209000FFF792FFBC4205D00A48844202D00A48AA
:1020A000844203D131692000FFF78AFF2000FFF747
:1020B00089FF0020F2BD0000002C01400004004018
:1020C0000020004000440140004801405C3000080E
:1020D000FFFCFFFF30B403680C004C4303256C4346
:1020E000A3430C004C4354431C43046030BC704772
:1020F00010B443688B430C0054431C43446010BC31
:10210000704730B483680C004C4303256C43A343F1
:102110000C004C4354431C43846030BC704730B4C3
:10212000C3680C004C4303256C43A3430C004C4391
:1021300054431C43C46030BC704730B4036A0C0085
:102140004C434C434C430F256C43A3430C004C437E
:102150004C434C4354431C43046230BC704730B47E
:10216000446A0B0A0D0A6B430D0A6B430D0A6B435D
:102170000F256B439C430B0A0D0A6B430D0A6B43FF
:102180000D0A6B4353432343436230BC7047F8B599
:1021900006000C009020C00586420FD052488642AF
:1021A0000CD05248864209D05148864206D0514848
:1021B000864203D0B221504800F016FB2068002868
:1021C00004D0206880214902884203D3B3214A48C1
:1021D00000F00AFB606800280CD06068012809D074
:1021E0006068022806D06068032803D0B421424802
:1021F00000F0FAFA2069002809D02069012806D0E9
:102200002069022803D0B5213B4800F0EDFA0025F3
:102210002068E840002865D020680121A9400140DD
:102220000F00002F5CD06068012802D0606802288F
:1022300020D1A068002809D0A068012806D0A06895
:10224000032803D0C6212C4800F0CEFAA26839003A
:102250003000FFF756FFE068002806D0E06801284C
:1022600003D0CC21244800F0BFFAE2682168300096
:10227000FFF73EFF226939003000FFF750FF60682A
:10228000022828D16069002818D06069012815D07B
:102290006069022812D0606903280FD060690428A1
:1022A0000CD06069052809D06069062806D06069ED
:1022B000072803D0D821104800F096FAFF2F05D840
:1022C000626939003000FFF738FF04E062693900C5
:1022D0003000FFF744FF626839003000FFF7FAFE74
:1022E0006D1C95E70020F2BD00040048000800487E
:1022F000000C004800140048AC2F000855490A683B
:1023000002430A60704753490A6882430A60704773
:1023100051490A6802430A6070474F490A6882437C
:102320000A6070474D490A6802430A6070474B498A
:102330000A6882430A60704749490A6802430A6092
:10234000704747490A6882430A60704738B50400FD
:102350000025206843490140002903D075214248E7
:1023600000F042FA2079002806D02079012803D015
:1023700076213D4800F038FA6079002809D060796C
:10238000012806D06079022803D07721364800F072
:102390002BFA2079002853D0A07900280CD0A079FE
:1023A000012809D0A079022806D0A079032803D0FB
:1023B0007C212D4800F018FA2068002846D060796A
:1023C000002803D002280FD007D314E02068FFF7BD
:1023D000A4FF2068FFF792FF0FE02068FFF793FF4C
:1023E0002068FFF795FF08E02068FFF787FF206867
:1023F000FFF78EFF01E001200500A079002825D01D
:10240000A079012804D018D303280FD007D314E0F3
:102410002068FFF796FF2068FFF784FF16E020682A
:10242000FFF785FF2068FFF787FF0FE02068FFF7C1
:1024300079FF2068FFF780FF08E00120050005E034
:102440002068FFF760FF2068FFF767FFEDB2280004
:1024500032BD0000000401400404014008040140B2
:102460000C040140000071FF542F00081206130AEB
:102470001A43130C1A4300BF094205D0830705D045
:102480000270401C491EF9D170470000130010393A
:1024900006D330B41400150010393CC0FCD230BC57
:1024A000490700D30CC000D504C0890002D30280C4
:1024B000801C002900D502707047FEE7F0B50200CD
:1024C00052B2002A1CD40322AE4B040064B2A4080A
:1024D00004256C431C59FF251600064008277E433F
:1024E000B540AC438D01EDB20240082672439540E1
:1024F0002543020052B29208042462439D5022E018
:102500000F24A14A032305006DB22540083DAD0804
:1025100004267543060076B23440083CA40804261D
:1025200074431659FF27BC461C00044008277C430F
:102530006746A740BE438C01E4B2034008277B43B3
:102540009C4034435451F0BD10B50400601E8021FE
:102550004904884201D301200EE0601E8B490860C7
:1025600003210020C043FFF7A9FF0020884908602D
:10257000072088490860002010BD874801680122B3
:102580000A43026070478448016808008007C00F52
:10259000704781490A68F8239A43C30013430B60CC
:1025A00070477E490A6803239A4302430A607047D2
:1025B0007A4801680C200840704778490A68F0237F
:1025C0009A4302430A60704774490A68744B134087
:1025D00003430B60704710B472490A680323040E6A
:1025E000A3409A4303021B0A13430B6010BC7047BD
:1025F00069480168802252040A43026070476648B5
:10260000016808008001C00F704710B4634A136866
:10261000654C1C4080235B02034023430B43136043
:10262000624A13680F24A3430407240F1C43146059
:1026300010BC704781B05E490A6802430A600968AD
:1026400001400091009901B0704781B059490A6872
:1026500002430A60096801400091009901B0704787
:1026600055490A6801239A4302430A607047524859
:1026700001680800C007C00F7047F8B584B002A811
:102680004E490CC90CC0083908384D48019001204A
:10269000FFF7DBFF80204005FFF7CCFF0321002080
:1026A000C043FFF70BFF00F038F8FA20C001FFF736
:1026B0004BFFFFF7C2FB00F0D2F8FFF7CFFA414F14
:1026C00000F095F90400E019009000F090F9040082
:1026D0000099200000F080F8002801D0E019009057
:1026E000FFF769F9002815D0FFF7AFFA0600FFF7EA
:1026F00065F9002801D0344D00E034A5FFF7A8FAB1
:102700003300DBB22A00C0B20100314800F0F9F812
:10271000FFF757F900F02CF9D7E710B50020FFF7C5
:102720009FFFFFF7A4FF0028FBD1FFF726FFFFF76D
:102730002AFF0128FBD11020FFF72BFFA0218903DE
:102740000020FFF762FFFFF753FFFFF758FF012854
:10275000FBD10020FFF731FF0020FFF735FF0220FB
:10276000FFF71FFFFFF724FF0828FBD1194C2000BB
:1027700000F07FF9200000F084F90020FFF72BFF24
:1027800010BD000000E400E01CED00E014E000E0FB
:1027900018E000E010E000E00010024004100240E9
:1027A000FFF8FFFF30100240FFFFC2FF2C10024075
:1027B0001C1002401810024000200240CC320008D9
:1027C0006DE7FB3D88130000C432000800000000E4
:1027D00050320008006CDC0200B5884201D30120B1
:1027E00000E00020C0B200BD7047FEE781B06D4937
:1027F0000A6802430A60096801400091009901B02B
:10280000704781B068490A6802430A60096801405C
:102810000091009901B07047016801220A430260EB
:1028200070474168614A0A404260816808229143CA
:1028300081607047C16908000006C00F7047EFF360
:102840001081012282F310888268594B1340836003
:1028500081F3108870470A00D2B202857047F0B544
:102860008DB01C22002106A8FFF79BFB1822002137
:102870006846FFF796FB8020C001FFF7C2FF80206B
:102880008002FFF7B3FF80208000009002270197AD
:1028900003260296002403940494012505956946B5
:1028A0009020C005FFF773FC8020C00000900197C6
:1028B000029603940494059569469020C005FFF79D
:1028C00066FCE120400206900794089409940C20CD
:1028D0000A900B940C94374C06A9200000F013F9D1
:1028E0002000FFF7ACFF2000FFF79BFF2000FFF761
:1028F00093FF802292003049304800F0C3F90DB0B8
:10290000F0BD0EB4F0B5070005AE33003A0000216B
:10291000002000F0FFF9050080218900280080B226
:1029200088420CD2264C33003A00200000F0F2F925
:1029300005002A0092B22100204800F0BFF9049857
:10294000F0BC04B0004770B504000E003000C0B207
:1029500000280CD0174D2800FFF76CFF0028F9D095
:1029600021782800FFF777FF641C761EEEE770BD24
:1029700070B5124C200000F0C1F90500280080B2AB
:1029800000280DD0200000F0C0F906002900C9B2CF
:102990003000FFF7D8FF290089B2200000F0A6F927
:1029A00070BD00001410024018100240FFF7FFFF36
:1029B000FFFBFFFF003801405400002064050020A9
:1029C000540200201F490968084070471D490860EB
:1029D0007047016801229143016070470121C9439A
:1029E0000161704701690800C007C00F70471648B1
:1029F0000068704700B5FEE700B5FEE77047704716
:102A000011480168491C0160704780B52020FFF71C
:102A1000D9FF002804D02020FFF7D8FFFEF7ECFFF5
:102A200001BD10B5094C2000FFF7DCFF002807D0DE
:102A30002000FFF7D3FF2000FFF7CBFFFEF7AAFF30
:102A400010BD000014040140700500200044014046
:102A500030B504000D0020002900FEF740FD401EA7
:102A600009490860002009490860052008490860F4
:102A700030BD10B50400FA2189002000FFF7E8FFFF
:102A800010BD04490860704714E000E018E000E061
:102A900010E000E01800002001680800C007C00F27
:102AA00070474268704B13400B4343607047826825
:102AB0006E4B13400B4383607047FCB504000D0060
:102AC00016001F0080200002864214D102206843B5
:102AD000790840183900FEF702FD80B20090009995
:102AE00063480840009949084907490F0843019085
:102AF0000198E06006E0780828183900FEF7EFFC3E
:102B000080B2E060F3BDFEB506000C00012069460E
:102B1000087000250195574FBE4203D0FD2156484D
:102B2000FFF762FE20685549884203D3FE215248D0
:102B3000FFF75AFE6068002808D0606880214901CC
:102B4000884203D0FF214C48FFF74EFEA0680028C2
:102B500009D0A06880218901884204D080214900E1
:102B60004548FFF741FEE06800280ED0E06880216C
:102B7000C900884209D0E068C021C900884204D059
:102B8000FF21891C3C48FFF72FFE206900280DD04B
:102B9000206904280AD02069082807D020690C2859
:102BA00004D0812149003448FFF71EFE60690028E7
:102BB00013D060698021490088420ED0606980216D
:102BC0008900884209D06069C0218900884204D008
:102BD000FF21091D2848FFF707FEA069002809D03A
:102BE000A06980210902884204D08221490022483C
:102BF000FFF7FAFD3000FFF74FFF00282FD13068B4
:102C00001F49014060680843E168014320690843A7
:102C1000A16901433160A1683000FFF742FF61699B
:102C20003000FFF744FFBE4203D1002000F0C7F898
:102C300001900198002812D0206800280FD0684623
:102C400005702368A26901993000FFF736FFF0682C
:102C5000102804D2FF2180310748FFF7C5FD6846E0
:102C60000078FEBD00000000FFCFFFFFFFFCFFFF6C
:102C7000F0FF000000380140B4300008818D5B0097
:102C8000F369FFFF30B513009BB2042B09DB13007F
:102C90009BB2002B05D0084BD4181500ADB22542CD
:102CA00000D0FEE701608280D318C38000231C009F
:102CB0000481438130BD0000FFFF000070B5002398
:102CC0001C001500A4B2ADB2AC420ED21C00A4B2DE
:102CD0000C5D05680689AC550489641C048104896F
:102CE000C588254005815B1CEAE770BD4289521802
:102CF00042814289C38813404381704701894289D8
:102D0000891AC088084080B270474189006889B23A
:102D1000401870471CB584B000240394002902D1E8
:102D20000194029402E00190491E0291009405ABC7
:102D300001A9074878441830FDF7BAF9019900292C
:102D400000D00C70002800D4039806B010BD00BF5E
:102D5000390500005A48016808008007C00F704715
:102D60005848016808008007C00F7047564801683E
:102D70000C200840704754480168F0200840704714
:102D800051480168E020C000084070474F49096879
:102D9000032282400A400006104370474A480068F8
:102DA000802149020840704747480168F0208003AD
:102DB00008407047464800680007000F704738B564
:102DC00004000025002C03D0FD214248FFF70CFD34
:102DD000002C23D12000FFF7D9FF012804D016D3FF
:102DE000032805D00BD312E000F01AF8050015E017
:102DF000FFF7B0FF002801D0374805000EE0FFF7CD
:102E0000AFFF002802D080200002050006E000F09D
:102E100007F800F019F800F023F80500280032BD8B
:102E200010B50024FFF7A2FF002804D0042804D026
:102E3000082804D006E0284805E0274803E000F011
:102E400019F800E0244810BD10B50400FFF793FF07
:102E5000224900090007000F085CC440200010BD93
:102E600010B50400FFF78CFF1D49000A085CC44040
:102E7000200010BD70B500242600FFF78FFF05006D
:102E80002800002804D080214902884202D003E0B3
:102E9000144C02E0104C00E0124CFFF78BFF0100D5
:102EA0002000491CFEF71BFB0600FFF77DFF800C8E
:102EB0000107090F891C3000484370BD0000000065
:102EC0000010024020100240041002403010024066
:102ED0002C1002400430000800127A00A4320008CE
:102EE000D432000800093D00686A6C747A4C000016
:102EF0007072696E74665F733A20256E2064697320
:102F0000616C6C6F776564007072696E74663A20EC
:102F100062616420256E20617267756D656E740054
:102F20007072696E74665F733A2062616420257303
:102F300020617267756D656E74000000000000000E
:102F40006E616E004E414E00696E6600494E46004D
:102F50003000FEE7433A5C55736572735C612E6125
:102F60006C656B736565765C446F63756D656E74D7
:102F7000735C4E45435C447269766572735C53546E
:102F80004D3332463078785F48414C5F4472697601
:102F900065725C5372635C73746D3332663078783B
:102FA0005F6C6C5F657874692E630000433A5C5512
:102FB000736572735C612E616C656B736565765CBD
:102FC000446F63756D656E74735C4E45435C44720B
:102FD00069766572735C53544D3332463078785F4E
:102FE00048414C5F4472697665725C5372635C73EE
:102FF000746D3332663078785F6C6C5F6770696FC0
:103000002E630000433A5C55736572735C612E61F8
:103010006C656B736565765C446F63756D656E7426
:10302000735C4E45435C447269766572735C5354BD
:103030004D3332463078785F48414C5F4472697650
:1030400065725C5372635C73746D3332663078788A
:103050005F6C6C5F7263632E63000000433A5C55E3
:10306000736572735C612E616C656B736565765C0C
:10307000446F63756D656E74735C4E45435C44725A
:1030800069766572735C53544D3332463078785F9D
:1030900048414C5F4472697665725C5372635C733D
:1030A000746D3332663078785F6C6C5F74696D2E46
:1030B00063000000433A5C55736572735C612E6176
:1030C0006C656B736565765C446F63756D656E7476
:1030D000735C4E45435C447269766572735C53540D
:1030E0004D3332463078785F48414C5F44726976A0
:1030F00065725C5372635C73746D333266307878DA
:103100005F6C6C5F75736172742E630008201C2500
:103110006810F8113408C409C2015802C2015802EB
:10312000B004D00700127A00E6320008E632000848
:10313000E6320008E6320008E6320008E63200080F
:10314000E6320008FFFFFFFFFFFFFFFFBE10000891
:10315000E6320008E6320008FFFFFFFFFFFF000035
:1031600070B40123002413E00168001D194202D04D
:103170004D466918491E0C60091D121F042AFAD217
:103180000D00960701D50C80AD1C1A4000D02C70A4
:103190000268001D002AE7D170BC704730B40122DC
:1031A0000EE00368C31844680830144202D04D464C
:1031B0002C19641E1D6825601B1D241D091FF9D1D3
:1031C0000168001D0029ECD130BC704710B50749DB
:1031D00079441831064C7C44163404E0081D0A6812
:1031E000891888470100A142F8D110BD08000000ED
:1031F000280000006DFFFFFF2405000054000020A0
:103200000000000099FFFFFF5400000000FFFFFFD7
:10321000000000200000000000F00DF8002801D0A0
:10322000FFF7D4FF00BF00BF002000BF00BFFFF7C3
:1032300024FA00F002F80120704780B500F002F88F
:1032400001BDFEE707463846FEF712FBFBE7FEE747
:1032500041646472657373202564202573436F6D28
:103260006D616E642025640D000000000548014674
:1032700003B4684680F3098800BF00BF00BF00BFE9
:10328000FFF7CAFFA5EDF5FE8268521C8260426816
:10329000002A06D00268531C036011704168491E61
:1032A00041607047000000000000000001020304BC
:1032B000060708090148804701480047E93200082D
:1032C0006D320008526570656174200048656C6C51
:1032D0006F0000000000000001020304FEE7FEE7AB
:0A32E000FEE7FEE7FEE7000070477E
:040000050800326D50
:00000001FF
