:020000040800F2
:10000000480B0020F91C0008E5140008E91400085A
:1000100000000000000000000000000000000000E0
:10002000000000000000000000000000ED140008C7
:100030000000000000000000EF140008F1140008A8
:10004000B707000800000000BB0C0008C30F000841
:100050005B180008F31900088F1C0008FB14000847
:10006000000000009B1C0008111D0008131D000863
:10007000151D0008171D0008191D000800000000CC
:100080001B1D0008000000000000000071140008A3
:1000900000000000131500081D1D00081F1D0008AA
:1000A00000000000211D000800000000231D0008C2
:1000B00000B5010049B2002905D40121C206D20EC3
:1000C0009140544A116000BDF0B5020052B2002ABE
:1000D0001CD40322504B040064B2A40804256C43D2
:1000E0001C59FF251600064008277E43B540AC4347
:1000F0008D01EDB20240082672439540254302006F
:1001000052B29208042462439D5022E00F24434AD5
:10011000032305006DB22540083DAD080426754354
:10012000060076B23440083CA408042674431659ED
:10013000FF27BC461C00044008277C436746A740B5
:10014000BE438C01E4B2034008277B439C40344308
:100150005451F0BD81B032490A6802430A6009680F
:1001600001400091009901B07047016801220A43E3
:100170000260704701680122914301607047016885
:10018000802291430160704741627047406A704726
:100190000121C94301617047C16801220A43C2605D
:1001A0007047C16801229143C160704700B5B549ED
:1001B00008700200D2B2052A01D101224A7300BDA3
:1001C00080B50020AF4902000A7002008A720881DF
:1001D0000200CA720873022000F0CCFA00F085F920
:1001E00001BDA848807B7047A648C07B7047C348C4
:1001F00000218173C173704710B5A24C207800288C
:1002000002D10120208103E0C048FFF7BFFF208119
:1002100010BD000000E100E000E400E01CED00E0A3
:10022000181002407CB500F060F9FFF7E5FF954C2F
:100230002089002800D119E1002001006173217894
:10024000002909D002292CD00ED304297DD053D304
:10025000052900D1A8E005E12081012000F08AFAFB
:100260000120FFF7A3FFFDE0022000F083FA2089C0
:10027000A749E27A02235A438852E07A401CE0728E
:10028000A44821894288914207D22189008881426D
:1002900003D30220FFF78AFF02E00520FFF786FF65
:1002A000E0E0012000F066FA20899949E27A022311
:1002B0005A438852E07A401CE07296482189C288ED
:1002C000914207D221898288914203D30320FFF70C
:1002D0006DFF10E021894289914209D2218900896C
:1002E000814205D30120E0730320FFF75FFF02E0A6
:1002F0000520FFF75BFFB5E0022000F03BFA208904
:100300008349E27A02235A438852E07A401CE07221
:1003100080482189C289914213D2218980898142F2
:100320000FD3A07A202806DAE07B002803D104202E
:10033000FFF73CFF08E0012020730520FFF736FFA0
:1003400002E00520FFF732FF8CE0012000F012FAF6
:1003500020896F49E27A02235A438852E07A401C8E
:10036000E0726C482189428A91420AD22189028A2C
:10037000914206D30320FFF719FFA07A401CA07218
:1003800011E02189C28A91420AD22189808A814260
:1003900006D30320FFF70AFFA07A401CA07202E0F8
:1003A0000520FFF703FF5DE0217B012958D1E17BA8
:1003B000002902D00120A07352E003210200D2B232
:1003C000202A2FDA534A524B0D00EDB20226754314
:1003D0005D5B568AB5420DD20D00EDB20226754323
:1003E0005D5B168AB54205D36268012383409A4358
:1003F000626014E00D00EDB2022675435D5BD68AA3
:10040000B5420CD20D00EDB2022675435B5B928AB9
:10041000934204D362680123834013436360891CC1
:10042000401CCBE7A07969464870E079C143684633
:10043000017020796946C8706079C143684681704F
:100440006846407869460978C0B2884208D1684653
:10045000C07869468978C0B2884201D10120A07372
:10046000FFF7AEFE607B002800D0E5E600F048F81C
:1004700000F02FF873BD2148807970471F4800793C
:10048000704700001C03002018B585B0142200211D
:10049000684600F086F980208002FFF75BFE0021AD
:1004A0001520FFF711FE1520FFF702FE30206946E8
:1004B0000880002001901849029103900490134C89
:1004C0006946200000F083F92000FFF758FE06B0CF
:1004D00010BD10B50D4C2000FFF75AFE2000FFF7AD
:1004E0005BFE2000FFF741FE10BD10B5074C200059
:1004F000FFF740FE2000FFF754FE10BD1C03002054
:1005000080B500210148FFF73FFE01BD00440140D6
:100510001C020020000000203075000000B5010022
:1005200049B2002905D40121C206D20E9140884A61
:10053000116000BDF0B5020052B2002A1CD40322A3
:10054000844B040064B2A40804256C431C59FF25A5
:100550001600064008277E43B540AC438D01EDB23E
:1005600002400826724395402543020052B2920889
:10057000042462439D5022E00F24774A03230500A0
:100580006DB22540083DAD0804267543060076B2DD
:100590003440083CA408042674431659FF27BC467F
:1005A0001C00044008277C436746A740BE438C01DB
:1005B000E4B2034008277B439C4034435451F0BDD0
:1005C00081B066490A6802430A60096801400091E7
:1005D000009901B0704730B4614ACBB20424634340
:1005E000D3580F240D002D0CAC40A3430C00240C59
:1005F0000500A5401D43CBB204246343D55030BC55
:10060000704758490A6802430A60704755490A68AA
:1006100082430A60704754490A6802430A6070477F
:1006200051490A6882430A60704730B403680C007D
:100630004C4303256C43A3430C004C4354431C43DD
:10064000046030BC704730B4C3680C004C430325D1
:100650006C43A3430C004C4354431C43C46030BC64
:100660007047F8B588B00822002106A800F099F874
:1006700018220021684600F094F88020C003FFF79C
:100680009FFF80208002FFF79BFF8020C002FFF7C2
:1006900097FF0126009603250195002404946946DE
:1006A000324800F074F902270097019504946946D6
:1006B0002E4800F06CF9009601950494694690204C
:1006C000C00500F064F900970195049469469020F4
:1006D000C00500F05CF9082000900195049469467B
:1006E0009020C00500F053F910200090019504946B
:1006F00069469020C00500F04AF94020009001961C
:10070000049469469020C00500F041F91849002082
:10071000FFF761FF002220219020C005FFF793FF23
:10072000002220219020C005FFF77FFF20200690A7
:1007300006A806714471877106A800F007FA002127
:100740000720FFF7F7FE0720FFF7E8FE09B0F0BD2E
:1007500000E100E000E400E01CED00E014100240C5
:1007600008000140080401400C0401400014004846
:100770000100040010B504002000C0B2012802D01E
:10078000022807D00CE02020FFF74AFF2020FFF7C7
:1007900038FF05E02020FFF739FF2020FFF73BFF5F
:1007A00010BD10B50400080011000200200000F088
:1007B0005DFA200010BDFEE781627047C16270479C
:1007C00001637047416901220A4342617047F8B5ED
:1007D00004000E00384FBC4210D0384884420DD07F
:1007E000374884420AD03748844207D0364884428A
:1007F00004D090214900354800F0E2FB70680028E1
:1008000010D0706810280DD0706840280AD0706829
:10081000202807D07068602804D0FF2122312B489F
:1008200000F0CEFBF06800280ED0F068802149006F
:10083000884209D0F06880218900884204D0912143
:100840004900224800F0BCFB2568BC4202D01B488E
:10085000844204D170208543280075680543BC425A
:100860000BD01648844208D01548844205D015485C
:10087000844202D01448844203D115482840F568C8
:1008800005432560B1682000FFF798FF31882000FC
:10089000FFF792FFBC4205D00A48844202D00A48C2
:1008A000844203D131692000FFF78AFF2000FFF75F
:1008B00089FF0020F2BD0000002C01400004004030
:1008C000002000400044014000480140FC1A00089C
:1008D000FFFCFFFF30B403680C004C4303256C435E
:1008E000A3430C004C4354431C43046030BC70478A
:1008F00010B443688B430C0054431C43446010BC49
:10090000704730B483680C004C4303256C43A34309
:100910000C004C4354431C43846030BC704730B4DB
:10092000C3680C004C4303256C43A3430C004C43A9
:1009300054431C43C46030BC704730B4036A0C009D
:100940004C434C434C430F256C43A3430C004C4396
:100950004C434C4354431C43046230BC704730B496
:10096000446A0B0A0D0A6B430D0A6B430D0A6B4375
:100970000F256B439C430B0A0D0A6B430D0A6B4317
:100980000D0A6B4353432343436230BC7047F8B5B1
:1009900006000C009020C00586420FD052488642C7
:1009A0000CD05248864209D05148864206D0514860
:1009B000864203D0B221504800F002FB2068002894
:1009C00004D0206880214902884203D3B3214A48D9
:1009D00000F0F6FA606800280CD06068012809D0A1
:1009E0006068022806D06068032803D0B42142481A
:1009F00000F0E6FA2069002809D02069012806D015
:100A00002069022803D0B5213B4800F0D9FA00251F
:100A10002068E840002865D020680121A9400140F5
:100A20000F00002F5CD06068012802D060680228A7
:100A300020D1A068002809D0A068012806D0A068AD
:100A4000032803D0C6212C4800F0BAFAA268390066
:100A50003000FFF756FFE068002806D0E068012864
:100A600003D0CC21244800F0ABFAE26821683000C2
:100A7000FFF73EFF226939003000FFF750FF606842
:100A8000022828D16069002818D06069012815D093
:100A90006069022812D0606903280FD060690428B9
:100AA0000CD06069052809D06069062806D0606905
:100AB000072803D0D821104800F082FAFF2F05D86C
:100AC000626939003000FFF738FF04E062693900DD
:100AD0003000FFF744FF626839003000FFF7FAFE8C
:100AE0006D1C95E70020F2BD000400480008004896
:100AF000000C0048001400484C1A000855490A68C8
:100B000002430A60704753490A6882430A6070478B
:100B100051490A6802430A6070474F490A68824394
:100B20000A6070474D490A6802430A6070474B49A2
:100B30000A6882430A60704749490A6802430A60AA
:100B4000704747490A6882430A60704738B5040015
:100B50000025206843490140002903D075214248FF
:100B600000F02EFA2079002806D02079012803D041
:100B700076213D4800F024FA6079002809D0607998
:100B8000012806D06079022803D07721364800F08A
:100B900017FA2079002853D0A07900280CD0A0792A
:100BA000012809D0A079022806D0A079032803D013
:100BB0007C212D4800F004FA2068002846D0607996
:100BC000002803D002280FD007D314E02068FFF7D5
:100BD000A4FF2068FFF792FF0FE02068FFF793FF64
:100BE0002068FFF795FF08E02068FFF787FF20687F
:100BF000FFF78EFF01E001200500A079002825D035
:100C0000A079012804D018D303280FD007D314E00B
:100C10002068FFF796FF2068FFF784FF16E0206842
:100C2000FFF785FF2068FFF787FF0FE02068FFF7D9
:100C300079FF2068FFF780FF08E00120050005E04C
:100C40002068FFF760FF2068FFF767FFEDB228001C
:100C500032BD0000000401400404014008040140CA
:100C60000C040140000071FFF41900081206130A79
:100C70001A43130C1A4300BF094205D0830705D05D
:100C80000270401C491EF9D1704700001300103952
:100C900006D330B41400150010393CC0FCD230BC6F
:100CA000490700D30CC000D504C0890002D30280DC
:100CB000801C002900D502707047FEE7F0B50200E5
:100CC00052B2002A1CD40322A94B040064B2A40827
:100CD00004256C431C59FF251600064008277E4357
:100CE000B540AC438D01EDB20240082672439540F9
:100CF0002543020052B29208042462439D5022E030
:100D00000F249C4A032305006DB22540083DAD0821
:100D100004267543060076B23440083CA408042635
:100D200074431659FF27BC461C00044008277C4327
:100D30006746A740BE438C01E4B2034008277B43CB
:100D40009C4034435451F0BD10B50400601E802116
:100D50004904884201D301200EE0601E86490860E4
:100D600003210020C043FFF7A9FF0020834908604A
:100D7000072083490860002010BD824801680122D5
:100D80000A43026070477F48016808008007C00F6F
:100D900070477C490A68F8239A43C30013430B60E9
:100DA000704779490A6803239A4302430A607047EF
:100DB000754801680C200840704773490A68F023A1
:100DC0009A4302430A6070476F490A686F4B1340A9
:100DD00003430B60704710B46D490A680323040E87
:100DE000A3409A4303021B0A13430B6010BC7047D5
:100DF00064480168802252040A43026070476148D7
:100E0000016808008001C00F704710B45E4A136883
:100E1000604C1C4080235B02034023430B43136060
:100E20005D4A13680F24A3430407240F1C43146076
:100E300010BC704781B059490A6802430A600968CA
:100E400001400091009901B0704781B054490A688F
:100E500002430A60096801400091009901B070479F
:100E600050490A6801239A4302430A6070474D487B
:100E700001680800C007C00F7047F8B50120FFF7F0
:100E8000E4FF80204005FFF7D5FF03210020C04389
:100E9000FFF714FF00F037F8FA20C001FFF754FF06
:100EA000FFF7DFFB00F0BEF8FFF7EEFA00F0DFF926
:100EB00000F0B3F93C4F00F012FB0400E019009081
:100EC00000F00DFB04000099200000F071F80028EC
:100ED00001D0E0190090FFF784F9002810D0FFF747
:100EE00083F90600FFF7C7FA0500FFF7C7FA3200DB
:100EF000D2B22900C9B2C0B200F0D6F9FFF777F933
:100F000000F0FAF9DCE710B50020FFF7A9FFFFF7C2
:100F1000AEFF0028FBD1FFF730FFFFF734FF0128B9
:100F2000FBD11020FFF735FFA02189030020FFF738
:100F30006CFFFFF75DFFFFF762FF0128FBD1002088
:100F4000FFF73BFF0020FFF73FFF0220FFF729FFDD
:100F5000FFF72EFF0828FBD1144C200000F001FB06
:100F6000200000F006FB0020FFF735FF10BD000059
:100F700000E400E01CED00E014E000E018E000E018
:100F800010E000E00010024004100240FFF8FFFFF4
:100F900030100240FFFFC2FF2C1002401C10024024
:100FA000181002400020024088130000006CDC0290
:100FB00000B5884201D3012000E00020C0B200BD8E
:100FC0007047FEE781B040490A6802430A60096839
:100FD00001400091009901B0704781B03B490A6817
:100FE00002430A60096801400091009901B070470E
:100FF000016801220A43026070474168344A0A408E
:10100000426081680822914381607047EFF310814C
:10101000012282F3108882682E4B1340836081F393
:1010200010887047F0B58DB01C22002106A8FFF78C
:10103000B8FB182200216846FFF7B3FB8020C001EF
:10104000FFF7CBFF80208002FFF7BCFF80208000ED
:10105000009002270197032602960024039404942B
:101060000125059569469020C005FFF790FC80207A
:10107000C000009001970296039404940595694678
:101080009020C005FFF783FCE12040020690079402
:10109000089409940C200A900B940C940E4C06A909
:1010A000200000F0A8FA2000FFF7B0FF2000FFF7B3
:1010B000A4FF2000FFF79CFF802292000749084808
:1010C00000F058FB0DB0F0BD1410024018100240A3
:1010D000FFF7FFFFFFFBFFFF003801401C0000206F
:1010E0003803002000B5010049B2002905D40121D0
:1010F000C206D20E91407E4A116000BDF0B50200DA
:1011000052B2002A1CD403227A4B040064B2A40811
:1011100004256C431C59FF251600064008277E4312
:10112000B540AC438D01EDB20240082672439540B4
:101130002543020052B29208042462439D5022E0EB
:101140000F24CA4A032305006DB22540083DAD08AF
:1011500004267543060076B23440083CA4080426F1
:1011600074431659FF27BC461C00044008277C43E3
:101170006746A740BE438C01E4B2034008277B4387
:101180009C4034435451F0BD81B0C2490A680243C7
:101190000A60096801400091009901B0704781B070
:1011A000BD490A6802430A6009680140009100993C
:1011B00001B07047016801220A430260704701686C
:1011C000012291430160704741627047C1627047DC
:1011D0000121C9430161704701690800C007C00FC0
:1011E0007047C16801220A43C2607047C16801228A
:1011F0009143C1607047816170478162704780B5DB
:1012000004219020C005FFF7F8FF01BD80B504213F
:101210009020C005FFF7EFFF01BD00B593B0142289
:1012200000216846FFF7BDFA202200210BA8FFF736
:10123000B8FA1822002105A8FFF7B3FA8020400071
:10124000FFF7ADFF00211320FFF758FF1320FFF732
:1012500049FF302069460880002001908F490291A3
:10126000039069468E48FFF7B2FA13B000BD80B50F
:1012700086B0182200216846FFF793FA802080028A
:10128000FFF782FF042000900120019003210291CA
:1012900000210391049069469020C005FFF777FB79
:1012A000FFF7B4FF07B000BD10B47E4B01241C72E1
:1012B000597118719A7110BC704738B50400784D97
:1012C0002800FFF77CFF21002800FFF77FFF0021A7
:1012D0002800FFF779FF2800FFF77AFF2800FFF7C3
:1012E00069FF2800FFF77DFF31BD6E490870704728
:1012F00000E100E000E400E0F8B56A4C607A002804
:1013000016D1207A002813D001200100617200213B
:101310000A0022726279A27022796270A279E27068
:101320000A0062710A002271A17101002170A0728D
:10133000607A002800D198E0A07A002800D194E0DB
:1013400000252800A0722078002800D182E0022821
:101350000FD005D304282ED019D305286AD084E0F5
:10136000FFF74DFF5048FFF7A8FF0220FFF7BDFF32
:101370007BE0FFF74BFF4D4DE078002800D06D0873
:101380002800FFF79AFF0320FFF7AFFF6DE0FFF79C
:1013900036FF8C208000FFF790FFE079202802DAEA
:1013A000E078002803D00520FFF79FFF02E004202B
:1013B000FFF79BFF59E02F00FFF728FFE07908288F
:1013C00006DA6078E17908410600F607F60F1EE0BC
:1013D000E079102808DA6078C143E079F8300141FB
:1013E0000E00F607F60F12E0E079182807DAA07869
:1013F000E179F03108410600F607F60F07E0A07822
:10140000C143E079E83001410E00F607F60FE079BC
:10141000401CE0713000C0B2002802D0D224E400A9
:1014200001E08C24A4002000FFF747FF0320FFF712
:101430005CFF1AE02800A070280060702800E071AE
:10144000E570FFF7E3FE1A48FFF737FF0020FFF7CC
:101450004CFF0AE06572FFF7D9FE114C2000FFF740
:10146000AEFE2000FFF7C2FEFFE7F1BD1CED00E07D
:1014700010B50B4C2000FFF7AFFE002808D020006D
:10148000FFF7A6FE2000FFF79AFE012005498872AB
:1014900010BD0000141002401C100240409C0000CF
:1014A000002000402C03002028230000941100009D
:1014B000204E00001F490968084070471D49086018
:1014C0007047016801229143016070470121C943BF
:1014D0000161704701690800C007C00F70471648D6
:1014E0000068704700B5FEE700B5FEE7704770473B
:1014F00011480168491C0160704780B52020FFF742
:10150000D9FF002804D02020FFF7D8FFFEF78AFE7D
:1015100001BD10B5094C2000FFF7DCFF002807D003
:101520002000FFF7D3FF2000FFF7CBFFFEF748FEB8
:1015300010BD000014040140440300200044014099
:1015400030B504000D002000290000F02FF9401EE6
:101550000949086000200949086005200849086019
:1015600030BD10B50400FA2189002000FFF7E8FF24
:1015700010BD04490860704714E000E018E000E086
:1015800010E000E01800002001680800C007C00F4C
:1015900070474268704B13400B434360704782684A
:1015A0006E4B13400B4383607047FCB504000D0085
:1015B00016001F0080200002864214D102206843DA
:1015C00079084018390000F0F1F880B200900099D5
:1015D00063480840009949084907490F08430190AA
:1015E0000198E06006E078082818390000F0DEF87D
:1015F00080B2E060F3BDFEB506000C000120694634
:10160000087000250195574FBE4203D0FD21564872
:10161000FFF7D6FC20685549884203D3FE21524883
:10162000FFF7CEFC6068002808D06068802149017F
:10163000884203D0FF214C48FFF7C2FCA068002875
:1016400009D0A06880218901884204D08021490006
:101650004548FFF7B5FCE06800280ED0E06880211F
:10166000C900884209D0E068C021C900884204D07E
:10167000FF21891C3C48FFF7A3FC206900280DD0FE
:10168000206904280AD02069082807D020690C287E
:1016900004D0812149003448FFF792FC606900289A
:1016A00013D060698021490088420ED06069802192
:1016B0008900884209D06069C0218900884204D02D
:1016C000FF21091D2848FFF77BFCA069002809D0ED
:1016D000A06980210902884204D082214900224861
:1016E000FFF76EFC3000FFF74FFF00282FD1306866
:1016F0001F49014060680843E168014320690843CD
:10170000A16901433160A1683000FFF742FF6169C0
:101710003000FFF744FFBE4203D1002000F0D3F8B1
:1017200001900198002812D0206800280FD0684648
:1017300005702368A26901993000FFF736FFF06851
:10174000102804D2FF2180310748FFF739FC684692
:101750000078FEBD00000000FFCFFFFFFFFCFFFF91
:10176000F0FF000000380140541B0008818D5B0031
:10177000F369FFFF30B513009BB2042B09DB1300A4
:101780009BB2002B05D0084BD4181500ADB22542F2
:1017900000D0FEE701608280D318C38000231C00C4
:1017A0000481438130BD0000FFFF00000022030AD6
:1017B0008B420BD203098B4219D243088B422ED2A3
:1017C000411A00D20146524110467047FF220902D9
:1017D0003FD012068B4205D3121209028B4201D36D
:1017E0001212090203098B4219D300E0090AC30946
:1017F0008B4201D3CB01C01A524183098B4201D3E2
:101800008B01C01A524143098B4201D34B01C01ACC
:10181000524103098B4201D30B01C01A5241C30844
:101820008B4201D3CB00C01A524183088B4201D3B3
:101830008B00C01A524143088B4201D34B00C01A9F
:101840005241884200D3401A5241CFD2014610463D
:10185000704708B500F0CCF808BDFEE75A480168AB
:1018600008008007C00F70475848016808008007CB
:10187000C00F7047564801680C2008407047544814
:101880000168F0200840704751480168E020C0001E
:10189000084070474F490968032282400A40000609
:1018A000104370474A480068802149020840704749
:1018B00047480168F02080030840704746480068A8
:1018C0000007000F704738B504000025002C03D036
:1018D000FD214248FFF774FB002C23D12000FFF7C5
:1018E000D9FF012804D016D3032805D00BD312E06A
:1018F00000F01AF8050015E0FFF7B0FF002801D04E
:10190000374805000EE0FFF7AFFF002802D0802027
:101910000002050006E000F007F800F019F800F0FA
:1019200023F80500280032BD10B50024FFF7A2FF00
:10193000002804D0042804D0082804D006E0284851
:1019400005E0274803E000F019F800E0244810BD46
:1019500010B50400FFF793FF224900090007000FAC
:10196000085CC440200010BD10B50400FFF78CFFD8
:101970001D49000A085CC440200010BD70B5002459
:101980002600FFF78FFF05002800002804D08021E3
:101990004902884202D003E0144C02E0104C00E0FF
:1019A000124CFFF78BFF01002000491CFFF7FEFEE1
:1019B0000600FFF77DFF800C0107090F891C30002E
:1019C000484370BD0000000000100240201002409B
:1019D00004100240301002402C100240A41A0008EB
:1019E00000127A00E81C0008081D000800093D00EC
:1019F0007047FEE7433A5C55736572735C612E6114
:101A00006C656B736565765C446F63756D656E744C
:101A1000735C4E45435C447269766572735C5354E3
:101A20004D3332463078785F48414C5F4472697676
:101A300065725C5372635C73746D333266307878B0
:101A40005F6C6C5F657874692E630000433A5C5587
:101A5000736572735C612E616C656B736565765C32
:101A6000446F63756D656E74735C4E45435C447280
:101A700069766572735C53544D3332463078785FC3
:101A800048414C5F4472697665725C5372635C7363
:101A9000746D3332663078785F6C6C5F6770696F35
:101AA0002E630000433A5C55736572735C612E616E
:101AB0006C656B736565765C446F63756D656E749C
:101AC000735C4E45435C447269766572735C535433
:101AD0004D3332463078785F48414C5F44726976C6
:101AE00065725C5372635C73746D33326630787800
:101AF0005F6C6C5F7263632E63000000433A5C5559
:101B0000736572735C612E616C656B736565765C81
:101B1000446F63756D656E74735C4E45435C4472CF
:101B200069766572735C53544D3332463078785F12
:101B300048414C5F4472697665725C5372635C73B2
:101B4000746D3332663078785F6C6C5F74696D2EBB
:101B500063000000433A5C55736572735C612E61EB
:101B60006C656B736565765C446F63756D656E74EB
:101B7000735C4E45435C447269766572735C535482
:101B80004D3332463078785F48414C5F4472697615
:101B900065725C5372635C73746D3332663078784F
:101BA0005F6C6C5F75736172742E630070B4012397
:101BB000002413E00168001D194202D04D46691847
:101BC000491E0C60091D121F042AFAD20D00960747
:101BD00001D50C80AD1C1A4000D02C700268001D8D
:101BE000002AE7D170BC704730B401220EE00368D0
:101BF000C31844680830144202D04D462C19641EA4
:101C00001D6825601B1D241D091FF9D10168001DD9
:101C10000029ECD130BC704710B507497944183120
:101C2000064C7C44163404E0081D0A68891888476D
:101C30000100A142F8D110BD0800000028000000FA
:101C40006DFFFFFF2C0300001C00002000000000BF
:101C500099FFFFFF1C00000074000000000000203E
:101C60000000000000F00DF8002801D0FFF7D4FFBD
:101C700000BF00BF002000BF00BFFFF7FEF800F06C
:101C800002F80120704780B500F002F801BDFEE7C0
:101C90000746384600F002F8FBE7FEE780B500BFD4
:101CA00000BF024A11001820ABBEFBE7260002006D
:101CB0000548014603B4684680F3098800BF00BFA9
:101CC00000BF00BFFFF7CEFFA5EDF5FE08201C25E5
:101CD0006810F8113408C409C2015802C201580240
:101CE000B004D00700127A000000000000000000DD
:101CF000010203040607080901488047014800471C
:101D0000251D0008B11C00080000000001020304AA
:101D1000FEE7FEE7FEE7FEE7FEE7FEE7FEE7FEE79B
:061D2000FEE7FEE770473C
:0400000508001CB122
:00000001FF
